:100000006F40306F13000000130000001300000069
:100010001300000013000000130000001300000094
:100020001300000013000000130000001300000084
:08003000130000007300100032
:1000380000000000000000002C4D00003C4D0000B6
:1000480000000000384E0000000000000000000022
:100058003A4E00003C4E0000000000000000000086
:100068003E4E000000000000404E0000000000006E
:10007800424E0000444E0000464E0000484E00002C
:100088004A4E00004C4E00002E440000A2440000DE
:10009800164500008A450000FE450000584E000045
:1000A8005A4E00005C4E00005E4E0000604E00009C
:1000B800624E0000644E0000664E0000684E00006C
:1000C8006A4E00006C4E00006E4E00007246000042
:1000D800724E000040480000764E0000784E000046
:1000E800C44800003C490000BC490000804E0000A4
:1000F800824E0000844E0000864E0000884E0000AC
:100108008A4E0000F83F00003E9B00007C40000043
:100118004A470000944E0000964E0000984E00009A
:10012800B44B00009C4E00009E4E0000A04E000004
:10013800A24E0000A44E00003C4A0000A84E000059
:100148000041000084410000BC4A0000344B00001C
:10015800B24E0000B44E0000B64E0000B84E00008B
:10016800BA4E0000BC4E0000BE4E0000C04E00005B
:10017800C24E0000C44E0000C64E000024730000AA
:10018800CA4E0000CC4E0000A0430000044200000C
:100198008842000024430000D64E0000344C000082
:1001A800DA4E0000DC4E0000DE4E0000B44C0000C9
:1001B800E24E0000E44E0000E64E0000E84E00006B
:1001C800EA4E0000EC4E0000EE4E0000F04E00003B
:1001D8000000000000000000000000000000000017
:1001E8000000000000000000000000000000000007
:0801F8000000000000000000FF
:10020000737504308280B76200009382820873A005
:10021000023082803D432A876373C3029377F700DD
:10022000BDEFADE5937606FF3D8ABA960CC34CC38D
:100230000CC74CC74107E36BD7FE11E28280B306BF
:10024000C3408A069702000096966780A60023079F
:10025000B700A306B7002306B700A305B700230520
:10026000B700A304B7002304B700A303B700230318
:10027000B700A302B7002302B700A301B700230110
:10028000B700A300B7002300B700828093F5F50FF5
:1002900093968500D58D93960501D58D61B793967C
:1002A00027009702000096968682E78086FA96805D
:1002B000C1171D8F3E96E374C3F8A5B7011106CE92
:1002C00022CC00102326A4FE8327C4FE81EB8146A6
:1002D000014681450145EF00B009A5AA0327C4FEE8
:1002E00085476319F7008146014681450545EF00C2
:1002F000300885A20327C4FE89476319F7008146A9
:10030000014681450945EF00B006A1A20327C4FEBE
:100310008D476319F7008146014681450D45EF0081
:10032000300505AA0327C4FE91476319F7008146EB
:10033000014681451145EF00B00321AA0327C4FE01
:1003400095476319F7008146014681451545EF0041
:10035000300201A20327C4FE99476319F7008146C2
:10036000014681451945EF00B000E5A00327C4FE12
:100370009D476319F7008146014681451D45EF0001
:10038000207FC1A80327C4FEA147631AF700814656
:100390000146814513050002EF00807D5DA803271B
:1003A000C4FEA547631AF70081460146814513053F
:1003B0001002EF00E07B71A80327C4FEA947631A6F
:1003C000F70081460146814513050004EF00407A9D
:1003D00049A00327C4FEAD47631AF70081460146D2
:1003E000814513051004EF00A078A5A00327C4FEE3
:1003F000B147631AF7008146014681451305200481
:10040000EF000077B9A00327C4FEB547631AF700D1
:1004100081460146814513053004EF00607515A83B
:100420000327C4FEB947631AF70081460146814598
:1004300013054004EF00C07329A80327C4FEBD477D
:100440006319F70081460146814513055004EF000A
:1004500020720100F240624405618280011106CEE3
:1004600022CC00102326A4FE2324B4FE8327C4FE3E
:1004700093F7F70F91460546BE85B72701401385D0
:100480000740EF4070598545B72701401385074065
:10049000EF40505401008945B727014013850740BC
:1004A000EF40107CAA87E5DBB72701409387074020
:1004B000F847832784FEB357F700C207C1833E8500
:1004C000F240624405618280797106D622D4001818
:1004D000232EA4FC232CB4FCB287A30BF4FC03470B
:1004E00074FD13063005CD679385C7EF3A85EF306D
:1004F000A03F232404FEA30704FE15A0832584FD4A
:100500000325C4FDA13FAA873E87832784FEBA97AF
:100510002324F4FE8347F4FE8507A307F4FE034774
:10052000F4FE834774FDE36BF7FC834774FD0327F8
:1005300084FEB357F7022324F4FE832784FEC20708
:10054000C1833E85B250225445618280397106DEF6
:1005500022DC80002326A4FC232804FC232A04FC9C
:10056000232C04FC232E04FC232004FE232204FE5F
:10057000232404FE232604FE0325C4FC8133854581
:1005800013050020EF50D0080145EF50A057B727C2
:10059000014013850740EF40B01F232804FC232AA5
:1005A00004FC232C04FCB7070E00232EF4FC2320AC
:1005B00004FE85472302F4FE930704FDBE85B7279A
:1005C000014013850740EF40B0228545B727014021
:1005D00013850740EF40F0318145B727014013856F
:1005E0000740EF40906BB727014013850740EF406D
:1005F00030340100B727014013850740EF407035C4
:10060000AA87EDFBB727014013850740EF407037FD
:100610000100B727014013850740EF40B038AA8793
:10062000EDFB0100F250625421618280011122CE63
:1006300000102324A4FE2326B4FEB7F700E023A075
:100640000700B7F700E08146014794C7D8C7B7F75E
:1006500000E0054798C30100B7F700E003A8C70012
:100660009C470327C4FEC286636CD7000327C4FEE1
:10067000C286E313D7FE032784FE6363F700E9BF56
:100680000100724405618280011106CE22CC001067
:100690002326A4FE2324B4FE93068004014681454C
:1006A0000325C4FEF12193068004014681450325FC
:1006B00084FE7D290100F2406244056182800111BF
:1006C00006CE22CC00102326A4FEB70700201387F5
:1006D00007008327C4FEBA9703C707009307F00FEC
:1006E0006311F702CD670327C4FE0A079387C74942
:1006F000BA979C4383D74702C207C183C207C18709
:10070000B9A8B7070020138707008327C4FEBA974C
:1007100083C707003E852929AA8785C3CD6703279C
:10072000C4FE0A079387C749BA979C4383D74702F9
:10073000C207C183C207C1871DA0CD670327C4FEBE
:100740000A079387C749BA979C4383D74702C207D2
:10075000C183B307F040C207C183C207C1873E858A
:10076000F240624405618280011122CE00102326EE
:10077000A4FECD670327C4FE0A079387C749BA972B
:100780009C432392070201007244056182807971C3
:1007900006D622D40018232EA4FC232CB4FC232A32
:1007A000C4FC91450325C4FDEF108038AA873E871D
:1007B00013067005CD67938547F63A85EF30C01272
:1007C0000325C4FDEF10403C832784FD13F7F70F8A
:1007D000832744FD93F7F70FBE853A857535832748
:1007E00084FD13D787008547631AF7008545B7074F
:1007F00016001385070CEF50001301A2832784FD18
:1008000013D78700C547631AF7008545B707180057
:1008100013850730EF502011CDA0832784FD13D717
:10082000870093071002631AF7008545B7171A006F
:10083000138507C0EF50200FC9A0832784FD13D76D
:10084000870093072002631AF7008545B7171A003F
:1008500013850780EF50200D4DA0832784FD13D70B
:100860008700930710036317F70085450565EF5070
:10087000800B61A0832784FD13D78700930710079F
:10088000631BF700B7070140D84FB7070140136754
:100890004700D8CF9DA0832784FD13D787009307F7
:1008A0001008631BF700B7070140D84FB707014096
:1008B00013670701D8CF91A0832784FD13D7870042
:1008C00093071009631BF700B7070140D84FB7071C
:1008D000014013670704D8CF0DA0832784FD13D7E9
:1008E000870093072009631AF700B7070140D84F24
:1008F000B707014013670702D8CF85450545EF507C
:100900002051930744FE3E85EF509062231204FE6F
:10091000FD572314F4FE231504FE231304FE2306BF
:1009200004FECD670327C4FD0A079387C749BA971A
:100930009C433E87930744FEBE853A85EF50605A3C
:10094000CD670327C4FD0A079387C749BA979C431D
:100950008146014689453E85EF50D073CD67032718
:10096000C4FD0A079387C749BA979C4385453E85CE
:10097000EF50D05F0100B2502254456182807971FE
:1009800006D622D40018232EA4FC232CB4FC8545C3
:100990000545EF50E0479306800405468145032551
:1009A000C4FDF9228327C4FD958313F7F70F83272E
:1009B000C4FD93F7F70FFD8B93F7F70FBE853A85CC
:1009C000EF50200A232004FE232204FE232404FEE9
:1009D000232604FE8327C4FDFD8B0547B317F700CC
:1009E0002320F4FE232204FE832784FD2324F4FE27
:1009F00085472326F4FE930704FE3E85EF40302E04
:100A00008327C4FDFD8B89E75945EF304052BDA0D7
:100A10008327C4FDF98B89E75D45EF304051B9A8C4
:100A20008327C4FD13F7F701894763E6E7006145B3
:100A3000EF30E04FA1A08327C4FDF18B89E7654526
:100A4000EF30E04E25A88327C4FD13F7F701914747
:100A500063E6E7006945EF30804D0DA08327C4FDB4
:100A600013F7F701A54763E7E70013057002EF30BE
:100A7000004C29A013058003EF30604B0100B250F9
:100A8000225445618280011122CE00102326A4FE4B
:100A9000B70701409387074098438327C4FEFD8B27
:100AA0008546B397F600BE86B70701409387074097
:100AB000558F98C30100724405618280011122CED6
:100AC00000102326A4FEAE87A305F4FE8347B4FEE0
:100AD0009DC78327C4FEBD8B0547B317F7009396C8
:100AE0000701C1828327C4FE13D75700CD670A07C9
:100AF00093878748BA979C43368798CB35A083273E
:100B0000C4FEBD8B0547B317F70093960701C1825A
:100B10008327C4FE13D75700CD670A0793878748FA
:100B2000BA979C433687D8CB010072440561828016
:100B3000011122CE00102326A4FE8327C4FE958334
:100B400013F77700CD670A0793878748BA979C43C6
:100B50009C470327C4FE7D8B85463397E600F98FBB
:100B600099C3854711A081473E8572440561828003
:100B7000797106D622D40018232EA4FC232CB4FCB1
:100B8000232AC4FC2328D4FC232004FE232204FEB1
:100B9000232404FE8327C4FD958393F7F70F9D8BD1
:100BA000A307F4FE8327C4FD93F7F70FBD8B23073C
:100BB000F4FE0327C4FD9307F00F6305F714032722
:100BC000C4FD9307F00F6301F7148347F4FE91E728
:100BD00085451145EF50C02341A00347F4FE8547EA
:100BE0006317F70085452145EF508022B5A00347E4
:100BF000F4FE89476317F70085454145EF504021D2
:100C0000A1A80347F4FE8D476318F7008545130537
:100C10000002EF50E01F89A00347F4FE91476318DC
:100C2000F700854513050004EF50801E35A00347EB
:100C3000F4FE95476318F700854513050008EF504B
:100C4000201D19A80347F4FE99476317F70085454F
:100C500013050010EF50C01B8347E4FE0547B31790
:100C6000F700C207C1832310F4FE032784FD8547E4
:100C70006317F702832704FDC207C183A183C2075C
:100C8000C18389E78D472322F4FE11A8832704FD41
:100C9000C207C183A183C207C1832322F4FE832735
:100CA00004FDC207C18393F7F70F2324F4FE034723
:100CB000F4FECD670A0793878748BA979C433E871F
:100CC000930704FEBE853A85EF40D01F032784FDBD
:100CD0008547631CF7020347F4FECD670A07938735
:100CE0008748BA979C43BE868347E4FE0547B317FF
:100CF000F700C207C183032644FDBE853685EF4059
:100D0000103F21A0010011A00100B2502254456102
:100D100082801D7186CEA2CC80102326A4FA2324C3
:100D2000B4FACD6703AE8703138787030323470015
:100D30001387870383288700138787030328C70047
:100D400013878703084B138787034C4B138787034D
:100D5000104F13878703544F1387870318539387C4
:100D60008703DC532322C4FD232464FC232614FDC3
:100D7000232804FD232AA4FC232CB4FC232EC4FC2A
:100D80002320D4FE2322E4FE2324F4FE85450325FC
:100D9000C4FAEF00F059AA873E8713065002CD67C8
:100DA000938507FD3A85EF203034832784FAB337E3
:100DB000F00093F7F70F3E8713066002CD67938527
:100DC00007FD3A85EF205032832784FABD8323172D
:100DD000F4FE8357E4FE85073E87832784FAB3D762
:100DE000E7022316F4FE0325C4FAEF00F059232C82
:100DF00004FA232E04FA231004FC8357C4FE231E96
:100E0000F4FA8357E4FE231CF4FA231F04FA231D8B
:100E100004FA230004FCCD670327C4FA0A0793876A
:100E2000C749BA979C433E87930784FBBE853A85A2
:100E3000EF50200BCD670327C4FA0A079387C749F1
:100E4000BA979C43054685453E85EF50B01DCD675A
:100E50000327C4FA0A079387C749BA979C43854575
:100E60003E85EF50B0608327C4FA93F7F70F8A07E7
:100E7000130704FFBA9783A747FD8D453E85EF30E2
:100E8000C00E8327C4FA8A07130704FFBA9783A703
:100E900047FD3E85EF30A009CD670327C4FA0A0756
:100EA0009387C749BA979C4385453E85EF50100C00
:100EB0000100F640664425618280011106CE22CCF5
:100EC00000102326A4FE8327C4FE89EB93068031FD
:100ED00001468545214569396F0020760327C4FE08
:100EE0008547631AF70093068031014685452545FD
:100EF00041316F0080740327C4FE8947631AF700ED
:100F0000930680310146854529459D316F00E07289
:100F10000327C4FE8D47631AF7009306803101460C
:100F200085452D45B1316F0040710327C4FEC1478F
:100F3000631BF70093068031014685451305900831
:100F400005396F00806F0327C4FEC547631AF70099
:100F500093068031014685451305B0081139F1AD7E
:100F60000327C4FEC947631AF70093068031014680
:100F700085451305D008ED3EC9A50327C4FECD471E
:100F8000631AF70093068031014685451305E00892
:100F9000C53665A50327C4FE930700106319F70043
:100FA00093068031014685450145D93679A5032749
:100FB000C4FE930710106319F700930680310146B1
:100FC00085450545753695AD0327C4FE930720106A
:100FD0006319F70093068031014685450945493E6E
:100FE000A9AD0327C4FE930730106319F7009306D9
:100FF0008031014685450D45A53E81A50327C4FEE8
:10100000930700116319F700930680310146854567
:101010003D45B93E1DA50327C4FE93071011631A71
:10102000F700930680310146854513053002893665
:1010300029A50327C4FE93072011631AF70093061E
:101040008031014685451305A0021D36FDA3032707
:10105000C4FE93073011631AF700930680310146EE
:1010600085451305B0022936C9AB0327C4FE930793
:1010700000206319F7009306803101468545194524
:10108000C53C65AB0327C4FE930710206319F70026
:1010900093068031014685451D45D93C79AB032730
:1010A000C4FE93072020631AF7009306803101469F
:1010B0008545130500026D3C49A30327C4FE930731
:1010C0003020631AF70093068031014685451305E9
:1010D0001002793C9DA30327C4FE93070021631AE5
:1010E000F7009306803101468545130560044934B5
:1010F000A9A30327C4FE93071021631AF7009306E0
:10110000803101468545130570049D343DA30327B6
:10111000C4FE93072021631AF7009306803101462D
:10112000854513058004A93409AB0327C4FE930742
:101130003021631AF7009306803101468545130577
:1011400090043D34DDA90327C4FE93070022631AEF
:10115000F700930680310146854513054002093C9E
:10116000E9A90327C4FE93071022631AF700930628
:1011700080310146854513055002DD3A7DA90327DC
:10118000C4FE93070030631AF700930680310146CE
:10119000854513056002E93A4DA10327C4FE930774
:1011A0001030631AF7009306803101468545130518
:1011B00070027D3A59A10327C4FE93072030631AB9
:1011C000F7009306803101468545130580024D32B4
:1011D000ADA10327C4FE93073030631AF7009306CE
:1011E000803101468545130590025932B9A1032784
:1011F000C4FE93070031631BF7009306803101465C
:1012000085451305C006EFF0BF9605A90327C4FE68
:1012100093071031631BF700930680310146854523
:101220001305D006EFF0DF9409A90327C4FE930746
:101230002031631BF7009306803101468545130575
:10124000E006EFF0FF92D5AE0327C4FE93073031DE
:10125000631BF70093068031014685451305F006B0
:10126000EFF01F91D9AE0327C4FE93070040631A25
:10127000F70093068031014685450145EFF05F8F09
:101280006DAE0327C4FE93071040631AF700930660
:101290008031014685450545EFF09F8D79AE0327E6
:1012A000C4FE93072040631AF7009306803101467D
:1012B00085450945EFF0DF8B49A60327C4FE930758
:1012C0003040631AF70093068031014685450D458D
:1012D000EFF01F8A9DA60327C4FE93070070631BCF
:1012E000F700930680310146854513056004EFF051
:1012F0003F88A1A60327C4FE93071070631BF70065
:10130000930680310146854513057004EFF05F8632
:101310002DA60327C4FE93072070631BF7009306D6
:1013200080310146854513058004EFF07F8431A6A6
:101330000327C4FE93073070631BF70093068031C8
:101340000146854513059004EFF09F82FDA4032715
:10135000C4FE93070071631BF700930680310146BA
:10136000854513056002EFF0BF80C1AC0327C4FEC2
:1013700093071071631BF700930680310146854582
:1013800013057002EFF0CFFE4DAC0327C4FE9307A8
:101390002071631BF70093068031014685451305D4
:1013A0008002EFF0EFFC51AC0327C4FE93073071CD
:1013B000631BF70093068031014685451305D00471
:1013C000EFF00FFB9DAC8327C4FE9387078089EB6A
:1013D00093068031014685450945EFF06FF9B1ACC0
:1013E0000327C4FE856793871780631AF700930667
:1013F0008031014685450D45EFF08FF73DAC032761
:10140000C4FE856793872780631AF70093068031AF
:10141000014685451145EFF0AFF505A40327C4FE4D
:10142000856793873780631BF700930680310146F9
:10143000854513054004EFF0AFF301A40327C4FE74
:10144000856793870781631BF70093068031014608
:10145000854513059006EFF0AFF1C5A20327C4FE42
:10146000856793871781631BF700930680310146D8
:1014700085451305B006EFF0AFEFC1A20327C4FE08
:10148000856793872781631BF700930680310146A8
:1014900085451305D006EFF0AFED45A20327C4FE46
:1014A000856793873781631BF70093068031014678
:1014B00085451305F006EFF0AFEB41A20327C4FE0C
:1014C000856793870790631BF70093068031014679
:1014D000854513058002EFF0AFE985A20327C4FE1E
:1014E000856793871790631BF70093068031014649
:1014F000854513059002EFF0AFE781A20327C4FEF4
:10150000856793872790631BF70093068031014618
:10151000854513053004EFF0AFE505A20327C4FEAF
:10152000856793873790631BF700930680310146E8
:1015300085451305B004EFF0AFE301A20327C4FE15
:10154000856793870791631BF700930680310146F7
:10155000854513051006EFF0AFE1C5A00327C4FED3
:10156000856793871791631BF700930680310146C7
:10157000854513053006EFF0AFDFC1A00327C4FE99
:10158000856793872791631BF70093068031014697
:10159000854513055006EFF0AFDD45A00327C4FED7
:1015A000856793873791631BF70093068031014667
:1015B000854513057006EFF0AFDB41A00327C4FE9D
:1015C000856793870792631BF70093068031014676
:1015D000854513053002EFF0AFD985A00327C4FE7F
:1015E000856793871792631BF70093068031014646
:1015F000854513054002EFF0AFD781A00327C4FE55
:10160000856793872792631BF70093068031014615
:10161000854513055002EFF0AFD505A00327C4FEA2
:10162000856793873792631AF700930680310146E6
:1016300085451305F004EFF0AFD30100F24062449A
:1016400005618280797106D622D40018232EA4FC6D
:10165000232CB4FC032784FDB16793871735B33778
:10166000F70093F7F70F3E8713062008CD679385A1
:1016700007063A85EF2040278327C4FD13D787004C
:10168000CD670A079387C749BA979C4383D7C70298
:101690002317F4FE0357E4FE832784FD3307F70284
:1016A000B16793870735B357F7022316F4FE8327F4
:1016B000C4FD13D78700CD670A079387C749BA9738
:1016C00098438327C4FD8D8B8A07BA979387470376
:1016D0003E878357C4FE1CC30100B25022544561AB
:1016E0008280397106DE22DC80002326A4FC2324BC
:1016F000B4FC2322C4FC8327C4FCA1838D453E8512
:101700000529AA873E871306B00BCD679385070688
:101710003A85EF20601D032744FCB1679387173596
:10172000B337F70093F7F70F3E871306D00BCD675B
:10173000938507063A85EF20201B232004FE2322F1
:1017400004FE231404FE232804FC232A04FC232C77
:1017500004FC232E04FC231704FE8327C4FCA1836E
:101760003E851D210325C4FCEFF02FF58545054579
:10177000EF40006A8327C4FC13D747008547631AEC
:10178000F7008545B70716001385070CEF40A01931
:1017900001A28327C4FC13D74700C547631AF7008B
:1017A0008545B707180013850730EF40C017CDA057
:1017B0008327C4FC13D7470093071002631AF7006E
:1017C0008545B7171A00138507C0EF40C015C9A09B
:1017D0008327C4FC13D7470093072002631AF7003E
:1017E0008545B7171A0013850780EF40C0134DA039
:1017F0008327C4FC13D74700930710036317F70030
:1018000085450565EF40201261A08327C4FC13D7EE
:10181000470093071007631BF700B7070140D84F35
:10182000B707014013674700D8CF9DA08327C4FCAA
:1018300013D7470093071008631BF700B707014051
:10184000D84FB707014013670701D8CF91A083276E
:10185000C4FC13D7470093071009631BF700B707B1
:101860000140D84FB707014013670704D8CF0DA038
:101870008327C4FC13D7470093072009631AF70096
:10188000B7070140D84FB707014013670702D8CF09
:1018900003A7C186832784FCB357F702C1832317AC
:1018A000F4FE03A7C1868357E4FE8507BE8683271F
:1018B00084FCB387F602B357F7022316F4FE0357EE
:1018C000C4FE832744FC3307F702B16793870735CB
:1018D000B357F7022315F4FE8357C4FEFD17C20762
:1018E000C1832312F4FE8357E4FE2310F4FE231376
:1018F00004FE231104FE230404FE8327C4FC13D733
:101900008700CD670A079387C749BA979C433E87EC
:10191000930704FEBE853A85EF40A05C930700075D
:101920002318F4FC85472319F4FC231A04FC83577D
:10193000A4FE231BF4FC8947231CF4FC8947231DC8
:10194000F4FC231E04FC231F04FC8327C4FC8D8BA2
:10195000B9EF8327C4FC13D78700CD670A079387A5
:10196000C749BA979C433E87930704FDBE853A85D5
:10197000EF40006F8327C4FC13D78700CD670A07A9
:101980009387C749BA979C43A1453E85EF40107E97
:101990008327C4FC13D78700CD670A079387C749FD
:1019A000BA979C4391453E85EF50001189A2832749
:1019B000C4FC13F7370085476311F7068327C4FC7F
:1019C00013D78700CD670A079387C749BA979C4307
:1019D0003E87930704FDBE853A85EF40300283279A
:1019E000C4FC13D78700CD670A079387C749BA9706
:1019F0009C43A1453E85EF40307C8327C4FC13D730
:101A00008700CD670A079387C749BA979C43930518
:101A100000403E85EF50000FD9A88327C4FC13F780
:101A2000370089476310F7068327C4FC13D7870064
:101A3000CD670A079387C749BA979C433E879307A8
:101A400004FDBE853A85EF4090198327C4FC13D767
:101A50008700CD670A079387C749BA979C43A1457A
:101A60003E85EF40107B8327C4FC13D78700CD67EA
:101A70000A079387C749BA979C4391453E85EF5023
:101A8000C00DB5A08327C4FC13F737008D47631042
:101A9000F7068327C4FC13D78700CD670A0793870F
:101AA000C749BA979C433E87930704FDBE853A8594
:101AB000EF40B0308327C4FC13D78700CD670A07F7
:101AC0009387C749BA979C43A1453E85EF4030793B
:101AD0008327C4FC13D78700CD670A079387C749BC
:101AE000BA979C43930500403E85EF50C00B832777
:101AF000C4FC13D78700CD670A079387C749BA97F5
:101B00009C4385453E85EF40F04B8327C4FC13D7AB
:101B10008700CD670A079387C749BA979C438545D5
:101B20003E85EF40B0440100F25062542161828052
:101B3000011122CE00102326A4FE2324B4FE032785
:101B4000C4FE0A0793874190BA979C4381EF03270D
:101B5000C4FE0A0793874190BA97032784FE98C36F
:101B6000854739A80327C4FE0A0793874190BA978F
:101B70009C43032784FE6314F700854711A0814727
:101B80003E85724405618280011106CE22CC001090
:101B90002326A4FE8327C4FE81EB85458567138534
:101BA0000780EF40E0266DA80327C4FE8547631732
:101BB000F70085450545EF40002A5DA00327C4FED8
:101BC00089476317F70085450945EF40C02849A8B4
:101BD0000327C4FE8D476317F70085451145EF4085
:101BE0008027BDA80327C4FE91476317F7008545EA
:101BF0002145EF404026ADA00327C4FE954763175B
:101C0000F70085454145EF40002599A80327C4FE0C
:101C100099476318F700854513050002EF40A0239C
:101C200081A00327C4FE9D476317F700854509651A
:101C3000EF40001E35A00327C4FEA1476318F7003C
:101C4000854537050800EF40A01C19A80327C4FEEE
:101C5000A5476317F700854537051000EF40401B87
:101C60000100F240624405618280011106CE22CC5F
:101C700000102326A4FE2324B4FE8327C4FE81EB98
:101C8000E146014685452545EFE09FEEC9AA0327B9
:101C9000C4FE8947631AF700E146014685451305EE
:101CA0006002EFE0FFEC65AA0327C4FEC147631999
:101CB000F700E146014685450945EFE07FEB45A287
:101CC0000327C4FEC947631AF700E146014685456C
:101CD00013055006EFE0DFE959A20327C4FE93077E
:101CE0000002631AF700E146014685451305A0028C
:101CF000EFE01FE8ADA20327C4FE93072002631A9A
:101D0000F700E146014685451305A004EFE05FE6D4
:101D1000B9A20327C4FE93074002631AF700E14605
:101D20000146854513058006EFE09FE40DAA0327D1
:101D3000C4FE93070004631AF700E1460146854597
:101D40001305A004EFE0DFE219AA0327C4FE9307FE
:101D50002004631AF700E146014685451305000299
:101D6000EFE01FE1EDA80327C4FE93070005631A07
:101D7000F700E146014685451305C004EFE05FDF4B
:101D8000F9A80327C4FE93072005631AF700E1466C
:101D90000146854513058008EFE09FDDC9A00327B4
:101DA000C4FE93070006631AF700E1460146854525
:101DB00013050004EFE0DFDB5DA00327C4FE9307FB
:101DC0002006631AF700E146014685451305000425
:101DD000EFE01FDA69A00327C4FE93070007631A28
:101DE000F700E1460146854513052004EFE05FD882
:101DF000BDA00327C4FE930720076319F700E1463F
:101E0000014685451945EFE0BFD691A80327C4FEDA
:101E100093074007631AF700E1460146854513051D
:101E2000C008EFE0FFD425A80327C4FE93070008ED
:101E3000631AF700E1460146854513054004EFE0CB
:101E40003FD331A80327C4FE930720086319F70086
:101E5000E146014685451305E008EFE07FD1032701
:101E600084FE8547631AF700930680040146814586
:101E70002945EFE0FFCFD5AA032784FE8D47631BDA
:101E8000F700930680040146814513057002EFE0D8
:101E90003FCEE1AA032784FEC547631AF7009306E5
:101EA0008004014681450D45EFE09FCC7DAA0327C4
:101EB00084FECD47631BF7009306800401468145ED
:101EC00013056006EFE0DFCA4DA2032784FE9307E7
:101ED0001002631BF7009306800401468145130539
:101EE000B002EFE0FFC851A2032784FE930730023F
:101EF000631BF70093068004014681451305B00477
:101F0000EFE01FC79DA2032784FE93075002631BC7
:101F1000F700930680040146814513059006EFE023
:101F20003FC5A1A2032784FE93071004631BF7009B
:101F300093068004014681451305B004EFE05FC3BA
:101F40002DA2032784FE93073004631BF70093063A
:101F500080040146814513051002EFE07FC131A2E4
:101F6000032784FE93071005631BF7009306800484
:101F70000146814513052006EFE09FBFFDA0032722
:101F800084FE93073005631BF70093068004014627
:101F9000814513059008EFE0BFBDC1A8032784FE6B
:101FA00093071006631BF7009306800401468145E2
:101FB00013051004EFE0DFBB4DA8032784FE930751
:101FC0003006631BF7009306800401468145130524
:101FD000B008EFE0FFB951A8032784FE930710076C
:101FE000631BF70093068004014681451305300406
:101FF000EFE01FB89DA8032784FE93073007631AFC
:10200000F70093068004014681451D45EFE05FB669
:10201000A9A8032784FE93075007631BF7009306C4
:102020008004014681451305D008EFE07FB435A850
:10203000032784FE93071008631BF70093068004B0
:102040000146814513055004EFE09FB239A80327EC
:1020500084FE93073008631AF70093068004014654
:1020600081451305F008EFE0BFB00100F240624483
:1020700005618280011122CE00102326A4FEAE87C6
:10208000A305F4FE0100CD670327C4FE0A0793876A
:10209000474CBA979C4383D70700C207C18393F785
:1020A0000708F5D3CD670327C4FE0A079387474C7B
:1020B000BA979C433E878347B4FEC207C18323126D
:1020C000F7000100724405618280011106CE22CC26
:1020D00000102326A4FE2324B4FE2322C4FE29A834
:1020E000832784FE138717002324E4FE83C7070099
:1020F000BE850325C4FEBD3F832744FE1387F7FF3B
:102100002322E4FEF1FF0100F24062440561828077
:10211000011106CE22CC00102326A4FE2324B4FEF7
:1021200039A8832784FE138717002324E4FE8387BE
:10213000070093F7F70FBE850325C4FE253F8327CD
:1021400084FE83870700F1FF0100F24062440561CD
:102150008280011106CE22CC00102326A4FEAE8779
:10216000A305F4FECD670327C4FE0A079387474CF7
:10217000BA979C433E878347B4FE3E8693055052F0
:102180003A85EF40D05A138781838327C4FEBA97DC
:1021900083C7070081453E85EF10305D8347B4FE5D
:1021A00081CF138781838327C4FEBA9783C7070033
:1021B0003E85EF10D05719A8138781838327C4FE6B
:1021C000BA9783C707003E85EF1050580100F240D0
:1021D000624405618280011122CE00102326A4FEF4
:1021E0002324B4FECD670327C4FE0A079387474C18
:1021F000BA979C4383D70700C207C18393F70702AE
:102200008DC7CD670327C4FE0A079387474CBA974B
:102210009C4383D74700C207C18313F7F70F832777
:1022200084FE2380E700854711A081473E857244E4
:1022300005618280797106D622D40018232EA4FC71
:10224000232CB4FC232AC4FC2328D4FC232004FE22
:10225000232204FE232404FE232604FE854505458F
:10226000EF30103B832504FD032544FDEFF0FF9F75
:10227000032744FD8947631CF700032704FD8D47AE
:102280006317F70085451145EF30E06995AA0327EC
:1022900044FDC947631CF700032704FDCD476317BE
:1022A000F70085452145EF30006899AA032744FDD2
:1022B000930720026310F702032704FD93073002FF
:1022C000631AF7008545B707140013850701EF303F
:1022D00080653DA2032744FD930740026310F70287
:1022E000032704FD93075002631AF7008545B707DB
:1022F000140013850703EF30006319A2032744FD80
:10230000930720046311F702032704FD93073004A9
:10231000631BF700B7070140D44FB707014041677F
:10232000558FD8CFF1A8032744FD930720056312EA
:10233000F702032704FD93073005631CF700B70776
:102340000140D44FB707014037070800558FD8CF59
:1023500045A8032744FD930720066312F7020327CD
:1023600004FD93073006631CF700B7070140D44F04
:10237000B707014037072000558FD8CF51A003275A
:1023800044FD930720076312F702032704FD930718
:102390003007631CF700B7070140D44FB70701406F
:1023A00037074000558FD8CFA1A8032744FD9307D6
:1023B00040076312F702032704FD93075007631CCD
:1023C000F700B7070140D44FB70701403707800037
:1023D000558FD8CF35A0032744FD930720086311FC
:1023E000F702032704FD93073008631BF700B707C4
:1023F0000140D44FB707014037070002558FD8CFAF
:102400008327C4FD91E785451165EF30702069A8E9
:102410000327C4FD85476318F7008545370502008B
:10242000EF30702351A00327C4FD89476318F700DC
:10243000854537050400EF301022BDA00327C4FDF9
:102440008D476318F700854537050800EF30B02049
:10245000A1A80327C4FD91476318F70085453705F8
:102460001000EF30501F89A00327C4FD9547631863
:10247000F700854513050004EF30F01D35A0032754
:10248000C4FD99476318F700854513050008EF3030
:10249000901C19A80327C4FD9D476317F7008545C5
:1024A00013050010EF30301B832784FD2320F4FE3A
:1024B000231204FE231304FE231404FE231604FE39
:1024C000B1472315F4FECD670327C4FD0A079387A0
:1024D000474CBA979C433E87930704FEBE853A85D6
:1024E000EF40A07BCD670327C4FD0A079387474CC5
:1024F000BA979C4385453E85EF40701D0100B25060
:10250000225445618280411106C622C40008938589
:1025100081841945C9310546938581841385C1920B
:10252000EF1080590100B2402244410182804111E4
:1025300006C622C4000803A7418689476301F70243
:1025400003A741868D476315F700EF00B03501A85A
:1025500003A7418691476314F700EF00503C010048
:10256000B240224441018280411106C622C40008C3
:1025700003A7418691476315F700EF00B04001A81B
:1025800003A741868D476314F700EF001038010060
:10259000B240224441018280011122CE0010AA875C
:1025A000A307F4FE8346F4FEB72701409387078014
:1025B000DC4713F707F0B727014093870780558F53
:1025C000D8C70100724405618280011122CE00103B
:1025D000AA87A307F4FECD6793878748DC433E872D
:1025E000930700085CCBCD6793878748DC433E8721
:1025F00089671CCB8346F4FEB72701409387078089
:10260000DC4713F707F0B727014093870780558F02
:10261000D8C7CD6793878748DC473E87C1475CCBE7
:10262000CD6793878748DC433E87A1675CCBCD6746
:1026300093878748DC433E87A1671CCBCD67938790
:102640008748DC473E87C1471CCB010072440561C7
:102650008280011106CE22CC0010AA87A307F4FEC7
:10266000CD6793878748DC433E87930700081CCBE0
:10267000CD6793878748DC433E8789671CCB8347B8
:10268000F4FE3E85113FCD6793878748DC473E8740
:10269000C1475CCBCD6793878748DC433E87A16702
:1026A0005CCBCD6793878748DC433E87A1671CCB13
:1026B000CD6793878748DC473E87C1471CCB010025
:1026C000F240624405618280011106CE22CC0010E6
:1026D000AA872317F4FECD6793878748DC433E879C
:1026E000930700081CCBCD6793878748DC433E8760
:1026F00089671CCB8357E4FEA183C207C18393F78C
:10270000F70F3E85513DCD6793878748DC473E876D
:10271000C1475CCBCD6793878748DC433E87A16781
:102720005CCBCD6793878748DC433E87A1671CCB92
:102730008357E4FE93F7F70F3E85B93DCD67938746
:102740008748DC473E87C1475CCBCD679387874886
:10275000DC433E87A1675CCBCD6793878748DC432A
:102760003E87A1671CCBCD6793878748DC473E87B0
:10277000C1471CCB0100F240624405618280011117
:1027800006CE22CC0010AA8736872317F4FEAE8728
:102790002316F4FEB2872315F4FEBA872314F4FE41
:1027A0001305A0021D358357E4FE3E85313F835754
:1027B000A4FE3E85113F1305B002013D8357C4FEC0
:1027C0003E851937835784FE3E85FD3D1305C002C3
:1027D000ED3B0100F240624405618280011122CE8E
:1027E00000102326A4FE0327C4FE23A6E1840327AA
:1027F000C4FE854763EDE700B70700201307000F0D
:102800002392E72A130700142393E18019A8B7073E
:102810000020130700142392E72A1307000F2393C5
:10282000E1800100724405618280797106D622D46C
:102830000018AA87231FF4FCB707002083D7472A74
:10284000FD1713970701418383D76180FD17C207E6
:10285000C183BE863A86814501451537231704FE9C
:1028600005A8231604FE11A88357E4FD3E85A93D63
:102870008357C4FE85072316F4FE83D76180035770
:10288000C4FEE363F7FE8357E4FE85072317F4FED7
:10289000B707002083D7472A0357E4FEE363F7FC1A
:1028A0000100B250225445618280797106D622D44B
:1028B0000018AA87AE863287231FF4FCB687231E32
:1028C000F4FCBA87A30DF4FCA30704FE65A88347B4
:1028D000F4FE1397070141838357C4FDBA9793957C
:1028E0000701C1818357E4FD9D07139607014182CB
:1028F0008347F4FE1397070141838357C4FDBA97BA
:102900001397070141838357E4FDBA863E85853DD1
:102910008307B4FDC207C183938607FE8347F4FE95
:102920004D6792061307474E3697BA9783C707003D
:10293000A306F4FE230704FE25A88347D4FE858B57
:1029400081CBB707002083D7072A3E85B53B39A046
:10295000B707002083D7272A3E85BD338347D4FE9F
:102960008583A306F4FE8347E4FE85072307F4FE70
:102970000347E4FE9D47E3F2E7FC8347F4FE850747
:10298000A307F4FE0347F4FEBD47E3F2E7F40100BA
:10299000B250225445618280797106D622D4001843
:1029A000AA872E87232CC4FC231FF4FCBA87231E7E
:1029B000F4FCB707002083D7472A0357E4FDB33759
:1029C000F70093F7F70F3E8713062013CD67938523
:1029D000870C3A85EF00507183D761800357C4FD9F
:1029E000B337F70093F7F70F3E8713063013CD6721
:1029F0009385870C3A85EF00306F231704FE3DA8BE
:102A00008357E4FE8E071397070141838357E4FD44
:102A1000BA9793960701C1828357E4FE032784FD8A
:102A2000BA97038707008357C4FD3A86BE8536856B
:102A3000AD3D8357E4FE85072317F4FE8357E4FE7C
:102A4000032784FDBA9783870700DDFB0100B2509E
:102A5000225445618280397106DE22DC8000AA871B
:102A60002324C4FC36872317F4FCAE872316F4FC1A
:102A7000BA87A303F4FCB707002083D7472A03577C
:102A8000E4FCB337F70093F7F70F3E871306901473
:102A9000CD679385870C3A85EF00106583D76180F9
:102AA0000357C4FCB337F70093F7F70F3E871306BD
:102AB000A014CD679385870C3A85EF00F0628347B9
:102AC00074FCB337F00093F7F70F3E871306B0148A
:102AD000CD679385870C3A85EF001061834774FCBE
:102AE00093B7B70093F7F70F3E871306C014CD676F
:102AF0009385870C3A85EF00305F832784FC23267B
:102B0000F4FE85472324F4FE9307C4FD3146814536
:102B10003E85EFD02FF0834774FC85073E879307EF
:102B2000C4FD3A86930500023E85EFD0AFEE034721
:102B300074FCA54763EBE70231A8032784FEBA873C
:102B40008A07BA9786072324F4FE834774FCFD178F
:102B5000A303F4FC834774FCEDF30327C4FE83272F
:102B600084FEB367F7022326F4FE9307C4FD832592
:102B7000C4FE3E85EF10A0049306C4FD0357C4FCB9
:102B80008357E4FC3686BA853E8539350100F2501C
:102B9000625421618280397106DE22DC8000AA87BE
:102BA0002724A4FC36872317F4FCAE872316F4FCF5
:102BB000B287A303F4FCBA872303F4FCB707002011
:102BC00083D7472A0357E4FCB337F70093F7F70F8F
:102BD0003E8713060019CD679385870C3A85EF0071
:102BE000B05083D761800357C4FCB337F70093F725
:102BF000F70F3E8713061019CD679385870C3A852A
:102C0000EF00904E834774FCB337F00093F7F70F53
:102C10003E8713062019CD679385870C3A85EF0010
:102C2000B04C834774FC93B7970093F7F70F3E8738
:102C300013063019CD679385870C3A85EF00D04A8B
:102C4000834764FCB337F00093F7F70F3E87130612
:102C50004019CD679385870C3A85EF00F04883478C
:102C600064FC93B7770093F7F70F3E87130650196C
:102C7000CD679385870C3A85EF001047872784FC42
:102C80002726F4FECD6787A7C7132724F4FE9307F2
:102C900044FD454681453E85EFD0CFD7034774FCC0
:102CA000834764FCBA9789073E87930744FD3A86B9
:102CB000930500023E85EFD0EFD5034774FCA5478E
:102CC00063EAE70439A8072784FECD6787A70714BE
:102CD000D377F7102724F4FE834774FCFD17A30372
:102CE000F4FC834774FCE5F38727C4FE539707C0C1
:102CF000872784FED39707C0B347F70253F707D05F
:102D0000872784FED377F7100727C4FED377F70809
:102D10002726F4FE034764FC930744FDBA85072584
:102D2000C4FE3E85EF007076930644FD0357C4FC55
:102D30008357E4FC3686BA853E85EFF0FFC5010077
:102D4000F250625421618280011106CE22CC001023
:102D5000A30704FE930700F82307F4FEC1460546C7
:102D600085451305D002EFD0BFE0C1460546854535
:102D70001305F002EFD0DFDFC14605468545130598
:102D80007002EFD0FFDEC14605468545130570068B
:102D9000EFD01FDEC1460546854513054006EFD03E
:102DA0003FDDC1460546854513050006EFD05FDCD3
:102DB000A30704FE0DA00347E4FE8347F4FEBA9781
:102DC000C146014685453E85EFD09FDA8347F4FE34
:102DD0008507A307F4FE0347F4FE9D47E3FDE7FCE8
:102DE0000100F240624405618280011106CE22CCCE
:102DF0004ACA4EC852C656C45AC25EC00010A9374D
:102E000083A7C1843E85EFF07F9DCD679387874878
:102E1000DC473E8785471CCBCD6793878748DC47D7
:102E20003E87930700085CCB03A7C1868967938719
:102E300007F43357F702BA878A07BA973E8B814B5C
:102E40005A85DE85EFD08FFECD6793878748DC47B4
:102E50003E87930700081CCB03A7C1868967938729
:102E600007F43357F702BA879207998F8E073E8A85
:102E7000814A5285D685EFD06FFB4545EFF0EFF4E0
:102E800003A7C1868967938707F43357F702BA8788
:102E90009207998F8E073E8981494A85CE85EFD06A
:102EA000EFF813056003EFF04FF283A7C18489E7C1
:102EB0000145EFF00FFA0DA803A7C18485476317FA
:102EC000F7001305000CEFF0CFF839A803A7C18471
:102ED00089476317F70013050007EFF08FF729A064
:102EE0001305000AEFF0EFF61305A003EFF0EFED86
:102EF0001545EFF00FF61305200BEFF00FED314500
:102F0000EFF02FF53145EFF0CFF40145EFF06FF41E
:102F100013053003EFF0EFF313053003EFF06FF319
:102F20001305700BEFF06FEA13055003EFF06FF22B
:102F30001305B00BEFF06FE913059002EFF06FF19E
:102F40001305200CEFF06FE80545EFF08FF0130547
:102F5000300CEFF08FE76545EFF0AFEF1305400C55
:102F6000EFF0AFE613050002EFF0AFEE1305500CE3
:102F7000EFF0AFE56945EFF0CFED1305600CEFF032
:102F8000CFE47D45EFF0EFEC1305000DEFF0EFE33C
:102F90001305400AEFF0EFEB1305100AEFF06FEBAB
:102FA0001305000EEFF06FE21305000DEFF06FEA6E
:102FB0002145EFF00FEA3945EFF0AFE92545EFF095
:102FC0004FE92545EFF0EFE81545EFF08FE81305E1
:102FD0001003EFF00FE813053003EFF08FE7130550
:102FE0008004EFF00FE75D45EFF0AFE65145EFF0FD
:102FF0004FE65545EFF0EFE513051003EFF06FE5F1
:1030000013054003EFF0EFE41305100EEFF0EFDBD4
:103010001305000DEFF0EFE32145EFF08FE33945A5
:10302000EFF02FE32545EFF0CFE22545EFF06FE21B
:103030005545EFF00FE213051003EFF08FE1130594
:103040003003EFF00FE113058004EFF08FE05D45F2
:10305000EFF02FE05145EFF0CFDF5545EFF06FDF98
:1030600013051003EFF0EFDE13054003EFF06FDE02
:1030700013051002EFF06FD513059002EFF0EFD4B7
:10308000B707002083D7272A3E85EFF00FFA01000B
:10309000F24062445249C249324AA24A124B824B20
:1030A00005618280411106C622C4000883C771856C
:1030B0003E8793874185BA97BE851145EFF0AF9162
:1030C000AA8781CB83C77185850713F7F70FA38B79
:1030D000E18403C771858547631AF70003C74185FB
:1030E0009307500A6304F700A38B018403C771851B
:1030F0008D476317F700A38B01840547238CE18478
:103100000100B240224441018280411122C60008E0
:1031100005472388E1840100324441018280411146
:1031200006C622C4000883C7F1853E879387C18500
:10313000BA97BE851145EFF00F8AAA8781CB83C766
:10314000F185850713F7F70FA38FE18403C7F18596
:103150008547631AF70003C7C1859307500A6304C4
:10316000F700A38F018403C7F1858D476317F7002C
:10317000A38F018405472380E1860100B2402244E9
:1031800041018280411122C600080547A380E186E3
:103190000100324441018280011106CE22CC001090
:1031A0002326A4FE0327C4FE23A6E18619280325AF
:1031B000C4FE5920EF00105E0100F2406244056138
:1031C0008280411122C60008B71702409843B71702
:1031D00002401367170098C3B7170240D443B717CC
:1031E00002403707FFF8758FD8C3B71702409443E2
:1031F000B71702403707F7FE7D17758F98C3B717CB
:1032000002409443B71702403707FCFF7D17758FC4
:1032100098C3B7170240D443B7170240370781FF5E
:103220007D17758FD8C3B717024037079F0098C71F
:103230000100324441018280797122D60018232E88
:10324000A4FC232604FE232404FEB7170240944363
:10325000B71702404167558F98C3B717024098438C
:10326000B7070200F98F2324F4FE8327C4FE8507E5
:103270002326F4FE832784FE99E70327C4FE9307E1
:103280000050E31CF7FCB71702409843B707020051
:10329000F98F89C785472324F4FE19A0232404FE4F
:1032A000032784FE85476315F71EB727024098431E
:1032B000B72702401367070198C3B7270240984316
:1032C000B7270240719B98C3B727024094438327D6
:1032D000C4FD1387F7FFB7376E0193870760B357B5
:1032E000F70213F77700B7270240558F98C33717B7
:1032F0000240B71702405843D8C337170240B717E8
:1033000002405843D8C337170240B717024058430A
:10331000D8C30327C4FDB7177A0093870720631B20
:10332000F702B7170240D843B7170240719BD8C3C2
:10333000B7170240D843B717024013671700D8C326
:103340000100B7170240DC4313F7C7009147E31AA7
:10335000F7FE81A2B7170240D443B71702403707E0
:10336000C1FF7D17758FD8C30327C4FDB7479508E4
:1033700093870740631BF700B7170240D443B71782
:1033800002404167558FD8C355A80327C4FDB7171E
:103390002707938707E0631CF700B7170240D44361
:1033A000B717024037073900558FD8C341A8032704
:1033B000C4FDB7E7B80593870780631CF700B7170C
:1033C0000240D443B717024037072900558FD8C3AE
:1033D000B5A00327C4FDB7A74A0493870720631C41
:1033E000F700B7170240D443B717024037071D0054
:1033F000558FD8C3A1A00327C4FDB777DC029387FC
:1034000007C0631CF700B7170240D443B717024048
:1034100037071100558FD8C315A00327C4FDB73750
:103420006E0193870760631BF700B7170240D44310
:10343000B717024037070500558FD8C3B7170240AA
:103440009443B717024037070001558F98C3010016
:10345000B71702409843B7070002F98FF5DBB7179B
:103460000240D843B7170240719BD8C3B717024038
:10347000D843B717024013672700D8C30100B71716
:103480000240DC4313F7C700A147E31AF7FE11A07F
:1034900001A0325445618280411122C6000801001A
:1034A0000100324441018280011106CE22CC00107D
:1034B000232604FE232404FE232604FE25A0232421
:1034C00004FE39A0D13F832784FE85072324F4FE20
:1034D000032784FEC167E367F7FE8327C4FE8507E1
:1034E0002326F4FE0327C4FE9307F00FE3F9E7FC5D
:1034F0000100F240624405618280011106CE22CCB7
:1035000000102326A4FE8325C4FE0945EFE05FC01A
:103510000100F24062440561828041712326111E40
:103520002324811E2322911E801B232EA4E0232C02
:10353000B4E0231504FE231404FE231304FE231217
:1035400004FE0325C4E1EFC0F06DAA87C207C1875E
:103550002313F4FE83D7019489C7938701949C4B6E
:10356000829783C7018793F7F70F6388072E83D766
:1035700001946389072A93870194D847CD671386FE
:1035800047148145014502978327C4E12326F4FEB1
:103590000325C4E1EFC01069AA87C207C1872313BE
:1035A000F4FE9387019483D727003E879387019485
:1035B00083C76700B347F702C207C1872312F4FE2F
:1035C00001008327C4FE138717002326E4FE8387A8
:1035D0000700E5FB231404FEA1A88327C4FEFD1702
:1035E0002326F4FE8327C4FE038707009307F00217
:1035F000630AF7008327C4FE038707009307C0050B
:10360000631BF700835784FEC207C1838507C20787
:10361000C1832314F4FE835764FEC207C187C20727
:10362000C183FD17C207C183C207C1872313F4FEFC
:10363000835784FE139707014183854763E8E700BA
:10364000835764FEC207C187E3D907F8835764FE36
:10365000C207C18763C207028327C4FE85072326EA
:10366000F4FE130744EE0326C4FECD679385471589
:103670003A85EFC0D0561DA8835784FEC207C18388
:1036800081EF130744EE0326C4FECD67938507162A
:103690003A85EFC0D05419A8130744EE0326C4FEA0
:1036A000CD67938547153A85EFC07053231504FE07
:1036B00001A2231404FE59A0930744EE3E85EFC0F7
:1036C00070562A87835784FEC207C183BE868357FC
:1036D000A4FEC207C1833E86835744FEC207C1874A
:1036E000B307F602B6976367F706835784FEC207EF
:1036F000C1833E878357A4FEC207C183BE8683571A
:1037000044FEC207C187B387F602BA97035784FE07
:1037100042074183BA86130704FFBA97038747EF2E
:10372000930704FFB697238AE7EA835784FEC2070C
:10373000C1838507C207C1832314F4FE835784FE27
:10374000C207C1833E87835744FEC207C187E34552
:10375000F7F611A00100835784FEC207C183130747
:1037600004FFBA97238A07EA93870194D447938783
:10377000019483C777001397070141838357A4FE01
:10378000C207C1838507C207C183B307F702C20717
:10379000C183130744EA3A86BE8501458296835762
:1037A000A4FEC207C1838507C207C1832315F4FEA7
:1037B0008357A4FEC207C183BE84930744EE3E85AF
:1037C000EFC050462A87835744FEC207C187B357CC
:1037D000F7028507E3EFF4EC130744EE032684E1D8
:1037E000CD67938507173A85EFC0703F93870194A3
:1037F000D4479387019483C77700139707014183C8
:103800008357A4FEC207C1838507C207C183B307DC
:10381000F702C207C183130744EE3A86BE8501450D
:10382000829625A8930744E21306000881453E8549
:10383000EFC05F9E130744E2832684E10326C4E1C0
:10384000CD679385C7173A85EFC070399387019488
:103850009847930744E23E85029701008320C11EEA
:103860000324811E8324411E7D618280797106D6E6
:1038700022D40018232EA4FC232CB4FC232AC4FC3D
:10388000232604FEA9A00100CD679387474C9C47DF
:10389000930500043E85EF30007BAA87F5D7CD67FE
:1038A0009387474C9C47BE86832784FD1387170068
:1038B000232CE4FC83870700C207C183BE853685BD
:1038C000EF3020738327C4FE85072326F4FE0327E9
:1038D000C4FE832744FDE348F7FA832744FD3E8571
:1038E000B250225445618280011106CE22CC0010D4
:1038F000AA872324B4FE2322C4FEA307F4FE834731
:10390000F4FE9DEB83C7818093F7F70F95C783C7BC
:10391000118791C301A083C71187850713F7F70F9C
:10392000A388E1867525832544FE032584FEEFF0F8
:10393000DFBEEFF07FB7C5BF0100F2406244056112
:103940008280011122CE00102326A4FE8327C4FE0C
:10395000239007008327C4FE7D572391E700832728
:10396000C4FE7D572392E7008327C4FE7D5723833F
:10397000E7008327C4FE7D57A383E7008327C4FEA7
:1039800023A407008327C4FE23A607008327C4FEC1
:1039900023A807000100724405618280011122CE34
:1039A00000102326A4FE8327C4FE03D7070023901C
:1039B000E1948327C4FE03D72700938701942391C2
:1039C000E7008327C4FE03D747009387019423921F
:1039D000E7008327C4FE03C767009387019423830E
:1039E000E7008327C4FE03C7770093870194A3836E
:1039F000E7008327C4FE98479387019498C78327DD
:103A0000C4FED84793870194D8C78327C4FE984B38
:103A10009387019498CB05472388E186010072447F
:103A200005618280797106D622D400189307C4FDFF
:103A30003E85EFF01FF1B73700009387A74F232291
:103A4000F4FE9307C4FD3E85EFF05FF59306100288
:103A500013060002F167938507200945EFE08FFD0B
:103A60000100B250225445618280011122CE001023
:103A70002326A4FE2324B4FE8327C4FED843832731
:103A800084FE3E978327C4FED8C319A88327C4FEAB
:103A9000D8438327C4FE9C4B1D8F8327C4FED8C305
:103AA0008327C4FE984B8327C4FEDC43E3F0E7FE84
:103AB0000100724405618280797106D622D4001813
:103AC000232EA4FC232CB4FC232AC4FC8327C4FD8E
:103AD000DC47032744FD637EF70CDD298327C4FD03
:103AE000984B8327C4FDDC43B307F7402326F4FE3D
:103AF000032744FD8327C4FE63FDE7068327C4FD37
:103B000098438327C4FDDC43BA970326C4FE83256C
:103B100084FD3E85EFB0305E8325C4FE0325C4FDE1
:103B2000EFF0BFF4032784FD8327C4FEBA97232C4C
:103B3000F4FC8327C4FD98438327C4FDDC43B3060C
:103B4000F700032744FD8327C4FEB307F7403E86F2
:103B5000832584FD3685EFB0105A032744FD832763
:103B6000C4FEB307F740BE850325C4FDEFF0FFEFA9
:103B70002DA08327C4FD98438327C4FDDC43BA9757
:103B8000032644FD832584FD3E85EFB0D056832572
:103B900044FD0325C4FDEFF05FED8327C4FDD84746
:103BA000832744FD1D8F8327C4FDD8C7DD2E8147A1
:103BB00011A089473E85B2502254456182803971F7
:103BC00022DE80002326A4FC2324B4FCA30704FEE9
:103BD000832784FC63DD07008327C4FC1387170059
:103BE0002326E4FC1307D0022380E70089A883275B
:103BF00084FCB1E78327C4FC130700032380E7009C
:103C000051A0032784FCA947B367F70213D7F741F4
:103C1000B98F998F0347F4FE93061700A307D4FECC
:103C2000BA8613F7F70F930704FFB6972386E7FECC
:103C3000032784FCA947B347F7022324F4FC832716
:103C400084FCE1F32DA88347F4FEFD17130704FF5E
:103C5000BA9783C7C7FE9387070393F6F70F8327A7
:103C6000C4FC138717002326E4FC139786016187A1
:103C70002380E7008347F4FEFD17A307F4FE834784
:103C8000F4FEF1F37254216182801D71A2CE801086
:103C90002326A4FA2724A4FAAE87A303F4FA232642
:103CA00004FE232404FEA30304FE872784FAD3978B
:103CB00007C02326F4FE872784FA530700F0D39722
:103CC000E7A081CF8327C4FA138717002326E4FADD
:103CD0001307D0022380E70099A0872784FA5307AF
:103CE00000F0D3A7E7A085CF8327C4FA1387170076
:103CF0002326E4FA130700032380E7008327C4FA8E
:103D0000138717002326E4FA1307E0022380E70055
:103D10008327C4FA130700032380E700BDAA832783
:103D2000C4FED3F707D0072784FAD377F7082724F0
:103D3000F4FA11A8072784FACD6787A7871CD377E1
:103D4000F7102724F4FA834774FA1387F7FFA303C5
:103D5000E4FAEDF3872784FAD39707C02324F4FE0F
:103D60001DA8834774FE13871700A303E4FEBE86D5
:103D70000327C4FEA9473367F702939726009306EB
:103D800004FFB69723A0E7FE0327C4FEA947B34765
:103D9000F7022326F4FE8327C4FEE1F7A1A08347A0
:103DA00074FEFD178A07130704FFBA9783A707FE5F
:103DB00013D7F741B98F998F93F7F70F93870703BD
:103DC00093F6F70F8327C4FA138717002326E4FA24
:103DD0001397860161872380E700834774FEFD17F0
:103DE000A303F4FE834774FEDDFB8327C4FA138725
:103DF00017002326E4FA1307E0022380E700832755
:103E000084FEB1E38327C4FA130700032380E7008D
:103E100069A0834774FE13871700A303E4FEBE86E0
:103E2000032784FEA9473367F7029397260093067A
:103E300004FFB69723A6E7FC032784FEA947B347F0
:103E4000F7022324F4FE832784FEE1F7A1A0834731
:103E500074FEFD178A07130704FFBA9783A7C7FCF0
:103E600013D7F741B98F998F93F7F70F938707030C
:103E700093F6F70F8327C4FA138717002326E4FA73
:103E80001397860161872380E700834774FEFD173F
:103E9000A303F4FE834774FEDDFB76442561828034
:103EA000011122CE00102326A4FE8327C4FEFD8B21
:103EB0000547B316F70037E700E08327C4FE958374
:103EC000938707048A07BA9794C301007244056177
:103ED0008280011122CE00102326A4FE8327C4FE77
:103EE000FD8B0547B316F70037E700E08327C4FED4
:103EF0009583938707068A07BA9794C30100724493
:103F000005618280011122CE00102326A4FEAE8717
:103F1000A305F4FE37E700E08327C4FEBA97034702
:103F2000B4FE2380E74001007244056182800111E4
:103F300006CE22CC00102326A4FE0325C4FEEFF0FB
:103F40003FF60100F240624405618280011106CE15
:103F500022CC00102326A4FE0325C4FEEFF07FF739
:103F60000100F240624405618280011106CE22CC3C
:103F700000102326A4FEAE87A305F4FE8347B4FEFB
:103F8000BE850325C4FEEFF0FFF70100F240624456
:103F900005618280411122C60008010032444101BE
:103FA0008280411106C622C4000883A7418799C7B1
:103FB00083A741871387F7FF23AAE18683A7418759
:103FC00099E3EFC04FA40100B24022444101828036
:103FD000411106C622C4000883A7418799E3EFC0B8
:103FE0002FA283A741871387170023AAE186010028
:103FF000B2402244410182801D71A2CE82E686E455
:104000008AE28EE012FE16FC1AFA1EF82AF62EF448
:1040100032F236F03AEE3EEC42EA46E872E676E4F8
:104020007AE27EE0801093055052B7470140138535
:104030000780EF30A005AA8789CB93055052B74778
:10404000014013850780EF3080140100764436600C
:10405000A660166186617272E2725273C273327523
:10406000A275127682767267E2675268C268326E13
:10407000A26E126F826F2561730020301D71A2CE77
:1040800082E686E48AE28EE012FE16FC1AFA1EF838
:104090002AF62EF432F236F03AEE3EEC42EA46E8E8
:1040A00072E676E47AE27EE0801093055052B757CC
:1040B000004013850780EF20707DAA8789CB930588
:1040C0005052B757004013850780EF30400C010075
:1040D00076443660A660166186617272E27252732F
:1040E000C2733275A275127682767267E267526881
:1040F000C268326EA26E126F826F2561730020302B
:104100001D71A2CE82E686E48AE28EE012FE16FCE3
:104110001AFA1EF82AF62EF432F236F03AEE3EEC97
:1041200042EA46E872E676E47AE27EE080109305A1
:104130005052B7570040138507C0EF203075AA874B
:1041400089CB93055052B7570040138507C0EF3015
:104150000004010076443660A660166186617272C2
:10416000E2725273C2733275A275127682767267EA
:10417000E2675268C268326EA26E126F826F25616A
:10418000730020301D71A2CE82E686E48AE28EE0C2
:1041900012FE16FC1AFA1EF82AF62EF432F236F047
:1041A0003AEE3EEC42EA46E872E676E47AE27EE0F7
:1041B00080109305505237550040EF20306DAA878C
:1041C00089CBEFE0CFB69305505237550040EF2032
:1041D000107C010076443660A660166186617272BA
:1041E000E2725273C2733275A2751276827672676A
:1041F000E2675268C268326EA26E126F826F2561EA
:10420000730020301D71A2CE82E686E48AE28EE041
:1042100012FE16FC1AFA1EF82AF62EF432F236F0C6
:104220003AEE3EEC42EA46E872E676E47AE27EE076
:10423000801093055052B727004013850780EF2068
:10424000F064AA8789CB93055052B72700401385A5
:104250000780EF20D073010076443660A6601661B7
:1042600086617272E2725273C2733275A2751276EF
:1042700082767267E2675268C268326EA26E126F0F
:10428000826F2561730020301D71A2CE82E686E424
:104290008AE28EE012FE16FC1AFA1EF82AF62EF4B6
:1042A00032F236F03AEE3EEC42EA46E872E676E466
:1042B0007AE27EE0801093055052B72700401385C4
:1042C00007C0EF20B05CAA878DC703A7818685470A
:1042D0006309F70003A7818689476314F700EFE0BD
:1042E0008FA293055052B7270040138507C0EF20D7
:1042F000106A010076443660A660166186617272AB
:10430000E2725273C2733275A27512768276726748
:10431000E2675268C268326EA26E126F826F2561C8
:10432000730020301D71A2CE82E686E48AE28EE020
:1043300012FE16FC1AFA1EF82AF62EF432F236F0A5
:104340003AEE3EEC42EA46E872E676E47AE27EE055
:1043500080109305505237250040EF203053AA8734
:1043600099C79305505237250040EF205062010055
:1043700076443660A660166186617272E27252738C
:10438000C2733275A275127682767267E2675268DE
:10439000C268326EA26E126F826F25617300203088
:1043A0001D71A2CE82E686E48AE28EE012FE16FC41
:1043B0001AFA1EF82AF62EF432F236F03AEE3EECF5
:1043C00042EA46E872E676E47AE27EE08010B707D9
:1043D000055083C7070193F7F70F918B85C3EFE073
:1043E000AF98B707055083C7070113F7F70FB70753
:1043F00005506D9B1377F70F2388E7000100764483
:104400003660A660166186617272E2725273C27380
:104410003275A275127682767267E2675268C26858
:10442000326EA26E126F826F2561730020301D7193
:10443000A2CE82E686E48AE28EE012FE16FC1AFA2A
:104440001EF82AF62EF432F236F03AEE3EEC42EA4C
:1044500046E872E676E47AE27EE080100545EF10E9
:10446000001F2A8785476315F7000545EF10802355
:10447000010076443660A660166186617272E2724F
:104480005273C2733275A275127682767267E267D2
:104490005268C268326EA26E126F826F256173001D
:1044A00020301D71A2CE82E686E48AE28EE012FE02
:1044B00016FC1AFA1EF82AF62EF432F236F03AEE0C
:1044C0003EEC42EA46E872E676E47AE27EE080106C
:1044D0000945EF10C0172A8785476315F70009457E
:1044E000EF10401C010076443660A66016618661BC
:1044F0007272E2725273C2733275A275127682764C
:104500007267E2675268C268326EA26E126F826F83
:104510002561730020301D71A2CE82E686E48AE216
:104520008EE012FE16FC1AFA1EF82AF62EF432F26B
:1045300036F03AEE3EEC42EA46E872E676E47AE29B
:104540007EE080101145EF1080102A8785476315A3
:10455000F7001145EF100015010076443660A660A3
:10456000166186617272E2725273C2733275A275FD
:10457000127682767267E2675268C268326EA26E05
:10458000126F826F2561730020301D71A2CE82E60A
:1045900086E48AE28EE012FE16FC1AFA1EF82AF66B
:1045A0002EF432F236F03AEE3EEC42EA46E872E69B
:1045B00076E47AE27EE080102145EF1040092A87F8
:1045C00085476315F7002145EF10C00D01007644C3
:1045D0003660A660166186617272E2725273C273AF
:1045E0003275A275127682767267E2675268C26887
:1045F000326EA26E126F826F2561730020301D71C2
:10460000A2CE82E686E48AE28EE012FE16FC1AFA58
:104610001EF82AF62EF432F236F03AEE3EEC42EA7A
:1046200046E872E676E47AE27EE080104145EF10DB
:1046300000022A8785476315F7004145EF10800681
:10464000010076443660A660166186617272E2727D
:104650005273C2733275A275127682767267E26700
:104660005268C268326EA26E126F826F256173004B
:1046700020301D71A2CE82E686E48AE28EE012FE30
:1046800016FC1AFA1EF82AF62EF432F236F03AEE3A
:104690003EEC42EA46E872E676E47AE27EE080109A
:1046A00013050002EF00B07A2A8785476316F700EA
:1046B00013050002EF00107F13050004EF003079AE
:1046C0002A8785476316F70013050004EF00907DE5
:1046D00013050008EF00B0772A8785476316F700B7
:1046E00013050008EF00107C13050010EF00307672
:1046F0002A8785476316F70013050010EF00907AAC
:1047000013050020EF00B0742A8785476316F70071
:1047100013050020EF001079010076443660A66092
:10472000166186617272E2725273C2733275A2753B
:10473000127682767267E2675268C268326EA26E43
:10474000126F826F2561730020301D71A2CE82E648
:1047500086E48AE28EE012FE16FC1AFA1EF82AF6A9
:104760002EF432F236F03AEE3EEC42EA46E872E6D9
:1047700076E47AE27EE0801013050040EF00306DB1
:104780002A8785476316F70013050040EF009071F4
:10479000856713850780EF00906B2A87854763172D
:1047A000F700856713850780EF00D06F0565EF0080
:1047B000106A2A8785476318F700054723A4E18A12
:1047C0000565EF00306E0965EF0070682A87854740
:1047D0006318F7000D4723A4E18A0965EF00906C88
:1047E0001165EF00D0662A8785476318F7000947EF
:1047F00023A4E18A1165EF00F06A2165EF003065BE
:104800002A8785476315F7002165EF00B06901002D
:1048100076443660A660166186617272E2725273E7
:10482000C2733275A275127682767267E267526839
:10483000C268326EA26E126F826F256173002030E3
:104840001D71A2CE82E686E48AE28EE012FE16FC9C
:104850001AFA1EF82AF62EF432F236F03AEE3EEC50
:1048600042EA46E872E676E47AE27EE08010854528
:10487000B7370140138507C0EF204038AA8791CB96
:104880008545B7370140138507C0EF20203EEF4034
:104890007007010076443660A66016618661727208
:1048A000E2725273C2733275A275127682767267A3
:1048B000E2675268C268326EA26E126F826F256123
:1048C000730020301D71A2CE82E686E48AE28EE07B
:1048D00012FE16FC1AFA1EF82AF62EF432F236F000
:1048E0003AEE3EEC42EA46E872E676E47AE27EE0B0
:1048F0008010854537050040EF204030AA8791C7DA
:10490000854537050040EF2060360100764436606B
:10491000A660166186617272E2725273C27332755A
:10492000A275127682767267E2675268C268326E4A
:10493000A26E126F826F2561730020301D71A2CEAE
:1049400082E686E48AE28EE012FE16FC1AFA1EF86F
:104950002AF62EF432F236F03AEE3EEC42EA46E81F
:1049600072E676E47AE27EE080108545B707004083
:1049700013850740EF208028AA8781CB8545B7079C
:10498000004013850740EF20602E0100764436601A
:10499000A660166186617272E2725273C2733275DA
:1049A000A275127682767267E2675268C268326ECA
:1049B000A26E126F826F2561730020301D71A2CE2E
:1049C00082E686E48AE28EE012FE16FC1AFA1EF8EF
:1049D0002AF62EF432F236F03AEE3EEC42EA46E89F
:1049E00072E676E47AE27EE080108545B7170040F3
:1049F00013850780EF208020AA8781CB8545B717D4
:104A0000004013850780EF20602601007644366061
:104A1000A660166186617272E2725273C273327559
:104A2000A275127682767267E2675268C268326E49
:104A3000A26E126F826F2561730020301D71A2CEAD
:104A400082E686E48AE28EE012FE16FC1AFA1EF86E
:104A50002AF62EF432F236F03AEE3EEC42EA46E81E
:104A600072E676E47AE27EE080108545B717004072
:104A7000138507C0EF208018AA8781CB8545B7171B
:104A80000040138507C0EF20601E010076443660A9
:104A9000A660166186617272E2725273C2733275D9
:104AA000A275127682767267E2675268C268326EC9
:104AB000A26E126F826F2561730020301D71A2CE2D
:104AC00082E686E48AE28EE012FE16FC1AFA1EF8EE
:104AD0002AF62EF432F236F03AEE3EEC42EA46E89E
:104AE00072E676E47AE27EE0801085453715004074
:104AF000EF20C010AA8791C7854537150040EF20E9
:104B0000E016010076443660A66016618661727216
:104B1000E2725273C2733275A27512768276726730
:104B2000E2675268C268326EA26E126F826F2561B0
:104B3000730020301D71A2CE82E686E48AE28EE008
:104B400012FE16FC1AFA1EF82AF62EF432F236F08D
:104B50003AEE3EEC42EA46E872E676E47AE27EE03D
:104B600080108545B717004013850740EF200009E6
:104B7000AA8781CB8545B717004013850740EF20F2
:104B8000E00E010076443660A6601661866172729E
:104B9000E2725273C2733275A275127682767267B0
:104BA000E2675268C268326EA26E126F826F256130
:104BB000730020301D71A2CE82E686E48AE28EE088
:104BC00012FE16FC1AFA1EF82AF62EF432F236F00D
:104BD0003AEE3EEC42EA46E872E676E47AE27EE0BD
:104BE00080108545B737014013850740EF2000014D
:104BF000AA8781CB8545B737014013850740EF2051
:104C0000E006010076443660A66016618661727225
:104C1000E2725273C2733275A2751276827672672F
:104C2000E2675268C268326EA26E126F826F2561AF
:104C3000730020301D71A2CE82E686E48AE28EE007
:104C400012FE16FC1AFA1EF82AF62EF432F236F08C
:104C50003AEE3EEC42EA46E872E676E47AE27EE03C
:104C600080108545B7570140138507C0EF101079B4
:104C7000AA8781CB8545B7570140138507C0EF1040
:104C8000F07E010076443660A6601661866172721D
:104C9000E2725273C2733275A275127682767267AF
:104CA000E2675268C268326EA26E126F826F25612F
:104CB000730020301D71A2CE82E686E48AE28EE087
:104CC00012FE16FC1AFA1EF82AF62EF432F236F00C
:104CD0003AEE3EEC42EA46E872E676E47AE27EE0BC
:104CE0008010854537550140EF105071AA8791C754
:104CF000854537550140EF107077010076443660E6
:104D0000A660166186617272E2725273C273327566
:104D1000A275127682767267E2675268C268326E56
:104D2000A26E126F826F256173002030411122C67E
:104D3000000801003244410173002030411122C6B5
:104D4000000801A0411106C622C44AC24EC0000894
:104D5000EFF00FA8B747950813850740EFE0CFC3E2
:104D6000EFE05FCCEFE06F88EF40E04CEF30A06009
:104D7000EF40A040EF40401003A7C1869307803E5C
:104D80003357F702BA878A07BA97BE850145EFB055
:104D90005FF8EF30A053EF308068EF30A05AEF306B
:104DA000A024EFF00FA0FD45B70700201385470AA8
:104DB000EF50C03293051003B70700201385070793
:104DC000EF50C031EF30206A83A7418CE5DFEF4020
:104DD000B019AA8791E3FDB7010013052003EF3056
:104DE0000051EF304068EF40904E83A7418C89C757
:104DF000EF401032AA8781E7EF30A024DDB7010031
:104E000013054006EF30A04E03A7C186896793873C
:104E100007F43357F7029307800CB307F7023E8974
:104E200081494A85CE85EFB07F8013054006EF307B
:104E3000004C95BF01A001A001A001A001A001A00C
:104E400001A001A001A001A001A001A001A001A05A
:104E500001A001A001A001A001A001A001A001A04A
:104E600001A001A001A001A001A001A001A001A03A
:104E700001A001A001A001A001A001A001A001A02A
:104E800001A001A001A001A001A001A001A001A01A
:104E900001A001A001A001A001A001A001A001A00A
:104EA00001A001A001A001A001A001A001A001A0FA
:104EB00001A001A001A001A001A001A001A001A0EA
:104EC00001A001A001A001A001A001A001A001A0DA
:104ED00001A001A001A001A001A001A001A001A0CA
:104EE00001A001A001A001A001A001A001A001A0BA
:104EF00001A097C1FF1F9381E1BA17B100201301F0
:104F0000611017F500001305256397B5FF1F938502
:104F1000650F1386818463FAC5008322050023A0F0
:104F2000550011059105E3EAC5FE1385818493853B
:104F3000C1976377B500232005001105E36DB5FE29
:104F4000FD42739002BCFD4273904280B782000024
:104F50009382828873A0023097B2FFFF9382020E81
:104F600093E232007390523037F5FF1F9305003003
:104F70002318B51A372902400325C90005897DF990
:104F800097020000938242DC739012347300203049
:104F9000011106CE22CC00102326A4FE0327C4FE56
:104FA000B727014093870740631DF7008545130528
:104FB0000020EF00B06E814513050020EF00106E59
:104FC0001DA00327C4FEB737014093870780631CE9
:104FD000F700854513050040EF00506C814513052F
:104FE0000040EF00B06B0100F24062440561828036
:104FF000797122D60018232EA4FC232CB4FC23267E
:1050000004FEA30504FE8327C4FDDC432326F4FE2F
:105010000327C4FEB707F1E09387F7EFF98F232644
:10502000F4FE832784FD9843832784FD9C4F5D8F86
:10503000832784FDDC4F5D8F832784FDDC43A2073B
:10504000D98F0327C4FED98F2326F4FE8327C4FDFE
:105050000327C4FED8C38327C4FD9C472326F4FE40
:105060000327C4FEB7F7F1FF9387D77FF98F232675
:10507000F4FE832784FD984B832784FDDC475D8FF6
:10508000832784FD9C478607D98F0327C4FED98FC9
:105090002326F4FE8327C4FD0327C4FE98C7832775
:1050A000C4FDDC572326F4FE0327C4FEB70710FF18
:1050B000FD17F98F2326F4FE832784FD83C747015C
:1050C000FD1713F7F70F8347B4FED98FA305F4FE3E
:1050D0008347B4FED2070327C4FED98F2326F4FEEC
:1050E0008327C4FD0327C4FED8D70100325445618D
:1050F0008280011122CE00102326A4FE2324B4FEB8
:10510000832784FE91CB8327C4FE9C4713E71700B7
:105110008327C4FE98C709A88327C4FE9C4713F7BA
:10512000E7FF8327C4FE98C70100724405618280AF
:10513000011122CE00102326A4FE8327C4FE9C4723
:1051400013E787008327C4FE98C7010072440561F6
:105150008280797122D60018232EA4FC232604FE17
:105160008327C4FD9C47A18B89C785472326F4FE6E
:1051700019A0232604FE8327C4FE3E8532544561D0
:105180008280011122CE00102326A4FE8327C4FEB4
:105190009C4713E747008327C4FE98C70100724469
:1051A00005618280797122D60018232EA4FC232663
:1051B00004FE8327C4FD9C47918B89C7854723261E
:1051C000F4FE19A0232604FE8327C4FE3E85325434
:1051D00045618280011122CE00102326A4FE2324E3
:1051E000B4FE832784FE99CB8327C4FE9847B70774
:1051F00050005D8F8327C4FE98C719A88327C4FE7B
:105200009847B707B0FFFD177D8F8327C4FE98C767
:105210000100724405618280797122D60018232E24
:10522000A4FCAE873687A30DF4FCB287230DF4FCF3
:10523000BA87A30CF4FC232604FE232404FE0347B0
:10524000B4FDA54763F6E7068327C4FDDC472326A4
:10525000F4FE8347B4FD138767FFBA878607BA97C2
:105260001D47B317F7002324F4FE832784FE93C75A
:10527000F7FF0327C4FEF98F2326F4FE834694FD2F
:105280008347B4FD138767FFBA878607BA97B3973A
:10529000F6002324F4FE0327C4FE832784FED98F5F
:1052A0002326F4FE8327C4FD0327C4FED8C785A0A8
:1052B0008327C4FD9C4B2326F4FE0347B4FDBA8725
:1052C0008607BA971D47B317F7002324F4FE8327F8
:1052D00084FE93C7F7FF0327C4FEF98F2326F4FE4D
:1052E000834694FD0347B4FDBA878607BA97B39700
:1052F000F6002324F4FE0327C4FE832784FED98FFF
:105300002326F4FE8327C4FD0327C4FE98CB03475E
:10531000A4FD994763E6E7068327C4FDDC5B2326EB
:10532000F4FE8347A4FD1387F7FFBA878A07BA976D
:105330007D47B317F7002324F4FE832784FE93C729
:10534000F7FF0327C4FEF98F2326F4FE8346B4FD3E
:105350008347A4FD1387F7FFBA878A07BA97B397E5
:10536000F6002324F4FE0327C4FE832784FED98F8E
:105370002326F4FE8327C4FD0327C4FED8DBE9A857
:105380000347A4FDB14763E6E7068327C4FD9C5BA2
:105390002326F4FE8347A4FD138797FFBA878A0765
:1053A000BA977D47B317F7002324F4FE832784FEC2
:1053B00093C7F7FF0327C4FEF98F2326F4FE834625
:1053C000B4FD8347A4FD138797FFBA878A07BA976E
:1053D000B397F6002324F4FE0327C4FE832784FE3C
:1053E000D98F2326F4FE8327C4FD0327C4FE98DB50
:1053F000A5A08327C4FDDC572326F4FE8347A4FD24
:10540000138737FFBA878A07BA977D47B317F70024
:105410002324F4FE832784FE93C7F7FF0327C4FEEB
:10542000F98F2326F4FE8346B4FD8347A4FD13873A
:1054300037FFBA878A07BA97B397F6002324F4FE9A
:105440000327C4FE832784FED98F2326F4FE8327F7
:10545000C4FD0327C4FED8D70100325445618280C1
:10546000797122D60018232EA4FCAE87A30DF4FC7C
:10547000232604FE8327C4FD98438347B4FDF98F98
:1054800089C785472326F4FE19A0232604FE832717
:10549000C4FE3E85325445618280011122CE001047
:1054A0002326A4FE2324B4FE832784FE99CB8327DE
:1054B000C4FED843B70700045D8F8327C4FED8C35A
:1054C00019A88327C4FED843B70700FCFD177D8FBA
:1054D0008327C4FED8C301007244056182807971BC
:1054E00022D60018232EA4FC232604FEB707014071
:1054F000938707402326F4FE8327C4FDDC4763809F
:105500000712B70701409387074094438327C4FDE0
:105510009C4313C7F7FFB707014093870740758F78
:1055200098C3B707014093870740D4438327C4FD3E
:105530009C4313C7F7FFB707014093870740758F58
:10554000D8C38327C4FDDC430327C4FEBA972326B0
:10555000F4FE8327C4FE94438327C4FD9843832726
:10556000C4FE558F98C3B7070140938707409447FF
:105570008327C4FD9C4313C7F7FFB70701409387F8
:105580000740758F98C7B707014093870740D447F6
:105590008327C4FD9C4313C7F7FFB70701409387D8
:1055A0000740758FD8C78327C4FD9847C147631F3D
:1055B000F702B70701409387074094478327C4FD4C
:1055C0009843B707014093870740558F98C7B7079F
:1055D000014093870740D4478327C4FD9843B7070A
:1055E000014093870740558FD8C7B1A8B70701403E
:1055F000938707402326F4FE8327C4FD9C47032797
:10560000C4FEBA972326F4FE8327C4FE944383275F
:10561000C4FD98438327C4FE558F98C32DA08327CC
:10562000C4FDDC430327C4FEBA972326F4FE832778
:10563000C4FE94438327C4FD9C4313C7F7FF83270D
:10564000C4FE758F98C30100325445618280797120
:1056500022D60018232EA4FC232604FE232404FEB5
:10566000B7070140938707409C430327C4FDF98F88
:105670002324F4FEB707014093870740D84B8327C4
:10568000C4FDF98F81CB832784FE89C785472326F4
:10569000F4FE19A0232604FE8327C4FE3E8532545F
:1056A00045618280011122CE00102326A4FEB70797
:1056B0000140938707400327C4FED8CB0100724402
:1056C00005618280397122DE80002326A4FC232418
:1056D000B4FC232604FE232004FE232404FE232EF0
:1056E00004FC232204FE232C04FC832784FC9C4717
:1056F000BD8B2326F4FE832784FC9C47C18B89CB7A
:10570000832784FCDC430327C4FED98F2326F4FEC1
:10571000832784FC83D7070093F7F70FF1CF832704
:10572000C4FC9C432322F4FE232404FE65A88327A3
:1057300084FE0547B317F700232EF4FC832784FC6F
:1057400083D707003E878327C4FDF98F2320F4FE0B
:10575000032704FE8327C4FD6311F708832784FE13
:105760008A07232EF4FC8327C4FD3D47B317F700B7
:10577000232CF4FC832784FD93C7F7FF032744FE03
:10578000F98F2322F4FE8327C4FD0327C4FEB31739
:10579000F700032744FED98F2322F4FE832784FCDD
:1057A000984793078002631BF700832784FE054711
:1057B0003317F7008327C4FCD8CB05A0832784FCCC
:1057C000984793078004631AF700832784FE0547F0
:1057D0003317F7008327C4FC98CB832784FE850703
:1057E0002324F4FE032784FE9D47E3F2E7F4832796
:1057F000C4FC032744FE98C3832784FC03D7070017
:105800009307F00F63F1E70E8327C4FCDC432322E8
:10581000F4FE232404FE75A8832784FEA107054710
:10582000B317F700232EF4FC832784FC83D70700EB
:105830003E878327C4FDF98F2320F4FE032704FE4F
:105840008327C4FD6312F708832784FE8A07232E6B
:10585000F4FC8327C4FD3D47B317F700232CF4FC69
:10586000832784FD93C7F7FF032744FEF98F232284
:10587000F4FE8327C4FD0327C4FEB317F7000327F4
:1058800044FED98F2322F4FE832784FC9847930794
:105890008002631BF700832784FEA10705473317A7
:1058A000F7008327C4FCD8CB832784FC9847930751
:1058B0008004631BF700832784FEA1070547331785
:1058C000F7008327C4FC98CB832784FE8507232415
:1058D000F4FE032784FE9D47E3F0E7F48327C4FC2E
:1058E000032744FED8C30100725421618280011154
:1058F00022CE00102326A4FEAE872322C4FE231549
:10590000F4FE832744FE99C70357A4FE8327C4FEF1
:1059100098CB31A00357A4FE8327C4FED8CB010047
:10592000724405618280797122D60018232EA4FC6E
:10593000232CB4FC232404FE232204FE232604FE8D
:10594000232004FE8327C4FD63D80700B707014066
:10595000DC4F2326F4FE31A0B7070140DC432326A9
:10596000F4FE8327C4FDC183BD8B2320F4FE0327EF
:10597000C4FDC167FD17F98F2324F4FE0327C4FD7E
:10598000B70730007D8FB70730006315F702032794
:10599000C4FEB70700F1FD17F98F2326F4FEB70701
:1059A0000140D443B7070140370700F17D17758FD9
:1059B000D8C3ADA00327C4FDB7071000F98F8DCB66
:1059C000832704FE0D47B317F7002322F4FE832735
:1059D00044FE93C7F7FF0327C4FEF98F2326F4FE86
:1059E0000327C4FEB707000FD98F2326F4FE3DA07E
:1059F0008327C4FDD5839207032784FEB317F700DE
:105A000093C7F7FF0327C4FEF98F2326F4FE03276D
:105A1000C4FEB707000FD98F2326F4FE832784FD29
:105A200091CF8327C4FDD5839207032784FEB31744
:105A3000F7000327C4FED98F2326F4FE8327C4FD75
:105A400063D80700B70701400327C4FED8CF31A0B1
:105A5000B70701400327C4FED8C301003254456193
:105A60008280797122D60018AA872E87A30FF4FCB2
:105A7000BA87230FF4FC232604FE8347E4FD8D8BB5
:105A80008A073D47B317F7002326F4FE3707014086
:105A90008347E4FD898393F7F70F8A07BA979847FE
:105AA0008327C4FE93C7F7FFB70601400346E4FD12
:105AB00009821376F60F7D8F93172600B69798C745
:105AC000370701408347E4FD898393F7F70F8A077F
:105AD000BA9798478346F4FD8347E4FD8D8B8A0788
