:100000006F000062130000001300000013000000E6
:100010001300000013000000130000001300000094
:100020001300000013000000130000001300000084
:08003000130000007300100032
:100038006FF09FFC000000006F0080576F00405871
:1000480000000000000000000000000000000000A8
:100058000000000000000000000000000000000098
:100068006FF09FF9000000006FF01FF9000000001A
:100078006FF09FF86FF05FF86FF01FF86FF0DFF721
:100088006FF09FF76FF05FF76F0080156F004016F5
:100098006F00A01A6F00C01B6F00801C6FF0DFF5A7
:1000A8006FF09FF56FF05FF56F00204C6FF0DFF495
:1000B8006FF09FF46FF05FF46F00402900000000BC
:1000C8000000000000000000000000006F00401A5F
:1000D8006F00C0286F00C02B6F00802E6F00C033E8
:1000E8006F00803C6F00C03E6F30E00B6FF0DFF0B8
:1000F8006FF09FF06FF05FF06FF01FF06FF0DFEFC1
:100108006FF09FEF6FF05FEF6F00803F6F00E0448C
:100118006F00C0226FF05FEE6FF01FEE6FF0DFED43
:1001280000000000000000000000000000000000C7
:080138000000000000000000BF
:100140003D432A876373C3029377F700BDEFADE5A4
:10015000937606FF3D8ABA960CC34CC30CC74CC7B6
:100160004107E36BD7FE11E28280B306C3408A06E3
:100170009702000096966780A6002307B700A306A3
:10018000B7002306B700A305B7002305B700A304F3
:10019000B7002304B700A303B7002303B700A302EB
:1001A000B7002302B700A301B7002301B700A300E3
:1001B000B7002300B700828093F5F50F9396850072
:1001C000D58D93960501D58D61B79396270097023B
:1001D000000096968682E78086FA9680C1171D8F6A
:1001E0003E96E374C3F8A5B7411122C6000801008A
:1001F0003244410173002030411122C600080945F4
:10020000EF00502F2A8785476318F702B7070020B1
:1002100003A7470789476315F700EF10F04011A8BF
:10022000B707002003A7470785476314F700EF10BF
:1002300070320945EF007031010032444101730012
:100240002030411122C600081145EF001030010096
:100250003244410173002030411122C600080100E0
:100260003244410173002030411122C600080100D0
:100270003244410173002030011122CE00101305D9
:100280000008EF0030272A8785476319F708130510
:100290007004EF20C005AA87A307F4FE13058004AD
:1002A000EF20E004AA872307F4FE8347F4FE85E3EA
:1002B00083C70181E207E18799EB8347E4FE89C7A1
:1002C00005472388E18021A07D572388E18083476B
:1002D000F4FEA1C383C70181139787016187854716
:1002E0006319F7008347E4FE89E7094723A8E18201
:1002F00039A883C70181139787016187FD57631868
:10030000F7008347E4FE81C7054723A8E1822388DD
:10031000018013050008EF00502305A013050020FD
:10032000EF00501D2A8785476319F7000D4723A862
:10033000E18213050020EF005021010072440561A5
:1003400073002030411122C60008010032444101EF
:1003500073002030411122C60008010032444101DF
:1003600073002030411122C6000893050008B737FA
:100370000140138507C0EF10A047AA8789CB9305DA
:100380000008B7370140138507C0EF10604D01002A
:100390003244410173002030411122C600088545D6
:1003A000B7370140138507C0EF108044AA8781CB7F
:1003B0008545B7370140138507C0EF10604A01003B
:1003C0003244410173002030411122C600089305D8
:1003D0000004B7370140138507C0EF106041AA87BA
:1003E00089CB93050004B7370140138507C0EF1090
:1003F000204793050002B7370140138507C0EF106F
:10040000203FAA8789CB93050002B73701401385A7
:1004100007C0EF10E0440100324441017300203076
:10042000411122C600088945B7370140138507C02E
:10043000EF10003CAA8781CB8945B737014013856F
:1004400007C0EF10E0419145B7370140138507C061
:10045000EF10003AAA8781CB9145B7370140138549
:1004600007C0EF10E03FA145B7370140138507C033
:10047000EF100038AA8781CBA145B737014013851B
:1004800007C0EF10E03DC145B7370140138507C0F5
:10049000EF100036AA8781CBC145B73701401385DD
:1004A00007C0EF10E03B01003244410173002030EF
:1004B000411122C60008854537050040EF10403342
:1004C000AA8791C7854537050040EF1060390100C4
:1004D0003244410173002030411122C60008854595
:1004E000B707004013850740EF108030AA8781CB03
:1004F0008545B707004013850740EF1060360100BF
:100500003244410173002030411122C60008930596
:100510005052B747004013850740EF10A067AA87E5
:1005200085CF93055052B747004013850740EF1021
:100530008076B707002003A7470789476315F700B0
:10054000EF10900711A8B707002003A747078547BA
:100550006314F700EF100079010032444101730089
:100560002030411122C600080100324441017300CD
:100570002030411122C6000809659D2B2A87854736
:100580006317F7020965D923B707002003A74707B8
:1005900089476315F700EF10900C11A8B7070020EA
:1005A00003A7470785476314F700EF10007E01009B
:1005B0003244410173002030411122C6000801007D
:1005C0003244410173002030411122C6000801A0CD
:1005D000411106C622C40008EF10F06CEF20003471
:1005E00085460146F167938507200145EF200019F4
:1005F00093060031054681451305C004EF10F03421
:10060000EF20F006EF20F00095450545EF10F06F64
:10061000EF2060580145EF10D06CEF20605DF5BF12
:100620009701002093810125175100201301819D1E
:100630001755000013050568970500209385859CD4
:100640001386018163FAC5008322050023A05500AB
:1006500011059105E3EAC5FE138501819385418962
:100660006377B500232005001105E36DB5FE930205
:10067000800873A00230970200009382229C93E2CC
:10068000120073905230EF2040499702000093828D
:1006900062F47390123473002030011106CE22CC24
:1006A00000102326A4FE0327C4FEB727014093872A
:1006B0000740631CF700854513050020EF00D0724A
:1006C000814513050020EF0030720100F2406244C2
:1006D00005618280797122D60018232EA4FC232C78
:1006E000B4FC232604FEA30504FE8327C4FDDC43DB
:1006F0002326F4FE0327C4FEB707F1FF9387F7EF25
:10070000F98F2326F4FE832784FD9843832784FDF5
:10071000DC43A207D98F0327C4FED98F2326F4FE1A
:100720008327C4FD0327C4FED8C38327C4FD9C4789
:100730002326F4FE0327C4FEB7F7F1FF9387D77F84
:10074000F98F2326F4FE832784FD984B832784FDAD
:10075000DC475D8F832784FD9C478607D98F03275D
:10076000C4FED98F2326F4FE8327C4FD0327C4FECD
:1007700098C78327C4FDDC572326F4FE0327C4FE55
:10078000B70710FFFD17F98F2326F4FE832784FD9A
:1007900083C74701FD1713F7F70F8347B4FED98FBF
:1007A000A305F4FE8347B4FED2070327C4FED98F06
:1007B0002326F4FE8327C4FD0327C4FED8D70100F7
:1007C000325445618280011122CE00102326A4FEFE
:1007D0002324B4FE832784FE91CB8327C4FE9C4749
:1007E00013E717008327C4FE98C709A88327C4FE10
:1007F0009C4713F7E7FF8327C4FE98C701007244A4
:1008000005618280011122CE00102326A4FE8327D9
:10081000C4FE9C4713E787008327C4FE98C70100E6
:10082000724405618280797122D60018232EA4FCBF
:10083000232604FE8327C4FD9C47A18B89C78547D7
:100840002326F4FE19A0232604FE8327C4FE3E853A
:10085000325445618280011122CE00102326A4FE6D
:100860008327C4FE9C4713E747008327C4FE98C72D
:100870000100724405618280797122D60018232E0E
:10088000A4FC232604FE8327C4FD9C47918B89C7C3
:1008900085472326F4FE19A0232604FE8327C4FEE1
:1008A0003E85325445618280797122D60018232E0C
:1008B000A4FCAE873687A30DF4FCB287230DF4FCAD
:1008C000BA87A30CF4FC232604FE232404FE03476A
:1008D000B4FDA54763F6E7068327C4FDDC4723265E
:1008E000F4FE8347B4FD138767FFBA878607BA977C
:1008F0001D47B317F7002324F4FE832784FE93C714
:10090000F7FF0327C4FEF98F2326F4FE834694FDE8
:100910008347B4FD138767FFBA878607BA97B397F3
:10092000F6002324F4FE0327C4FE832784FED98F18
:100930002326F4FE8327C4FD0327C4FED8C785A061
:100940008327C4FD9C4B2326F4FE0347B4FDBA87DE
:100950008607BA971D47B317F7002324F4FE8327B1
:1009600084FE93C7F7FF0327C4FEF98F2326F4FE06
:10097000834694FD0347B4FDBA878607BA97B397B9
:10098000F6002324F4FE0327C4FE832784FED98FB8
:100990002326F4FE8327C4FD0327C4FE98CB034718
:1009A000A4FD994763E6E7068327C4FDDC5B2326A5
:1009B000F4FE8347A4FD1387F7FFBA878A07BA9727
:1009C0007D47B317F7002324F4FE832784FE93C7E3
:1009D000F7FF0327C4FEF98F2326F4FE8346B4FDF8
:1009E0008347A4FD1387F7FFBA878A07BA97B3979F
:1009F000F6002324F4FE0327C4FE832784FED98F48
:100A00002326F4FE8327C4FD0327C4FED8DBE9A810
:100A10000347A4FDB14763E6E7068327C4FD9C5B5B
:100A20002326F4FE8347A4FD138797FFBA878A071E
:100A3000BA977D47B317F7002324F4FE832784FE7B
:100A400093C7F7FF0327C4FEF98F2326F4FE8346DE
:100A5000B4FD8347A4FD138797FFBA878A07BA9727
:100A6000B397F6002324F4FE0327C4FE832784FEF5
:100A7000D98F2326F4FE8327C4FD0327C4FE98DB09
:100A8000A5A08327C4FDDC572326F4FE8347A4FDDD
:100A9000138737FFBA878A07BA977D47B317F700DE
:100AA0002324F4FE832784FE93C7F7FF0327C4FEA5
:100AB000F98F2326F4FE8346B4FD8347A4FD1387F4
:100AC00037FFBA878A07BA97B397F6002324F4FE54
:100AD0000327C4FE832784FED98F2326F4FE8327B1
:100AE000C4FD0327C4FED8D701003254456182807B
:100AF000797122D60018232EA4FC232604FE232479
:100B000004FE0327C4FDB7070010F98F89CBB70790
:100B10000240938707409C432324F4FE31A0B7078B
:100B200002409C432324F4FE032784FE8327C4FD54
:100B3000F98F89C785472326F4FE19A0232604FED2
:100B40008327C4FE3E85325445618280011122CE46
:100B500000102326A4FE0327C4FEB7070010F98F58
:100B600089CBB7070240938707400327C4FED8C349
:100B700031A0B70702400327C4FED8C30100724466
:100B800005618280797122D60018232EA4FC2326C9
:100B900004FEB7070140938707402326F4FE83270E
:100BA000C4FDDC4763800712B70701409387074005
:100BB00094438327C4FD9C4313C7F7FFB707014045
:100BC00093870740758F98C3B70701409387074005
:100BD000D4438327C4FD9C4313C7F7FFB7070140E5
:100BE00093870740758FD8C38327C4FDDC43032751
:100BF000C4FEBA972326F4FE8327C4FE94438327BA
:100C0000C4FD98438327C4FE558F98C3B70701409E
:100C10009387074094478327C4FD9C4313C7F7FF7E
:100C2000B707014093870740758F98C7B707014002
:100C300093870740D4478327C4FD9C4313C7F7FF1E
:100C4000B707014093870740758FD8C78327C4FD36
:100C50009847C147631FF702B707014093870740D2
:100C600094478327C4FD9843B70701409387074003
:100C7000558F98C7B707014093870740D44783270C
:100C8000C4FD9843B707014093870740558FD8C7E5
:100C9000B1A8B7070140938707402326F4FE8327B6
:100CA000C4FD9C470327C4FEBA972326F4FE83277E
:100CB000C4FE94438327C4FD98438327C4FE558F05
:100CC00098C32DA08327C4FDDC430327C4FEBA9735
:100CD0002326F4FE8327C4FE94438327C4FD9C434C
:100CE00013C7F7FF8327C4FE758F98C301003254E2
:100CF00045618280797122D60018232EA4FC232618
:100D000004FE232404FEB7070140938707409C4359
:100D10000327C4FDF98F2324F4FEB707014093870E
:100D20000740D84B8327C4FDF98F81CB832784FEEE
:100D300089C785472326F4FE19A0232604FE8327AE
:100D4000C4FE3E85325445618280011122CE0010DE
:100D50002326A4FEB7070140938707400327C4FE5C
:100D6000D8CB0100724405618280397122DE800097
:100D70002326A4FC2324B4FC232604FE232004FE03
:100D8000232404FE232E04FC232204FE232C04FC33
:100D9000832784FC9C47BD8B2326F4FE832784FC99
:100DA0009C47C18B89CB832784FCDC430327C4FE8B
:100DB000D98F2326F4FE832784FC83D7070093F77B
:100DC000F70FF1CF8327C4FC9C432322F4FE232496
:100DD00004FE65A8832784FE0547B317F700232E7A
:100DE000F4FC832784FC83D707003E878327C4FD58
:100DF000F98F2320F4FE032704FE8327C4FD63112B
:100E0000F708832784FE8A07232EF4FC8327C4FD7A
:100E10003D47B317F700232CF4FC832784FD93C7C9
:100E2000F7FF032744FEF98F2322F4FE8327C4FD36
:100E30000327C4FEB317F700032744FED98F2322EC
:100E4000F4FE832784FC984793078002631BF70016
:100E5000832784FE05473317F7008327C4FCD8CBCC
:100E600005A0832784FC984793078004631AF70042
:100E7000832784FE05473317F7008327C4FC98CBEC
:100E8000832784FE85072324F4FE032784FE9D47E1
:100E9000E3F2E7F48327C4FC032744FE98C38327C7
:100EA00084FC03D707009307F00F63F1E70E832755
:100EB000C4FCDC432322F4FE232404FE75A883270C
:100EC00084FEA1070547B317F700232EF4FC832700
:100ED00084FC83D707003E878327C4FDF98F232036
:100EE000F4FE032704FE8327C4FD6312F70883275B
:100EF00084FE8A07232EF4FC8327C4FD3D47B317E5
:100F0000F700232CF4FC832784FD93C7F7FF032706
:100F100044FEF98F2322F4FE8327C4FD0327C4FE79
:100F2000B317F700032744FED98F2322F4FE83274B
:100F300084FC984793078002631BF700832784FE95
:100F4000A10705473317F7008327C4FCD8CB8327B5
:100F500084FC984793078004631BF700832784FE73
:100F6000A10705473317F7008327C4FC98CB8327D5
:100F700084FE85072324F4FE032784FE9D47E3F0C7
:100F8000E7F48327C4FC032744FED8C3010072544E
:100F900021618280011122CE00102326A4FEAE879B
:100FA0002322C4FE2315F4FE832744FE99C703576A
:100FB000A4FE8327C4FE98CB31A00357A4FE832749
:100FC000C4FED8CB0100724405618280797122D6BB
:100FD0000018232EA4FC232CB4FC232404FE23227B
:100FE00004FE232604FE232004FE8327C4FD63D8C9
:100FF0000700B7070140DC4F2326F4FE31A0B707F6
:101000000140DC432326F4FE8327C4FDC183BD8B4E
:101010002320F4FE0327C4FDC167FD17F98F2324A5
:10102000F4FE0327C4FDB70730007D8FB7073000FB
:101030006315F7020327C4FEB70700F1FD17F98F08
:101040002326F4FEB7070140D443B7070140370712
:1010500000F17D17758FD8C3ADA00327C4FDB70776
:101060001000F98F8DCB832704FE0D47B317F700CF
:101070002322F4FE832744FE93C7F7FF0327C4FE11
:10108000F98F2326F4FE0327C4FEB707000FD98F7C
:101090002326F4FE3DA08327C4FDD58392070327B2
:1010A00084FEB317F70093C7F7FF0327C4FEF98F39
:1010B0002326F4FE0327C4FEB707000FD98F23268B
:1010C000F4FE832784FD91CF8327C4FDD583920747
:1010D000032784FEB317F7000327C4FED98F232606
:1010E000F4FE8327C4FD63D80700B7070140032738
:1010F000C4FED8CF31A0B70701400327C4FED8C330
:101100000100325445618280797122D60018AA8785
:101110002E87A30FF4FCBA87230FF4FC232604FECA
:101120008347E4FD8D8B8A073D47B317F7002326DD
:10113000F4FE370701408347E4FD898393F7F70FF7
:101140008A07BA9798478327C4FE93C7F7FFB70665
:1011500001400346E4FD09821376F60F7D8F931755
:101160002600B69798C7370701408347E4FD898377
:1011700093F7F70F8A07BA9798478346F4FD83479A
:10118000E4FD8D8B8A07B397F600B706014003464E
:10119000E4FD09821376F60F5D8F93172600B6974C
:1011A00098C70100325445618280011122CE00109F
:1011B0002326A4FE8327C4FEFD8B0547B316F70044
:1011C00037E700E08327C4FE9583938707048A07E7
:1011D000BA9794C30100724405618280011122CE46
:1011E00000102326A4FE8327C4FEFD8B0547B316FB
:1011F000F70037E700E08327C4FE9583938707064F
:101200008A07BA9794C30100724405618280011174
:1012100022CE00102326A4FEAE87A305F4FE37E7F6
:1012200000E08327C4FEBA970347B4FE2380E7405B
:101230000100724405618280011106CE22CC0010AB
:101240002326A4FEB7E700E0BC47898B8DC3832724
:10125000C4FE83C707003E878327C4FE83C72700D9
:10126000920793F7F70FBE853A85553795A0B7E7F4
:1012700000E0BC47898BA9EF8327C4FE03C7170092
:1012800085476318F7028327C4FE83C707003E879C
:101290008327C4FE83C727009207E207E18793E70D
:1012A00007F8E207E18793F7F70FBE853A858537A0
:1012B00005A08327C4FE83C707003E878327C4FE9B
:1012C00083C72700920793F7F70FBE853A858137CA
:1012D0008327C4FEDC4381CB8327C4FE83C707007A
:1012E0003E85E13539A08327C4FE83C707003E85CC
:1012F000F5350100F240624405618280797122D6A1
:101300000018232EA4FC232604FEB7170240DC435A
:101310002326F4FE0327C4FED177FD17F98F232679
:10132000F4FE0327C4FE8327C4FDD98F2326F4FED1
:10133000B71702400327C4FED8C3010032544561E9
:101340008280797122D60018232EA4FC232604FE65
:10135000232404FE232204FE232004FEB7170240A8
:10136000DC43B18B2326F4FE0327C4FE91476302BE
:10137000F7020327C4FEA1476305F7028327C4FED3
:10138000C5E78327C4FD37177A001307072098C3E2
:1013900065A08327C4FD37177A001307072098C379
:1013A00061A8B7170240D843B7073C00F98F232440
:1013B000F4FEB7170240D843C167F98F2322F4FE29
:1013C000832784FEC98389072324F4FE832744FEF0
:1013D00089EF032784FEB7173D00938707903307F3
:1013E000F7028327C4FD98C381A8B7170240D843EA
:1013F000B7070200F98F89CF032784FEB7173D0096
:10140000938707903307F7028327C4FD98C32DA065
:10141000032784FEB7177A00938707203307F70264
:101420008327C4FD98C309A88327C4FD37177A0012
:101430001307072098C30100B7170240DC4393F756
:10144000070F2326F4FE8327C4FE91832326F4FE90
:10145000B7070020138707008327C4FEBA9783C706
:10146000070093F7F70F2320F4FE8327C4FD98436A
:10147000832704FE3357F7008327C4FDD8C3B7176B
:101480000240DC4393F707702326F4FE8327C4FE53
:10149000A1832326F4FEB7070020138707008327C4
:1014A000C4FEBA9783C7070093F7F70F2320F4FE13
:1014B0008327C4FDD843832704FE3357F7008327CF
:1014C000C4FD98C7B7170240D84391679387078038
:1014D000F98F2326F4FE8327C4FEAD832326F4FE72
:1014E000B7070020138707008327C4FEBA9783C776
:1014F000070093F7F70F2320F4FE8327C4FDD8439A
:10150000832704FE3357F7008327C4FDD8C7B717D6
:101510000240D843B167F98F2326F4FE8327C4FE27
:10152000B9832326F4FEB707002013870707832714
:10153000C4FEBA9783C7070093F7F70F2320F4FE82
:101540008327C4FDD847832704FE3357F702832738
:10155000C4FD98CB0100325445618280011122CE36
:1015600000102326A4FE2324B4FE832784FE99CBF7
:10157000B7170240944FB71702400327C4FE558F98
:1015800098CF21A8B7170240944F8327C4FE13C7F2
:10159000F7FFB7170240758F98CF010072440561BD
:1015A0008280011122CE00102326A4FE2324B4FE43
:1015B000832784FE99CBB7170240D44FB717024058
:1015C0000327C4FE558FD8CF21A8B7170240D44FA8
:1015D0008327C4FE13C7F7FFB7170240758FD8CF14
:1015E0000100724405618280011122CE0010232681
:1015F000A4FE2324B4FE832784FE99CBB7170240B0
:10160000D447B71702400327C4FE558FD8C721A877
:10161000B7170240D4478327C4FE13C7F7FFB71795
:101620000240758FD8C701007244056182807971CC
:1016300022D60018232EA4FC232CB4FC231704FE6E
:101640008327C4FD83D707002317F4FE0327C4FDB7
:10165000B7370140938707C06308F7020327C4FD2B
:10166000B70700406302F7020327C4FDB707004035
:1016700093870740630AF7000327C4FDB7170040AC
:10168000938707806311F7028357E4FE93F7F7F817
:101690002317F4FE832784FD03D727008357E4FE36
:1016A000D98F2317F4FE8357E4FE93F7F7CF231760
:1016B000F4FE832784FD03D767008357E4FED98FA8
:1016C0002317F4FE8327C4FD0357E4FE2390E700AD
:1016D000832784FD03D747008327C4FD2396E702B1
:1016E000832784FD03D707008327C4FD2394E702E3
:1016F0000327C4FDB7370140938707C0631DF70078
:10170000832784FD83C787001397070141838327BD
:10171000C4FD2398E7028327C4FD0547239AE70009
:101720000100325445618280011122CE001023262F
:10173000A4FE2324B4FE832784FE8DC38327C4FE26
:1017400083D70700C207C18393E7170013970701E8
:1017500041838327C4FE2390E70039A88327C4FE72
:1017600083D70700C207C183F99B13970701418301
:101770008327C4FE2390E700010072440561828044
:10178000011122CE00102326A4FEAE872322C4FE20
:101790002315F4FE832744FE9DC38327C4FE83D70D
:1017A000C7001397070141838357A4FED98F13976E
:1017B000070141838327C4FE2396E70035A08327D2
:1017C000C4FE83D7C7001397070141838357A4FE44
:1017D00093C7F7FFC207C183F98F139707014183AE
:1017E0008327C4FE2396E7000100724405618280CE
:1017F000797122D60018232EA4FCAE87231DF4FC99
:10180000232604FE231504FE231404FE8327C4FDAF
:1018100083D707011397070141838357A4FDF98FED
:101820002315F4FE8327C4FD83D7C7001397070150
:1018300041838357A4FDF98F2314F4FE8357A4FE3C
:1018400081CB835784FE89C785472326F4FE19A0E0
:10185000232604FE8327C4FE3E85325445618280E0
:10186000011122CE00102326A4FEAE872315F4FE1C
:101870008357A4FE93C7F7FF13970701418383277C
:10188000C4FE2398E70001007244056182805D7107
:1018900086C6A2C48008232EA4FA232CB4FA2326D9
:1018A00004FE232404FE232204FE232004FE232E10
:1018B00004FC8327C4FB232EF4FC8327C4FB83D7BB
:1018C0000701C207C1832326F4FE0327C4FEB567C0
:1018D000FD17F98F2326F4FE832784FB83D7670047
:1018E0003E878327C4FED98F2326F4FE8327C4FEB8
:1018F0001397070141838327C4FB2398E7008327BD
:10190000C4FB83D7C700C207C1832326F4FE032785
:10191000C4FEBD679387379FF98F2326F4FE832784
:1019200084FB03D74700832784FB83D78700D98FA5
:10193000139707014183832784FB83D7A700D98F9F
:10194000C207C1833E878327C4FED98F2326F4FEB6
:101950008327C4FE1397070141838327C4FB239683
:10196000E7008327C4FB83D74701C207C18323262F
:10197000F4FE0327C4FEC1679387F7CFF98F2326B0
:10198000F4FE832784FB83D7C7003E878327C4FEEA
:10199000D98F2326F4FE8327C4FE139707014183C2
:1019A0008327C4FB239AE700930784FC3E85513AC2
:1019B0000327C4FDB7470140938707806317F700EB
:1019C000832744FD2324F4FE29A0832704FD232438
:1019D000F4FE8327C4FB83D7C700C207C183C207B5
:1019E000C18763D20702032784FEBA878607BA97A6
:1019F0008E073E97832784FB9C438607B357F702E5
:101A00002322F4FE05A0032784FEBA878607BA972F
:101A10008E073E97832784FB9C438A07B357F702C0
:101A20002322F4FE032744FE93074006B357F70230
:101A300092072326F4FE8327C4FE13D7470093079B
:101A40004006B307F702032744FEB307F7402320FD
:101A5000F4FE8327C4FB83D7C700C207C183C20734
:101A6000C18763D20702832704FE8E0713872703EB
:101A700093074006B357F7029D8B0327C4FED98F07
:101A80002326F4FE05A0832704FE9207138727036D
:101A900093074006B357F702BD8B0327C4FED98FC7
:101AA0002326F4FE8327C4FE13970701418383276F
:101AB000C4FB2394E7000100B640264461618280A4
:101AC000011122CE00102326A4FE2324B4FE832776
:101AD00084FE95C38327C4FE83D7C70013970701ED
:101AE00041838967D98F1397070141838327C4FEF8
:101AF0002396E70015A08327C4FE83D7C70013975A
:101B000007014183F977FD17F98F13970701418387
:101B10008327C4FE2396E70001007244056182809A
:101B2000011122CE00102326A4FEAE872315F4FE59
:101B30008357A4FE93F7F71F139707014183832769
:101B4000C4FE2392E700010072440561828079712E
:101B500022D60018232EA4FCAE87231DF4FC2326D6
:101B600004FE8327C4FD83D7070013970701418331
:101B70008357A4FDF98FC207C18389C785472326F0
:101B8000F4FE19A0232604FE8327C4FE3E853254AA
:101B900045618280797122D60018232EA4FCAE877D
:101BA000231DF4FC232204FE232604FE232004FE2E
:101BB000232404FE8357A4FD93F7F70F958393F72F
:101BC000F70F2320F4FE8357A4FDFD8B2326F4FE9C
:101BD0008327C4FE0547B317F7002326F4FE032727
:101BE00004FE8547631FF7008327C4FD83D7C70022
:101BF000C207C1833E878327C4FEF98F2326F4FEE4
:101C00003DA8032704FE8947631FF7008327C4FD0F
:101C100083D70701C207C1833E878327C4FEF98F9C
:101C20002326F4FE29A88327C4FD83D74701C207D2
:101C3000C1833E878327C4FEF98F2326F4FE835792
:101C4000A4FDA183C207C1832322F4FE832744FE9F
:101C50000547B317F7002322F4FE8327C4FD83D77B
:101C60000700C207C1833E87832744FEF98F2322E2
:101C7000F4FE8327C4FE81CB832744FE89C78547B2
:101C80002324F4FE19A0232404FE832784FE3E852A
:101C9000325445618280797122D60018232EA4FC2B
:101CA000AE87231DF4FC231704FE231604FE83577E
:101CB000A4FDA1832317F4FE8357E4FE0547B31761
:101CC000F7002316F4FE8357C4FE93C7F7FF13975C
:101CD000070141838327C4FD2390E70001003254AC
:101CE00045618280411122C600089967938747A801
:101CF000DC4383D7470013970701418383C7718172
:101D0000BE861377F70F93874181B6972380E7004C
:101D100083C77181850713F7F70FA38BE18003C792
:101D200071818547631AF70003C741819307500A01
:101D30006304F700A38B018003C771818D4763178C
:101D4000F700A38B01800547238CE180010032441A
:101D500041018280411122C60008B70702409387E3
:101D6000470409671307874BD8C3B7070240938717
:101D700047049843B7070240938747041367170047
:101D800098C30100324441018280411122C60008FB
:101D90000547A38CE180B70702409387470494432B
:101DA000B70702409387470441677917758F98C337
:101DB0000100324441018280411122C60008996726
:101DC000938747A8DC4383D74700139707014183D4
:101DD00083C7F181BE861377F70F9387C181B697CA
:101DE0002380E70083C7F181850713F7F70FA38FDF
:101DF000E18003C7F1818547631AF70003C7C181FA
:101E00009307500A6304F700A38F018003C7F18191
:101E10008D476317F700A38F018005472380E18278
:101E20000100324441018280411122C60008B707F7
:101E3000024093874704056713070796D8C3B7077F
:101E40000240938747049843B707024093874704AB
:101E50001367170098C30100324441018280411189
:101E600022C600080547A380E182B7070240938796
:101E700047049443B70702409387470441677917A3
:101E8000758F98C30100324441018280011106CE52
:101E900022CC00102326A4FE8327C4FE99E78146A6
:101EA0000146814501455524A9AA0327C4FE85475B
:101EB0006318F7008146014681450545792491A2C2
:101EC0000327C4FE89476318F70081460146814510
:101ED0000945A52C3DA20327C4FE8D476318F700D2
:101EE0008146014681450D458D2421AA0327C4FE64
:101EF00091476318F7008146014681451145B12499
:101F000009A20327C4FE95476318F70081460146DE
:101F1000814515451D2CF5A00327C4FE994763187C
:101F2000F70081460146814519450524D9A80327B4
:101F3000C4FE9D476318F7008146014681451D4553
:101F40002924C1A00327C4FEA1476319F7008146D5
:101F50000146814513050002CD2A65A00327C4FE72
:101F6000A5476319F7008146014681451305100214
:101F7000E92A41A80327C4FEA9476319F70081464F
:101F80000146814513050004C922A5A80327C4FE04
:101F9000AD476319F70081460146814513051004DA
:101FA0006D2285A00327C4FEB1476319F70081465F
:101FB0000146814513052004492AA1A00327C4FE38
:101FC000B5476319F7008146014681451305300482
:101FD000AD2A05A80327C4FEB9476319F700814657
:101FE00001468145130540048D2221A80327C4FE24
:101FF000BD476318F700814601468145130550042B
:10200000A9220100F240624405618280397106DE36
:1020100022DC80002326A4FC854513054020EFF038
:10202000EFD30325C4FC9D3503A74182B7C7010543
:10203000938707D063F6E7003165EFF02FAC21A05E
:102040002165EFF0AFABB727014013850740EFE004
:10205000CFE4232C04FC232E04FC232004FEB7072A
:102060000E002322F4FE232404FE85472306F4FEFB
:10207000930784FDBE85B727014013850740EFE035
:102080006FE58545B727014013850740EFE0AFF3C3
:10209000B727014013850740EFE0CFF60100B727CF
:1020A000014013850740EFE00FF8AA87EDFBB72743
:1020B000014013850740EFE00FFA0100B727014008
:1020C00013850740EFE04FFBAA87EDFB0100F250BC
:1020D000625421618280011106CE22CC0010232699
:1020E000A4FE2324B4FE8327C4FE93F7F70F814692
:1020F0000546BE85B727014013850740EFE0CFFABC
:10210000B7270140938707409447B727014093873B
:10211000074037075000558F98C70100B727014087
:10212000938707409C43898BF5DBB7270140938752
:102130000740F847832784FEB357F700C207C183DF
:102140003E85F240624405618280797106D622D4D0
:102150000018232EA4FC232CB4FCB2872328D4FC23
:10216000A30BF4FC8327C4FD958393F7F70F9D8B96
:10217000A307F4FE8327C4FD93F7F70FFD8B230716
:10218000F4FE0327C4FD93070008630DF7148327AB
:10219000C4FD958391E785451145EFF02FBC61A8FB
:1021A0008327C4FD13D7570085476317F70085457C
:1021B0002145EFF0AFBA41A08327C4FD13D75700E4
:1021C00089476317F70085454145EFF02FB9A5A072
:1021D0008327C4FD13D757008D476318F700854543
:1021E00013050002EFF08FB7B9A08327C4FD13D702
:1021F000570091476318F700854513050004EFF079
:10220000EFB515A88327C4FD13D75700954763186A
:10221000F700854513050008EFF04FB429A8832780
:10222000C4FD13D7570099476317F7008545130579
:102230000010EFF0AFB28347E4FE0547B317F70095
:10224000C207C1832310F4FE032784FD854763176B
:10225000F702832704FDC207C183A183C207C1839C
:1022600089E78D472322F4FE11A8832704FDC207C6
:10227000C183A183C207C1832322F4FE832704FD07
:10228000C207C18393F7F70F2324F4FE0347F4FE3C
:1022900099670A079387C7A4BA979C433E87930719
:1022A00004FEBE853A85EFE05FAC032784FD8547D9
:1022B000631BF7020347F4FE99670A079387C7A4D5
:1022C000BA979C43BE868347E4FE0547B317F700E1
:1022D000C207C183034774FD3A86BE853685EFE0A9
:1022E0007FCB11A00100B2502254456182807971E8
:1022F00022D60018232EA4FC8327C4FD958393F7D0
:10230000F70F9D8BA307F4FE8327C4FD93F7F70F08
:10231000FD8B2307F4FE0347F4FE99670A079387B2
:10232000C7A4BA979C439C470347E4FE854633976E
:10233000E600F98F99C3854711A081473E85325445
:1023400045618280797106D622D40018232EA4FC20
:10235000232CB4FC232AC4FC85450545EFF00FA0CF
:10236000832644FD014681450325C4FDF93B8327AF
:10237000C4FD958313F7F70F8327C4FD93F7F70F79
:10238000FD8B93F7F70FBE853A85EFE0FFD78327E4
:10239000C4FDFD8B0547B317F7002320F4FE23226D
:1023A00004FE832784FD2324F4FE85472326F4FEC0
:1023B000930704FE3E85EFE0EFFC0100B25022548B
:1023C00045618280797106D622D40018232EA4FCA0
:1023D000AE873687A30DF4FCB287230DF4FCBA87D1
:1023E000A30CF4FC8327C4FD93F7F70F2304F4FE3A
:1023F0008347B4FDA304F4FE8347A4FD2305F4FE44
:10240000834794FD2326F4FE930784FE3E85EFE088
:10241000BFE2B7E700E09843FD777D8F83A7818413
:102420005D8F23A4E184B7E700E0D843B70700102D
:10243000FD177D8F93878184DC435D8F9387818433
:10244000D8C39387818403C7870085476313F70048
:1024500031200100B250225445618280411122C6D0
:102460000008B7E700E07D5723A0E718B7E700E0D2
:102470007D5723A2E71801003244410182804111B7
:1024800022C60008B7E700E003A7818423A0E71075
:10249000B7E700E013878184584323A2E7100100C7
:1024A000324441018280011106CE22CC0010938774
:1024B000818405472384E70083A7818481EB938788
:1024C0008184DC4381E7A30704FE21A08547A3079D
:1024D000F4FE69378347F4FE3E85F24062440561AD
:1024E0008280011106CE22CC0010AA87A307F4FE39
:1024F0008347F4FE91E79387818423840700413763
:102500000100F240624405618280797106D622D4CE
:102510000018232EA4FCAE87231DF4FC8327C4FDE2
:1025200081EB8545856713850780EFF02F8335A8FC
:102530000327C4FD85476317F70085450545EFF080
:102540004F8625A00327C4FD89476317F7008545FB
:102550000945EFF00F8511A80327C4FD8D476316C9
:10256000F70085451145EFF0CF838357A4FD91EF28
:1025700099679386479F99671386C7A5930520039C
:1025800099671385879FEF20E02303A74182930774
:10259000007DB357F702C207C183FD17C207C1838D
:1025A0002314F4FE8357A4FD8607C207C183FD17D9
:1025B000C207C1832312F4FE231504FE231304FE75
:1025C000230604FE99670327C4FD0A07938747A7DC
:1025D000BA979C433E87930744FEBE853A85EFF049
:1025E0000F8599670327C4FD0A07938747A7BA9702
:1025F0009C43054685453E85EFF08F9899670327F4
:10260000C4FD0A07938747A7BA979C4385453E8533
:10261000EFF00FA58327C4FD81EB8546094685456C
:10262000130590024533A1A00327C4FD8547631914
:10263000F7008546094685451305C002613305A8A4
:102640000327C4FD89476319F70085460946854578
:102650001305D002853B21A80327C4FD8D476318CD
:10266000F7008546094685451305E002A13B9967B9
:102670000327C4FD0A07938747A7BA979C4385455C
:102680003E85EFF06F8A0100B2502254456182808E
:10269000011106CE22CC00102326A4FE2324B4FE72
:1026A0008327C4FE85E7032784FE85476310F7026E
:1026B00093068031014685452545EFF01FA99146D7
:1026C000014681452945EFF05FA865A00327C4FEB8
:1026D00089476312F7029306803101468545130549
:1026E0006002EFF09FA691460146814513057002F6
:1026F000EFF0BFA5BDA80327C4FEC1476310F702D2
:1027000093068031014685450945EFF01FA49146A7
:10271000014681450D45EFF05FA3A1A80327C4FE44
:10272000930700026312F702930680310146854544
:102730001305A002EFF07FA19146014681451305E4
:10274000B002EFF09FA035A00327C4FE930720023C
:102750006311F70293068031014685451305A004F5
:10276000EFF0BF9E9146014681451305B004EFF09E
:10277000DF9D0100F240624405618280797106D6D6
:1027800022D40018232EA4FC232CB4FC232AC4FC3E
:102790002328D4FC85450545EFE05FDC832504FD57
:1027A000032544FDF535032744FD8947631BF700E6
:1027B000032704FD8D476316F70085451145EFE0BB
:1027C000FF80032744FD93072002631FF7000327C0
:1027D00004FD930730026319F7008545B70714001D
:1027E00013850701EFE08FFE8327C4FD91E7854540
:1027F0001165EFE0BFD635A00327C4FD85476318F8
:10280000F700854537050200EFE0BFD919A8032777
:10281000C4FD89476317F700854537050400EFE0DD
:102820005FD8832784FD2320F4FE231204FE2313A4
:1028300004FE231404FE231604FEB1472315F4FE00
:1028400099670327C4FD0A07938747A8BA979C4353
:102850003E87930704FEBE853A85EFF04F83996764
:102860000327C4FD0A07938747A8BA979C43854569
:102870003E85EFF0EFA40100B25022544561828002
:10288000011122CE00102326A4FEAE87A305F4FE7C
:10289000010099670327C4FE0A07938747A8BA97E0
:1028A0009C4383D70700C207C18393F70708F5D37A
:1028B00099670327C4FE0A07938747A8BA979C43E2
:1028C0003E878347B4FEC207C1832312F70001008D
:1028D000724405618280011106CE22CC00102326AD
:1028E000A4FE2324B4FE2322C4FE29A8832784FE49
:1028F000138717002324E4FE83C70700BE85032542
:10290000C4FEBD3F832744FE1387F7FF2322E4FE66
:10291000F1FF0100F240624405618280411106C668
:1029200022C40008B7170240DC43C98313F7F7003D
:10293000B7177A00938707203307F702B727F40009
:10294000938707403E9723A2E18285460146F167BF
:102950009385072001451D350100B2402244410105
:102960008280797106D622D40018232EA4FC232C51
:10297000B4FC232AC4FC232604FE99A00100996715
:1029800083A747A8930500043E85EFF04F9CAA87D4
:10299000FDD7996783A747A8BE86832784FD138741
:1029A0001700232CE4FC83870700C207C183BE8580
:1029B0003685EFF0EF968327C4FE85072326F4FEC5
:1029C0000327C4FE832744FDE34AF7FA832744FD27
:1029D0003E85B250225445618280011122CE001002
:1029E000232604FE232404FEB71702409443B7179E
:1029F00002404167558F98C3B71702409843B70705
:102A00000200F98F2324F4FE8327C4FE85072326C2
:102A1000F4FE832784FE99E70327C4FE9307005042
:102A2000E31CF7FCB71702409843B7070200F98F81
:102A300089C785472324F4FE19A0232404FE032715
:102A400084FE85476317F70CB72702409843B727E2
:102A500002401367070198C3B72702409843B7277E
:102A60000240719B98C3B72702409843B7270240A2
:102A70001367270098C337170240B717024058431F
:102A8000D8C337170240B71702405843D8C3371787
:102A90000240B71702405843D8C3B7170240D44387
:102AA000B71702403707C1FF7D17758FD8C3B71717
:102AB0000240D443B717024037072500558FD8C3CB
:102AC000B71702409443B717024037070001558FEC
:102AD00098C30100B71702409843B7070002F98F67
:102AE000F5DBB7170240D843B7170240719BD8C334
:102AF000B7170240D843B717024013672700D8C35F
:102B00000100B7170240DC4313F7C700A147E31ADF
:102B1000F7FE0100724405618280411106C622C49D
:102B20000008B71702409843B71702401367170011
:102B300098C3B7170240D443B71702403707FFF8CE
:102B4000758FD8C3B71702409443B71702403707B1
:102B5000F7FE7D17758F98C3B71702409443B717D8
:102B600002403707FCFF7D17758F98C3B7170240E7
:102B7000D443B7170240370781FF7D17758FD8C33D
:102B8000B717024037079F0098C7813D0100B24048
:102B9000224441018280411106C622C40008294511
:102BA000EFF0CFC62D45EFF06FC63145EFF00FC601
:102BB0003545EFF0AFC50545EFF04FC50945EFF0DE
:102BC000EFC42545EFF08FC42145EFF02FC43D45FC
:102BD000EFF0CFC33945EFF06FC31D45EFF00FC3E2
:102BE0001945EFF0AFC20100B2402244410182809A
:102BF000411106C622C4000881452945EFF0AFCD3A
:102C0000AA87C207C1873E85DD20AA873E87239019
:102C1000E18881452D45EFF00FCCAA87C207C18717
:102C20003E85F120AA873E87938701882391E7009C
:102C300081453145EFF02FCAAA87C207C1873E857B
:102C40007D20AA873E87938701882392E7008145EC
:102C50003545EFF04FC8AA87C207C1873E85412896
:102C6000AA873E87938701882393E700814505451E
:102C7000EFF06FC6AA87C207C1873E858D28AA8755
:102C80003E87938701882394E70081450945EFF04B
:102C90008FC4AA87C207C1873E859128AA873E872D
:102CA000938701882395E70081452545EFF0AFC262
:102CB000AA87C207C1873E851D28AA873E879387BA
:102CC00001882396E70081452145EFF0CFC0AA8710
:102CD000C207C1873E852128AA873E87938701883E
:102CE0002397E7000100B2402244410182807971BC
:102CF00006D622D426D20018AA87231FF4FC8317F5
:102D0000E4FD3E85EF10E0762A87996783A587A2C8
:102D10003A85EF10200EAA872324F4FE996783A535
:102D2000C7A2032584FEEF10E00CAA87832584FE4A
:102D30003E85EF10200CAA87832584FE3E85EF1088
:102D4000600BAA87BE84996783A507A3032584FE29
:102D5000EF10400AAA87832584FE3E85EF10800984
:102D6000AA87BE852685EF003041AA87BE84996771
:102D700083A547A3032584FEEF10C007AA87BE855D
:102D80002685EF106030AA873E85EF10E07A9967BC
:102D900003A687A383A6C7A34529AA872E883E85B5
:102DA000C285EF103004AA872326F4FE996783A515
:102DB00007A40325C4FEEF00D072AA876358F00071
:102DC000996783A707A42326F4FE05A0996783A526
:102DD00047A40325C4FEEF003079AA8763D7070014
:102DE000996783A747A42326F4FE996783A587A440
:102DF0000325C4FEEF100000AA873E85EF10406156
:102E0000AA87C207C1873E85B250225492544561B9
:102E10008280411106C622C400089306800405463C
:102E2000814513059004EFF04FB2930680040546E8
:102E3000814513058004EFF04FB113068004C145AE
:102E400013057004EFF00FD013068004A14513059D
:102E50009004EFF02FCF854609468945130570028F
:102E6000EFF04FD60100B24022444101828041116F
:102E700006C622C400089306003101468545014577
:102E8000EFF0AFAC9306100213060002B71707006D
:102E9000938507800945EFF07F8E95450D45EFF04E
:102EA000CFE60100B240224441018280411122C696
:102EB0000008130780FD238AE18493874185130767
:102EC00000FBA380E70083970188A187C207C18721
:102ED00013F7F70F938741852381E70083970188D4
:102EE00013F7F70F93874185A381E7009387418507
:102EF000130710FB2382E70093870188839727003D
:102F0000A187C207C18713F7F70F93874185A38273
:102F1000E700938701888397270013F7F70F9387BC
:102F200041852383E70093874185130720FBA38313
:102F3000E7009387018883974700A187C207C1876D
:102F400013F7F70F938741852384E7009387018860
:102F50008397470013F7F70F93874185A384E70012
:102F600093874185130730FB2385E700938701880A
:102F700083976700A187C207C18713F7F70F93876D
:102F80004185A385E700938701888397670013F73E
:102F9000F70F938741852386E700938741851307C1
:102FA00040FBA386E7009387018883978700A1876A
:102FB000C207C18713F7F70F938741852387E7007F
:102FC000938701888397870013F7F70F93874185CD
:102FD000A387E70093874185130750FB2388E70009
:102FE000938701888397A700A187C207C18713F73A
:102FF000F70F93874185A388E7009387018883971C
:10300000A70013F7F70F938741852389E70093877C
:103010004185130760FBA389E700938701888397A5
:10302000C700A187C207C18713F7F70F93874185B0
:10303000238AE700938701888397C70013F7F70F68
:1030400093874185A38AE70093874185130770FB27
:10305000238BE700938701888397E700A187C20746
:10306000C18713F7F70F93874185A38BE7009387F9
:1030700001888397E70013F7F70F93874185238C27
:10308000E70093874185130780FBA38CE7008397B4
:103090004183A187C207C18713F7F70F9387418543
:1030A000238DE7008397418313F7F70F93874185BB
:1030B000A38DE70093874185130790FB238EE700DC
:1030C0009387418383972700A187C207C18713F79E
:1030D000F70F93874185A38EE700938741838397FA
:1030E000270013F7F70F93874185238FE700938716
:1030F00041851307A0FBA38FE70093874183839744
:103100004700A187C207C18713F7F70F938741854F
:103110002380E702938741838397470013F7F70FD4
:1031200093874185A380E702938741851307B0FB0E
:103130002381E7029387418383976700A187C207B2
:10314000C18713F7F70F93874185A381E702938720
:1031500041838397670013F7F70F93874185238295
:10316000E702938741851307C0FBA382E702938799
:10317000818283972700A187C207C18713F7F70FC2
:10318000938741852383E702938781828397270072
:1031900013F7F70F93874185A383E7029387418550
:1031A00039572384E70201003244410182805D7176
:1031B00086C696C49AC29EC022DE2ADC2EDA32D897
:1031C00036D63AD43ED242D046CE72CC76CA7AC8EF
:1031D0007EC680088545B717004013850780EFE05D
:1031E0002FE1AA878DCF8545B7170040138507804B
:1031F000EFE00FE7996783A7C7A43E8785471CCBFD
:10320000EFF0DFCA13069002938541850945EFF080
:103210008FEC996783A7C7A43E8785475CCB0100E5
:10322000B640A6421643864372546255D255425662
:10323000B256225792570258F248624ED24E424F2F
:10324000B24F6161730020303708100001117D1802
:103250003377B80026CA3378D80093D4450113D306
:103260004601131E37004EC61357D5010E0893575B
:10327000D60193F4F47F1373F37F06CE22CC4AC8B1
:1032800093D9F50193DEF6013367C701131F3500AB
:1032900033E80701931F3600338E64406380D919E9
:1032A0006356C0136304031CB70680009307F07FC6
:1032B0003368D800638FF4369307800363C0C73543
:1032C000FD4763CDC747130500023305C541B3D79A
:1032D000CF01B316A8003399AF00DD8E333920013A
:1032E000B357C80133E926011D8F33092F41B33786
:1032F0002F013306F7409317860063D4072437075E
:1033000080007D173374E600630C042C2285EF10D7
:103310000044130785FF93070002998FB357F90004
:103320003316E400D18F3319E9006341972A33053E
:103330009740130615007D47634DC73813070002F9
:10334000118FB356C9003319E9003397E700558F41
:10335000333920013369270133D6C700814493777D
:10336000790081CF1377F90091476308F7001307BD
:103370004900333927014A963A899317860063D664
:10338000071C138514009307F07FCE856304F52096
:10339000B70780FFFD17F18F9398D70113593900B4
:1033A000A607B3E82801B1831375F57F9396C7008C
:1033B0005205F2406244B182FE05C98ECD8ED244E0
:1033C0004249B2494685B68505618280631E0E0A70
:1033D000138314001373E37F63170322B367E701BA
:1033E000B368F801639D041A638707406386084445
:1033F0003309FF41B307074133362F013386C740F6
:103400009317860063D6074C3389EF41B307E84032
:1034100033B62F013386C740F68991B76350C00F8A
:103420006300030CB70680009307F07F3368D80071
:10343000638AF43A9307800363CBC713FD4763DFC6
:10344000C73513090EFE93070002B3562801630A1D
:10345000FE00130900043309C94133192801B3EFF1
:103460002F013339F0013369D90031A2B367F80174
:10347000638A071C9307FEFF638C07389306F07F6F
:103480006309DE1A3E8E0DBDB3059340639104229D
:10349000B367E701638707329387F5FF63810744CA
:1034A0009306F07F638CD520BE859307800363CCA1
:1034B000B72AFD4763CFB73C930700028D8F3319BE
:1034C000F700B356BF00B317FF003369D900B33715
:1034D000F0003357B7003369F9003308E84041ACD6
:1034E000B367F801638007349307FEFF638A072000
:1034F0009306F07F6308DE2E3E8E2DBF631E0E14F2
:103500009386140093F7E67F63910734B367E7016E
:103510006395042C6380073EB367F801638E073020
:103520003309FF01B3070701333FE9013386E701A0
:103530009317860063D70700B70780FFFD177D8EBE
:10354000854493777900E39F07E09317D60193585A
:103550003900B3E8F800935736001307F07F638D06
:10356000E404B207B18313F5F47FCE8581B53369E6
:10357000F801333920017A99B337E9013386E7003E
:1035800093178600E3DF07FA85049307F07F6396BD
:10359000F418CE851305F07F8147814801BDC1EB4A
:1035A0006384083A931636009317D8018D82B3E8E6
:1035B000D700F68993573800B3E7F800F9DB814567
:1035C0001305F07FB70708008148CDB3370680FFA9
:1035D0007D167D8E93777900998CE39507D8B5B7E2
:1035E0004A85EF10C01613078501FD47E3D5E7D2E2
:1035F000130685FFB317C900014905BB3369F801FC
:1036000033392001DDB13309FF413306074133343B
:103610002F01330486409317840063CD0724B368D9
:103620008900E39308CE8147814981441DBFE39817
:1036300008F80E059317D7010D81B3E8A70093573B
:1036400037009DBF0E059317D7010D81B3E8A70082
:10365000F2849357370011B7330593406382041205
:10366000B70680009307F07F558F630DF32E930705
:10367000800363CBA720FD4763C3A72A93070002FB
:10368000898F3319F700B356AF00B317FF003369C2
:10369000D900B337F0003357A7003369F9003A98DF
:1036A0007E99B337F901338607019A84D1BDB706F5
:1036B00080009307F07F558FE319F3DE93173600F0
:1036C0008D839318D801B3E81701F6899357380012
:1036D000E5B5130715FE9306000233D7E700630A2A
:1036E000D600930600043386C6403396C70033697C
:1036F000C900333920013369E9000146814491B59D
:103700003309FF01B30707013336E9013E969317EA
:1037100086008544E3D707E28944B70780FFFD1799
:10372000F18F135719001379190033692701939802
:10373000F70133E9280113D6170015B113090EFE5E
:1037400093070002B3562801630AFE001309000420
:103750003309C94133192801B3EF2F013339F0017F
:103760003369D90059B63369E70133392001338908
:103770002F41B3B72F013306F8409A84F689A5BECE
:10378000B367E701638207189307F5FF6384071C9B
:103790009306F07F6304D5123E85D1BD93070002E6
:1037A000B387C741B316F8003399FF0033D6CF0172
:1037B000D18E33392001B357C80133E926013E9732
:1037C0005DBB931736008D839318D801B3E81701BA
:1037D000AE8493573800F68949B3EDC33369F801D5
:1037E000E31F09DC0E059317D7010D81B368F500BF
:1037F00093573700D1B36381080E931636009317A1
:10380000D8018D82B3E8D700F6899357380091BB71
:103810003309FF41B3070741333F2F013386E741A7
:103820008544D1BC0E059317D7010D81B368F5000F
:10383000F2849357370015B30E059317D7010D8106
:10384000B3E8A7009357370029BB9307F07FE382C3
:10385000F6D43309FF013336E901B3070701B29704
:103860009398F7011359190033E9280113D617006B
:10387000B684C1B93389EF413307E84033B62F012D
:103880003304C740F68949B43369E701333920016D
:1038900001BD938705FE93060002B357F700638AC4
:1038A000D50093060004B385B6403317B700336FD5
:1038B000EF003339E0013369F90055BD9317360045
:1038C0008D839318D801B3E8170193573800EDB1F1
:1038D000B368C900E39708C68147814959B1338964
:1038E000EF41B307E84033B62F013386C740F6896E
:1038F000854411B4931636009317D8018D82B3E82E
:10390000D70093573800B1B9931636009317D801F2
:103910008D82B3E8D700AA84935738003DB9930746
:1039200005FE93060002B357F700630AD50093061D
:1039300000043385A6403317A700336FEF003339F7
:10394000E0013369F900A9BB81451305F07FB70792
:103950000800A9BC3309FF01B30707013336F90199
:103960003E9675B3931636009317D8018D82B3E84F
:10397000D7009357380089B14111370780007D1770
:1039800013D8750126C2935475013373A70093F4BD
:10399000F40FB376B7004AC01378F80F1359F50146
:1039A00006C622C4FD819A8726854A86131E3300E7
:1039B000939E3600B3880441630AB90E6350100D1C
:1039C000630408149307F00F638BF414B707000423
:1039D000B3EEFE00ED4763C1172993070002B387DA
:1039E0001741B397FE00B3D81E01B337F000B3E719
:1039F000F800B307FE4013975700635E07183704BB
:103A000000047D147D8C2285EF0070546D15B31772
:103A1000A4006348951A058D1304150013070002CE
:103A2000018F3397E7003337E000B3D78700D98F92
:103A3000814413F7770019C713F7F7009146630322
:103A4000D700910713975700635B0714850413078A
:103A5000F00F4A866383E4169A07A58313F5F40FE3
:103A6000B2402244A6079314750113D59700458DE3
:103A70007E0692440249518D410182806399080A71
:103A8000138714001377E70F63170714639004225A
:103A9000630D0E1EE3860EFCB307DE41139757003D
:103AA00063500722B387CE412E8961B7635C100B48
:103AB000630E08089307F00F6383F406B70700044A
:103AC000B3EEFE00ED4763C9171F93070002B387EB
:103AD0001741B397FE00B3D81E01B337F000B3E728
:103AE000F800F297139757006357070A85041307E6
:103AF000F00F6384E40CB706007E13D71700FD16A1
:103B0000858B758FD98F35B7638D0E08FD18B30778
:103B1000DE41E38208EE9307F00FE39DF4EA630DC4
:103B2000030801461305F00FB707400015BF330720
:103B30009840EDE863020E147D1763080718930799
:103B4000F00F6319F80E2E893683D1BF638B0E04F4
:103B5000FD18B307DE01E38708F89307F00FE3933E
:103B6000F4F675BF63950808850413F7E40F631333
:103B7000071263170510630F0E14E3830EEEB307ED
:103B8000DE0113975700814463570700370700FC95
:103B90007D17F98F854413F77700E31F07E813D3E8
:103BA00037009307F00FE38CF4F693179300A58387
:103BB00013F5F40F4A866DB54A861305F00F814759
:103BC00045B5370700FC7D17F98F13F77700898C0F
:103BD000E31407E6E9B73304DE419317540063C3E7
:103BE000070CE31204E201460145814795BD330706
:103BF0009840ADC49307F00FE308F8F4B70700044A
:103C0000336EFE00ED4763CCE70C93070002998FFB
:103C1000B317FE003357EE00B337F000D98FF69795
:103C2000C284C9B59307F00FE30FF8F0B70700049B
:103C3000336EFE00ED4763C3E70893060002998EDA
:103C4000B316DE00B357EE003337D000D98FB387F9
:103C5000FE40C2842E8945B3854761BB630E0E06C4
:103C60007D17B307DE01C284E30E07E69307F00F6A
:103C7000E31AF8F8368365B53683C2842E8915B702
:103C8000E3040EECE38D0EE869BD638D0E022E8613
:103C9000B687F9B39307F00FE381F4F2B307DE01BF
:103CA0008583D5BD3384CE412E89B1BBE31C0EFC88
:103CB000E3890EE62E8949BD854725B5854741BF75
:103CC000E39B07EC0146814761BBB387CE41C284C9
:103CD0002E8915B3B68769B33683C284D9B58547B3
:103CE0003DBF93567501B7078000FD1713D67501C8
:103CF00093F6F60F1308F00FB3F8A7001357F5016A
:103D0000ED8F1376F60FFD8163810603630C0601C8
:103D10008DE211E2B1C3638E08026305B704054565
:103D20001DE78280F5D779558280E39E08FE6309FE
:103D3000D60211E2EDD7E314B7FEE342D6FE63C725
:103D4000C600E3EE17FD0145E3FDF8FC01E77D55F4
:103D50008280F5DD054582800145E39208FC828082
:103D6000F9DBD1B78146E1BF93567501B7078000F3
:103D7000FD1713D6750193F6F60F1308F00FB3F87D
:103D8000A7001357F501ED8F1376F60FFD816387BA
:103D900006036309060185EA11EA89EB0145639B85
:103DA000080082800945F5FFE5DA31A8638C080236
:103DB0006300B704054575D77D5582800945639832
:103DC00008026304D60211E2F5D7E315B7FEE34318
:103DD000D6FE63C7C600E3EF17FD0145E3F3F8FC29
:103DE00019E3D9BFF1D905458280E5D3828082806D
:103DF0008146C5B7797122D4135475014ECE52CC89
:103E00009319950006D626D24AD056CA5AC81374BA
:103E1000F40F93D99900135AF50169C49307F00F71
:103E20006308F40E9397390037070004B3E9E700FD
:103E3000130414F88144014B13D77501939A95002C
:103E40001377F70F93DA9A0013D9F50145CF93074B
:103E5000F00F630CF7028E0A130717F8B707000478
:103E6000B3EAFA003A94014633452A01BD47AA86CF
:103E70009305140063E29710172700001307C7C1CA
:103E80008A04BA949C40BA9782871304F40F63980B
:103E90000A0C93E424000946C1BF01451307F00F43
:103EA000B7074000B2502254A6075E07A5837E05DF
:103EB000D98F92540259F249624AD24A424B5D8DDF
:103EC00045618280CA86D689328B89476301FB0AA5
:103ED0008D47E304FBFC854736856312FB1A0147D7
:103EE0008147C9B7639E090413D77501939A95005A
:103EF0001377F70F91440144054B93DA9A0013D9D5
:103F0000F50131F7639D0A0093E414000546A9BF4B
:103F100063930902A1441304F00F094B31BF568586
:103F2000EF00F0029307B5FF098CB39AFA0013046F
:103F3000A4F8014615BFB1441304F00F0D4BEDBDBD
:103F40004E852EC6EF00B0009307B5FF1304A0F80E
:103F5000B399F900098C8144014BB245F1BD93E45A
:103F600034000D4611B78947D286E313FBF6368538
:103F70001307F00F81473DB741639306F3FF13D654
:103F8000090193D80A01B3F7D900B3FADA003388EC
:103F90005703B389F80213570801B30A5603D69999
:103FA0004E9733061603637357011A96C167FD17C0
:103FB000B376F7003378F800C206C296939966008C
:103FC00093570701B3393001E982B2979A07B3E6F4
:103FD000D900B3E9D7009397490063D9070013D7F5
:103FE000190093F71900B369F7002E841307F4073B
:103FF0006350E00493F7790099C793F7F90091466D
:104000006383D70091099397490063D90700B707E5
:1040100000F8FD17B3F9F900130704089307E00F40
:1040200063CBE70493976900A5831377F70F9DBDD2
:104030008547B386E74011C76D4601478147E34393
:10404000D6E61307E4093397E9003337E000B3D726
:10405000D900D98F13F7770019C713F7F7009146E6
:104060006303D700910713975700634C07009A0723
:10407000A583014705BD1307F00F814725B52E84A1
:10408000B5B70547814739BD3707800041117D1716
:104090009356750113D87501B377A70093F6F60F01
:1040A000935EF5013376B70026C24AC01378F80F45
:1040B00006C622C41303F00F3E8E3689F684139F82
:1040C0003700FD8113153600B3880641630268107E
:1040D00093C51500638CBE106354100D6310081057
:1040E0006304051EFD18B307AF40638608029307FB
:1040F000F00F6388F616ED4763C717291307000210
:10410000330717413317E500B35715013337E00084
:10411000D98FB307FF40139757006351071A37042D
:1041200000047D147D8C22851D256D15B317A40018
:10413000634E251B330525411304150013070002A8
:10414000018F3397E7003337E000B3D78700D98F6B
:10415000014913F7770019C713F7F7009146630376
:10416000D700910713975700635E07149306190051
:104170001307F00F93FE14006386E6169A07A583D3
:1041800093F6F60FA607B240224413D59700DE0639
:104190009397FE01558D924402495D8D41018280C5
:1041A0006392080A138716001377E70F631B07143F
:1041B0006394062263020F2071D5B307AF401397B3
:1041C000570063550722B307E5410149AE8451B753
:1041D000E30005F0638ABE0AE35410FD9307F00F75
:1041E0006381F608B70700045D8D31B7635E10097F
:1041F000630108089307F00F6385F606B70700040C
:104200005D8DED4763C0171F130700023307174189
:104210003317E500B35715013337E000D98FFA970C
:1042200013975700635C070805091307F00F630B2A
:10423000E90AB706007E13D71700FD16858B758F28
:10424000D98F01BF3307D84063950610630D0F1453
:104250007D176303071A9307F00F6314F810AE84F9
:10426000328E630F0E06814E9306F00FB7074000A3
:1042700011BF39C9FD18B307AF00E38308FA9307EC
:10428000F00FE390F6F8F1BF639908081389160060
:104290001377E90F63160712639B061063030F166B
:1042A000E30205EEB307AF001397570001496357C8
:1042B0000700370700FC7D17F98F054913F77700D2
:1042C000E31C07E813DE37009307F00FE30BF9F860
:1042D00093179E00A5839376F90F93FE14005DB5A6
:1042E00093FE14009306F00F814769BD370700FC69
:1042F0007D17F98F13F777003309A940E31E07E410
:10430000D1B73304AF409317540063C3070CE31CC9
:1043100004E0814E81468147B5B53307D840B5C624
:104320009307F00FE30EF8F2B7070004336FFF00B6
:10433000ED4763CDE70C93070002998FB317FF0099
:104340003357EF00B337F0005D8FB307A700428902
:10435000C1BD9307F00FE304F8F0B7070004336F13
:10436000FF00ED4763C2E70893070002998FB31778
:10437000FF003357EF00B337F000D98FB307F54094
:104380004289AE8449BB854769B3630E0F067D172A
:10439000B307AF004289E30507E89307F00FE3197D
:1043A000F8F8328E7DBD328E4289AE8431BFE3098A
:1043B0000FEAE30805EA45BD0DCDAE8EB287D9B34D
:1043C0009307F00FE300F9F2B307AF008583FDB563
:1043D0003304E541AE8481BBE31D0FFCE30505E832
:1043E000AE84BDBD854725BD854749BF0149E397DB
:1043F00007EC814E814779B3B307E5414289AE842A
:1044000019BBB28741B3328E42897DBD054735BFA6
:1044100037068000135775019307F6FF1377F70FE0
:104420009305E007B3F6A7009357F50163FCE50099
:104430009305D00963FAE500370500801345F5FFC1
:104440003E9582800145828093055009D18E63CDCF
:10445000E500130660093307E64033D7E60033056D
:10446000E040F5F33A8582801307A7F63397E6001C
:10447000FDB7411106C622C426C20DCD9357F541A2
:1044800033C4A7001D8CAA842285D1249307E00998
:104490003387A74093076009FD8063CCE702A146FC
:1044A0009377F70F63D5A60061153314A400260493
:1044B000258021A08144814701442604135594009E
:1044C000B2402244DE07FE045D8D458D92444101D9
:1044D00082809307900963DDE7009307B501954655
:1044E000B317F400898E3354D400B337F0005D8CD9
:1044F000954763D6A7009307B5FF3314F400B706BA
:1045000000FCFD16937774003376D40085C393774F
:10451000F4009145638CB70011069317560063D7DA
:1045200007009307F009758E3387A74013146600C0
:1045300025809377F70F51B7135775011377F70F4E
:1045400041119307170022C426C21314950006C612
:1045500093F7E70F25809354F50185C793573400EF
:10456000130707387604B2075207B1831395F40195
:10457000D98FC98FB240228522449244BE85410121
:10458000828005EB39C42285D922A94763C6A704D6
:104590002D47098F930755013357E4003314F40076
:1045A0009317C70013079038098FB1831377F77FEC
:1045B0005DBF01CC13573400B7070800D98FB2078D
:1045C0007604B1831307F07F79BF1307F07F81472B
:1045D00059BF0147814741BF130755FF3317E40017
:1045E00001447DBF93D645019397C50093F6F67FAE
:1045F000B183138616008E071357D5011376E67F15
:10460000FD815D8F9318350035CE138806C893075A
:10461000E00F63DD07018147139597009306F00FC4
:10462000DE062581FE05558D4D8D82806355000B7C
:10463000931765000E07B337F000D98F93D8D801D0
:10464000B3E7170113F777006301071013F7F700BB
:1046500091466303D7009107370700047D8F75C724
:10466000130718001306F00F9376F70FE305C7FA48
:104670009A07A58313959700DE062581FE05558DC3
:104680004D8D8280B367170199EE85CF95479A07C4
:10469000A5831395970093F6F60FDE062581FE0598
:1046A000558D4D8D8280A5DBB7074000139597008F
:1046B0009306F00FDE0681452581FE05558D4D8D53
:1046C00082808147139597008146DE062581FE058D
:1046D000558D4D8D8280A5576348F804F9473706FC
:1046E0008000B38707417D45598E6351F5047957A2
:1046F00033070741130500023357E6006388A7001C
:10470000938626CAB316D600B3E8D800B337100193
:10471000D98F13F77700014815FB1397570085468B
:10472000E34807F48146A5B781468DB7938626C82E
:104730003397D8003337E000B316D600B3D8F8006B
:10474000B367D700B3E7F800E9B7C28689B7C16796
:10475000637EF5029307F00F1307000263ECA700D6
:104760009717000093874737AA9703C507003305BB
:10477000A74082802181971700009387E735AA9789
:1047800003C5070061473305A7408280B7070001D2
:10479000636EF5006181971700009387E733AA974E
:1047A00003C5070021473305A74082804181971741
:1047B000000093876732AA9703C507004147330576
:1047C000A7408280938781809C434111328806C62E
:1047D000AA882E87C8473686971700009387C73F59
:1047E00063170800971700009387C73F3E88C68667
:1047F000971500009385453F1920EF00F00A3971A5
:1048000032D436D63EDA3AD842DC46DE938781800F
:104810002E86AA858843341006CE36C68D28F240EF
:10482000216182801C46FD171CC663D90700184E03
:1048300063C5E700A9476393F5004DA51C422E858B
:104840001387170018C22380B7008280011122CC81
:1048500026CA4AC84EC652C406CE2A89AE893284B8
:10486000B304D6007D5A63149400014509A883451A
:1048700004004E864A857D370504E31645FFF24065
:104880006244D2444249B249224A0561828035716C
:1048900022CD26CB4AC94EC706CF52C556C35AC1F0
:1048A000DEDEE2DCE6DAAA89AE843289368409C526
:1048B0001C4D99E3EF00D025971700009387873BA5
:1048C000639CF40C83A4490083D7C400A18BFDC76B
:1048D0009C48EDC793070002A304F102930700036D
:1048E00002D22305F10222C6930B5002971A000050
:1048F000938A8A32054C294B4A848347040099C322
:104900006390770FB30C2441638D0C00E6864A86D2
:10491000A6854E85253FFD576308F51E9256E696FF
:1049200036D2834704006381071EFD571309140024
:1049300002C802CE3ECA02CCA309010482D4834538
:10494000090015465685EF00D04213041900C247EE
:1049500051E913F7070109C713070002A309E1048E
:1049600013F7870009C71307B002A309E1048346C0
:1049700009001307A002638FE606F2474A848146C6
:1049800025460347040093051400130707FD6378C9
:10499000E60AADCA3ECEBDA0971700009387872FC9
:1049A0006395F40083A4890005B7971700009387E7
:1049B000672AE39BF4F083A4C90039B7A6854E8526
:1049C000F12B09D97D55FA406A44DA444A49BA497B
:1049D0002A4A9A4A0A4BF65B665CD65C0D61828075
:1049E000050421BF330555413315AC00C98F3EC8BE
:1049F0002289B1B7324793064700184336C6634948
:104A000007023ACE034704009307E002631FF7044E
:104A1000034714009307A002631BF702B24709047F
:104A2000138747009C433AC663C107023ECA35A8B4
:104A30003307E04093E727003ACE3EC8E1B7B3879B
:104A4000670385462E84BA972DBFFD57C5B7050469
:104A500002CA814681472546034704009305140096
:104A6000130707FD6378E606F1F2834504000D465F
:104A7000171500001305C51AEF00B02F11CD9717B9
:104A800000009387E7191D8D93070004B397A700D3
:104A9000424505045D8D2AC8834504001946171553
:104AA000000013052518130914002304B102EF00B8
:104AB000502C3DC197B7FFFF9387C75495E74247F6
:104AC000B2471377071009CF91073EC69257D29786
:104AD0003ED21DB5B387670385462E84BA97ADBF16
:104AE0009D07E19BA107D5B7780097060000938644
:104AF00026D626860C084E8597000000E7000000A9
:104B0000FD572A8AE314F5FC83D7C40093F7070402
:104B1000E39A07EA125545BD780097060000938690
:104B200026D326860C084E85012AD9BF797156CA2C
:104B30009C49BA8A984522D426D24ECE52CC06D66B
:104B40004AD05AC85EC6AA892E84B284368A63D3F4
:104B5000E700BA879CC00347340419C385079CC08B
:104B60001C4093F7070281C79C4089079CC003291A
:104B7000040013796900631A0900130B9401FD5BAB
:104B80005C449840998F634CF9041C40834634047C
:104B900093F70702B336D000A5EB13063404D28591
:104BA0004E85829AFD576303F5041C4011469840D8
:104BB000998B544481446397C700B384E64063D320
:104BC000040081441C4418486354F700998FBE9434
:104BD000014969047D5B63982405014509A8854660
:104BE0005A86D2854E85829A631E75017D55B250D4
:104BF000225492540259F249624AD24A424BB24B71
:104C0000456182800509ADBF3307D4001306000358
:104C1000A301C7040347540493871600A29789068B
:104C2000A381E7049DBF85462286D2854E85829A60
:104C3000E30E65FB050945B7797122D426D24AD027
:104C40004ECE06D652CC56CA5AC8B68983C68501FE
:104C50009307E0063289AA842E8413863504638183
:104C6000F61E63E2D706930730066382F60A63ED09
:104C7000D700638B061E930780056387F616930A99
:104C800024042301D40469A8930740066386F60030
:104C900093079006E395F6FE1C40084393F6070839
:104CA00093054500C1C21C410CC363D8070013071C
:104CB000D002B307F040A301E404971600009386E6
:104CC000E6F6294765A0930730076383F61A63EF7A
:104CD000D7009307F006638FF60493070007E3906D
:104CE000F6FA9C4193E707029CC109A89307500775
:104CF0006382F60493078007E393F6F8930780072F
:104D0000A302F40497160000938686F3E5A01C43E3
:104D1000938A2504938647009C4314C32381F5049A
:104D20008547B5A293F607041C410CC3BDDEC2073C
:104D3000C187A5BF0C401C4313F805081385470025
:104D40006305080008C39C4339A093F5050408C314
:104D5000FDD983D707001307F006638BE60C97167F
:104D600000009386A6EC2947A30104044C400CC420
:104D700063C5050008406D9908C099E3B28A91CDDA
:104D8000B28AB3F5E702FD1AB69583C50500238004
:104D9000BA00B3D5E70263F3E70AA147631EF70041
:104DA0001C40858B91CB58401C4863C7E700930794
:104DB0000003A38FFAFEFD1A3306564110C84E8732
:104DC000CA867000A2852685EFF05FD67D5A6314EF
:104DD000450D7D55B250225492540259F249624A0F
:104DE000D24A424B45618280A382D50497160000C7
:104DF0009386C6E30C40084313F805081C411105CF
:104E00006300080208C313F7150001C793E5050204
:104E10000CC04147B1FB0C4093F5F5FD0CC0A9B7A0
:104E200013F8050408C3E30008FEC207C183E1BF0D
:104E300097160000938686DF21473DB7AE8791B76E
:104E400094411C43CC4913F80608138547006306B8
:104E5000080008C39C438CC301A808C393F606044A
:104E60009C43F5DA2390B70023280400B28A81BF5F
:104E70001C43D04181459386470014C383AA070091
:104E80005685C52D01C53305554148C05C401CC839
:104E9000A30104042DB714485686CA852685829935
:104EA000E30945F31C40898B8DE7B2474844E3533F
:104EB000F5F23E8505B785465686CA8526858299D0
:104EC000E30965F1050A5C443247998FE345FAFE30
:104ED000E9BF014A930A94017D5BF5B7011122CC29
:104EE00026CA4AC806CE4EC6AA842E89328401C577
:104EF0001C4D91E33129971700009387A7D76319B9
:104F0000F406C0401C4C1CC48357C400A18BC9C309
:104F10001C48BDCF1C4808409379F90F1379F90F4D
:104F20001D8D5C486346F500A2852685D9242DE5B4
:104F30001C440505FD171CC41C401387170018C02E
:104F4000238037015C486389A7008357C400858BA1
:104F500081CBA9476316F900A2852685592C0DED52
:104F6000F24062444A85D2444249B2490561828096
:104F700097170000938707D26314F400804459B751
:104F800097170000938707CDE31EF4F6C0449DBF3A
:104F9000A285268521203DDD7D59D9B74111938712
:104FA000818026C2844322C44AC006C62A892E8430
:104FB00089C49C4C99E32685A12E971700009387FE
:104FC00067CB631CF402C0400317C40093170701AA
:104FD000C18393F68700B5EE93F607019DEEA547D2
:104FE0002320F900136707042316E4007D55B2401F
:104FF000224492440249410182809717000093871E
:1050000067C96314F4008044C1B797170000938701
:1050100067C4E31BF4FAC04445BF918B8DC74C585D
:1050200089C9930744046384F5004A858523232AAC
:1050300004028357C4002322040093F7B7FD23160C
:10504000F4001C481CC08357C40093E78700231654
:10505000F4001C4881EF8357C4001307002093F726
:1050600007286385E700A2854A85B5218357C400D8
:1050700013F7170005C75C4823240400B307F0406A
:105080001CCC1C480145A5F78317C40013F707087B
:1050900039DF93E707042316F40089BF898B0147A2
:1050A00091E3584818C4F1BF4111194506C6E92DCE
:1050B0000545EF00F01383D7C500011122CC26CAA5
:1050C00006CE4AC84EC613F78700AA842E8471EF15
:1050D000D841634DE000B841634AE0000145F24029
:1050E0006244D2444249B2490561828058547DD716
:1050F00003A904009396370123A0040063DD06068C
:1051000070488357C400918B99C75C401D8E5C58D2
:1051100099C33C401D8E5C540C5081462685829775
:10512000FD570357C400631DF5009440F54763E83D
:10513000D706B70740208507B3D7D700858BA5C30F
:105140001C48232204001CC09317370163D80700B2
:10515000FD576314F5009C4091E368C84C5823A0A8
:105160002401ADDD930744046384F50026853929C5
:10517000232A0402A5B70C500146854626850297CE
:10518000FD572A86E31FF5F69C40A5DF754763852A
:10519000E70059476394E70423A0240181B713670C
:1051A00007042316E4007D551DBF83A90501E3878D
:1051B00009F203A905008D8B23A03501330939417C
:1051C000014791E3D84918C4E35A20F11C540C500C
:1051D000CA864E86268582976349A0008357C400FD
:1051E00093E707042316F4007DBFAA993309A94069
:1051F000E1BF9C49B9CF011122CC06CE2A8411C54A
:105200001C4D81E72EC62922B245971700009387CF
:1052100067A6639BF5004C408397C50095C7228520
:105220006244F240056141BD97170000938787A64D
:105230006394F5000C44CDB797170000938787A1BE
:10524000E39CF5FC4C44C9BFF24062440145056152
:10525000828001458280411122C406C62A84231619
:10526000B5002317C50023200500232205002324B1
:1052700005002322050623280500232A0500232CE8
:105280000500214681451305C505EFA07FEB970773
:105290000000938707535CD09707000093876755FA
:1052A0001CD4970700009387A7595CD49707000088
:1052B0009387675C00D01CD8B240224441018280B1
:1052C00097050000938525F3A9A2411126C2130674
:1052D00080069384F5FFB384C4024AC02E8922C499
:1052E00006C693854407A9262A8401CD23200500FC
:1052F00023222501310508C4138684068145EFA0C9
:105300003FE42285B2402244924402494101828016
:105310001C4DADE3411106C622C4970700009387D8
:1053200067FA1CD59387C1809C4323240504232658
:105330000504232805046314F50085471CCD2A8441
:105340001D2848C02285052808C422852D2048C470
:10535000484001469145013708440546A545E53DCD
:1053600048440946C945C53D85471CCCB240224446
:1053700041018280828041119387C18026C284438B
:105380004AC006C69C4C22C42A8999E3268549371F
:10539000938484048044DC40FD1763D607009C405E
:1053A000B9CF8440C5BF0317C40039E7C17785076B
:1053B00023220406232004002322040023240400C3
:1053C0005CC423280400232A0400232C0400214663
:1053D00081451305C405EFA0BFD6232A0402232C60
:1053E000040223240404232604042285B240224418
:1053F00092440249410182801304840671BF9145A1
:105400004A85E13588C051FDB1472320F9000144A8
:10541000E9BF797122D44AD052CC56CA5AC85EC666
:1054200006D626D24ECE2A8AAE8A130485040149B6
:10543000054BFD5B09ECB25022544A859254025947
:10544000F249624AD24A424BB24B456182800444DF
:1054500083294400FD1963D409000040E1BF83D7CC
:10546000C400637BFB008397E40063877701A68514
:105470005285829A3369A90093848406E1BF197129
:10548000A6DAAE848395E500A2DC86DE328463DC96
:10549000050083D7C40023A0060093F707089DE307
:1054A0009307004015A0300836C61521B246E342E6
:1054B00005FE7247BD67F98F7977BA9793B71700E2
:1054C0009CC2F9BF930700041CC0F6506654D65422
:1054D00001450961828083D7C500011122CC06CE27
:1054E00026CA4AC8898B2E8489CF930774041CC0AE
:1054F0001CC885475CC8F2406244D24442490561F9
:10550000828074003000AA849D3FA2452A892685A6
:10551000052201ED8317C40013F7072069FFF19BF3
:1055200093E727002316F400C9B797070000938775
:1055300067D99CD48357C40008C008C893E70708FC
:105540002316F400A2475CC8B24789CF8315E40054
:1055500026855D2601C98357C400F19B93E7170098
:105560002316F4008357C4003369F900231624017D
:1055700059B793F5F50F2A966314C500014582804B
:1055800083470500E38DB7FE0505FDB7CDC183A7B1
:10559000C5FF411122C406C626C21384C5FF63D3CA
:1055A00007003E94AA845D269387C1839C4399EBB0
:1055B0002322040023AE81822244B24026859244F5
:1055C000410171A6637EF40014403307D400639652
:1055D000E7009843DC43369718C05CC0E1BFBA8748
:1055E000D84319C3E37DE4FE94433386D700631F99
:1055F00086001040B29694C33386D700E31EC7FAE4
:1056000010435843B29694C3D8C37DB76375C400A2
:10561000B1479CC055B71040B306C4006316D7000D
:1056200014435843B29614C058C0C0C371B78280A7
:10563000011126CA93843500F19806CE22CC4AC8BF
:105640004EC6A104B14763F1F404B14463E0B4046D
:105650002A89ED2C9387C18398433A8431E093875C
:1056600001849C4391E781454A85512823A0A18468
:10567000A6854A856920FD5963173507B147232060
:10568000F9004A85E92429A0E3D204FCB1471CC1F2
:105690000145F2406244D2444249B24905618280E8
:1056A0001C40858F63CE0702AD4663F6F6001CC032
:1056B0003E9404C031A05C406312870223AEF182A5
:1056C0004A8571241305B400930744006199330798
:1056D000F54061D33A94898F1CC065BF5CC3CDB7D8
:1056E00022874040A5BF130435007198E30385FC71
:1056F000B305A4404A852120E31D35FB41B7411184
:1057000022C42A842E8523A8018806C6D124FD57E9
:105710006317F500938701899C4391C31CC0B24075
:10572000224441018280FD4763F6B700D9471CC17E
:105730007D5582807C41011122CC06CE2E862A84A2
:1057400091C713972500BA97984319EB228532C663
:10575000B520AA85228562443246F240056115A82B
:10576000854601456308D700FD566319D700D94720
:105770001CC00545F2406244056182802E8523A04D
:10578000070002970145FDB793878180AA8588436A
:1057900059BF411122C42A842E85B28523A80188CD
:1057A00006C62924FD576317F500938701899C439A
:1057B00091C31CC0B240224441018280E1AA411140
:1057C00022C42E848395E50006C65922634905004C
:1057D0007C48AA977CC8B24022444101828083570A
:1057E000C4007D777D17F98F2316F400EDB783D7BA
:1057F000C500011122CC26CA4AC84EC606CE93F770
:105800000710AA842E843289B68991C78395E50052
:105810008946014631228357C4007D777D17F98F71
:105820002316F4008315E4006244F240CE864A86D3
:10583000B24942492685D24405613DA8411122C49E
:105840002E848395E50006C6E128FD570357C40062
:10585000631BF500FD77FD17F98F2316F400B240A6
:105860002244410182808567D98F2316F40068C8DD
:10587000FDB78395E50005A8411122C42A842E8531
:10588000B285368623A8018806C6EFD08F8DFD57D6
:105890006317F500938701899C4391C31CC0B240F4
:1058A000224441018280411122C42A842E8523A8EA
:1058B000018806C6E120FD576317F500938701892B
:1058C0009C4391C31CC0B2402244410182804111DB
:1058D00022C42A842E85B28523A8018806C66D209D
:1058E000FD576317F500938701899C4391C31CC042
:1058F000B240224441018280411122C42A842E8573
:1059000023A8018806C66928FD576317F500938709
:1059100001899C4391C31CC0B24022444101828052
:10592000411122C42A842E85B285368623A8018897
:1059300006C65920FD576317F500938701899C43DC
:1059400091C31CC0B2402244410182808280828087
:10595000411122C42A842E85B285368623A8018867
:1059600006C68D20FD576317F500938701899C4378
:1059700091C31CC0B240224441018280930780053C
:1059800023A8F1887D5582809307800523A8F1889C
:105990007D5582809307800523A8F1887D558280FC
:1059A0009307800523A8F18801458280930780052D
:1059B00023A8F1887D5582809307800523A8F1886C
:1059C0007D5582809307800523A8F1887D558280CC
:1059D000938741849C4391C73E9523A2A1843E8531
:1059E0008280938741893E9523A2A1843E8582804F
:1059F00001A000006D7300002E2E2F4C69627261B1
:105A0000726965732F7365656B667265655F6C6936
:105A1000627261726965732F7A665F7069742E6352
:105A20000000000075730000E72E533A333367C25D
:105A300066E646439A196A43CDCCCCCCCCCC5A40CE
:105A40000000A04200007041000020410008014019
:105A5000000C0140001001400014014074696D65A4
:105A6000725F7069745F696E746572727570745F6D
:105A70006D730000002C0140000000400004004055
:105A80000008004000380140004400400048004049
:105A9000004C0040E4E4FFFF32E4FFFF32E4FFFF8C
:105AA00030E4FFFF36E4FFFF36E4FFFF06E4FFFFCC
:105AB00030E4FFFF36E4FFFF06E4FFFF36E4FFFFBC
:105AC00030E4FFFFD2E4FFFFD2E4FFFFD2E4FFFFA8
:105AD00006E4FFFF000102020303030304040404BD
