:100000006F00E05813000000130000001300000010
:100010001300000013000000130000001300000094
:100020001300000013000000130000001300000084
:08003000130000007300100032
:100038006FF09FFC000000006F00E0496F00E0498E
:1000480000000000000000000000000000000000A8
:100058000000000000000000000000000000000098
:100068006FF09FF9000000006FF01FF9000000001A
:100078006FF09FF86FF05FF86FF01FF86FF0DFF721
:100088006FF09FF76FF05FF76F30C05D6F0040153E
:100098006F0040186F0080186F0080186FF0DFF550
:1000A8006FF09FF56FF05FF56F00C03F6FF0DFF402
:1000B8006FF09FF46FF05FF46F00E0210000000024
:1000C8000000000000000000000000006F00801524
:1000D8006F00A0206F00E0226F0020256F00A0298C
:1000E8006F00A0316F0020336F0020356FF0DFF014
:1000F8006FF09FF06FF05FF06FF01FF06FF0DFEFC1
:100108006FF09FEF6F4080476F0060356F30E04CB5
:100118006F00201C6FF05FEE6FF01FEE6FF0DFEDE9
:1001280000000000000000000000000000000000C7
:080138000000000000000000BF
:100140003D432A876373C3029377F700BDEFADE5A4
:10015000937606FF3D8ABA960CC34CC30CC74CC7B6
:100160004107E36BD7FE11E28280B306C3408A06E3
:100170009702000096966780A6002307B700A306A3
:10018000B7002306B700A305B7002305B700A304F3
:10019000B7002304B700A303B7002303B700A302EB
:1001A000B7002302B700A301B7002301B700A300E3
:1001B000B7002300B700828093F5F50F9396850072
:1001C000D58D93960501D58D61B79396270097023B
:1001D000000096968682E78086FA9680C1171D8F6A
:1001E0003E96E374C3F8A5B70945ED298547630436
:1001F000F50073002030B707002083A7C70D09471B
:100200006388E70005476388E7000945D529D5B726
:10021000EF10905DDDBFEF109018C5BF1145CD21E7
:10022000730020307300203073002030411122C64B
:100230001305000845298547630CF50013050020C8
:1002400055218547630DF50032444101730020308C
:100250000D4723A2E186130500085D21F5B71305BC
:100260009004EF2040032A8413058004EF20A002AD
:1002700029E083C70184E207E187A1EF09C50547AB
:100280002380E184B9A07D572380E18499A011E9FE
:10029000094723A2E18625A81DC9054723A2E186B7
:1002A0003DA083C70184E207E1877D576391E702A0
:1002B000EDB783C70184E207E1870547E389E7FCDF
:1002C00083C70184E207E1877D57E387E7FC23804A
:1002D0000184130500202D2185BF73002030730099
:1002E00020309305000837350140130505C0EF00A5
:1002F000B06019E1730020309305000837350140E4
:10030000130505C0EF001061F5B78545373501408D
:10031000130505C0EF00505E19E1730020308545DC
:1003200037350140130505C0EF00D05EEF30905A1D
:10033000EDB79305000437350140130505C0EF0004
:10034000B05B01ED9305000237350140130505C090
:10035000EF00905A01ED730020309305000437350B
:100360000140130505C0EF00F05AE9BF93050002F4
:1003700037350140130505C0EF00D059E9BF894565
:1003800037350140130505C0EF0010571DE99145B1
:1003900037350140130505C0EF0010561DE9A14592
:1003A00037350140130505C0EF0010551DE9C14563
:1003B00037350140130505C0EF0010541DE97300E7
:1003C0002030894537350140130505C0EF009054B2
:1003D0007DBF914537350140130505C0EF009053AF
:1003E0007DBFA14537350140130505C0EF00905290
:1003F0007DBFC14537350140130505C0EF00905161
:100400007DBF854537050040EF00104F19E17300AF
:100410002030854537050040EF00D04FCDBF8545E2
:100420003705004013050540EF00104D19E173003A
:10043000203085453705004013050540EF00904DFD
:10044000FDB785453715004013050580EF00D04AFC
:1004500019E17300203085453715004013050580EC
:10046000EF00504BFDB79305505237450040130540
:100470000540EF00506219E173002030930550529F
:100480003745004013050540EF00B065B707002071
:1004900083A7C70D09476388E7000547E39EE7FC8C
:1004A000EF10E06AD1BFEF10302FF9B70965A92A24
:1004B00085476304F500730020300965B522B7074E
:1004C000002083A7C70D09476388E7000547E39429
:1004D000E7FEEF10206EC5B7EF107032E9BF730072
:1004E000203001A0411106C622C426C24AC0EF1026
:1004F0005069EF20704681453D45EF10B03135ED34
:100500009146370600201306460681453D45EF100B
:10051000903BEF00107DEF30F046EF20F06AEF20C7
:10052000B05BEF30703DEF30501FEF20905CD14555
:100530000145EF10D068EF20F0630145EF10F06641
:1005400037090020B704002013050901EF400047D8
:1005500013850403EF408046EF30301783A7C1882E
:10056000E5DFEF30105E6DD9EF30301683A7C1881C
:10057000E5DFEF30706E69F9C5BF914637060020A0
:100580001306460681453D45EF10D03059B7970117
:1005900000209381A134175100201301A1A617B5A3
:1005A00000001305E595970500209385A5A5138602
:1005B000018463FAC5008322050023A055001105BC
:1005C0009105E3EAC5FE13850184938581946377E1
:1005D000B500232005001105E36DB5FE93028008E8
:1005E00073A0023097020000938242A593E21200AA
:1005F00073905230EF20903D970200009382C2EE3C
:1006000073901234730020309317350063DA0700BB
:10061000B707024083A707407D8D3335A000828055
:10062000B70702409C43CDBF9317350063D707003F
:10063000B707024023A2A7408280B7070240C8C381
:1006400082805C45D9C3B70601409387064003A664
:10065000064018411347F7FF718F23A0E64083A699
:10066000464018411347F7FF758FD8C358413E974E
:1006700014431041D18E14C3944718411347F7FF18
:10068000758F98C7D44718411347F7FF758FD8C7A0
:100690001C454147638CE7003707014013070740BB
:1006A000BA9798431441558F98C38280B707014089
:1006B00003A787401441558F23A4E74003A7C740F1
:1006C0001441558F23A6E74082805841B707014067
:1006D000938707403E9714431C4193C7F7FFF58F5C
:1006E0001CC3828037070140832707400327474107
:1006F000698F09C77D8D3335A000828001458280D6
:10070000B707014023AAA740828037270240B707D6
:100710006745938737125CC3B797EFCD9387B79A36
:100720005CC38280372702401C4B93E707081CCB31
:100730008280B7270240C8C78280B7270240DC47C3
:10074000858B054591EFB7270240DC47918B094522
:1007500081EBB7270240C8474189133515000D05C5
:100760008280411106C622C426C22A84F9378547F1
:10077000631BF50019C48544C9377D1463159500C2
:1007800065FC154511A011C4B240224492444101B8
:1007900082801545D5BF411106C622C426C22A84CF
:1007A00037050B007D3F9147630EF5007198856713
:1007B0003D8C1840B7270240D8DBB2402244924417
:1007C00041018280B72402409C4893E727009CC8DF
:1007D000C0C89C4893E707049CC837050B005137F5
:1007E0009C4809677517F98F9CC8C9B7011106CED7
:1007F00022CC26CA2A84AE8402C609659D37914759
:10080000630EF500719885673D8C1840B72702404C
:10081000D8DBF2406244D24405618280372702402F
:100820001C4B93E717001CCB93970401C183231043
:10083000F40009653D379147630AF500B726024089
:100840009C4A09677917F98F9CCA6DBF93072400EA
:100850003EC6B247C1802390970009651937B72675
:1008600002409C4A09677917F98F9CCA61BF9C4571
:1008700093F8F700C18B81C7DC41B3E8F80083C768
:100880000500A9CB10418147054E3D4F930E8002D4
:10089000930F8004214329A054C98507638B670205
:1008A000B316FE0003D70500758FE398E6FE139795
:1008B00027003318EF001348F8FF3376C80033974A
:1008C000E800598E9845E309D7FDE318F7FD14C9F0
:1008D000E9B710C103D705009307F00F63FDE704E4
:1008E0005041A147054EBD4F130F8002930E800467
:1008F000414331A054C915A88507638D6702B3161B
:10090000FE0003D70500758FE398E6FE13972700D6
:1009100001173398EF001348F8FF3376C800339778
:10092000E800598E9845E307E7FD9845E316D7FDA3
:1009300014C9D9B750C1828019C20CC982804CC970
:1009400082802A8663400504B7070140DC43931682
:100950000501C182370730003378E5006308E802FB
:100960001317B500635C0704135705011378F700EC
:100970000D47331707011347F7FF7D8FB707000FA8
:10098000D98F0DA0B7070140DC4FD1B7370700F171
:100990007D17F98FB708014003A848003377E800B6
:1009A00023A2E80091C5558112053395A600C98F91
:1009B00063420602370701405CC38280135755012A
:1009C00012073397E6001347F7FF7D8FB707000F35
:1009D000D98FC9BF370701405CCF828093F73500BC
:1009E0008A0713F7C50FB7050140BA9594453D47EF
:1009F0003317F7001347F7FF758F98C598453315E0
:100A0000F500598D88C58280B7E700E0BC47898B27
:100A100095CF8346050083472500920793F7F70F8C
:100A200037E700E036972300F7405C41B5C703473E
:100A30000500935757008546B396E6009387070451
:100A40008A0737E700E0BA9794C38280B7E700E0EF
:100A5000BC47898BF9FB034715008547630FF700F7
:100A60008346050083472500920793F7F70F37E782
:100A700000E036972300F7404DBF834605008347CB
:100A80002500920793E707F893F7F70F37E700E0A1
:100A900036972300F74051BF03470500935757008F
:100AA0008546B396E600938707068A0737E700E096
:100AB000BA9794C38280B7170240DC43B18B1147C9
:100AC0006384E70821476387E70899C7B7177A0067
:100AD000938707201CC131A0B7177A00938707209E
:100AE0001CC1371602405C429183BD8B3707002042
:100AF00013070700BA9783C607001C41B3D7D70076
:100B00005CC15442A1829D8ABA9683C60600B3D6C0
:100B1000D70014C55442AD829D8A3697034707001B
:100B2000B3D7E7005CC5584239839376370037075F
:100B300000201307870D3697034707001377F70F39
:100B4000B3D7E7021CC98280B7177A0093870720C2
:100B50001CC141BF371702405C435843C983BD8B5A
:100B600089079316F70063CA060037173D0013077D
:100B70000790B387E7021CC1ADB73717024058434F
:100B80009316E70063DA060037173D001307079056
:100B9000B387E7021CC1B1B737177A0013070720E4
:100BA000B387E7021CC135BF99C5371702401C4FF8
:100BB0005D8D08CF8280B7170240984F1345F5FF2F
:100BC000798D88CF828099C5371702405C4F5D8D43
:100BD00048CF8280B7170240D84F1345F5FF798D73
:100BE000C8CF8280035705008D67938707047D8FE8
:100BF00083D7050083D62500D58F83D64500D58FB2
:100C000083D66500D58F83D68500D58F83D6A50082
:100C1000D58F83D6C500D58F83D6E500D58FD98FE4
:100C20002310F5000357C501FD779387F77FF98FF0
:100C3000231EF50083D705012318F500828081C9A2
:100C40008357050093E707042310F500828083573C
:100C50000500C207C18393F7F7FBC207C1832310C6
:100C6000F500828083570500C207C18337370140F2
:100C7000130707C06300E504370700406307E50674
:100C8000130707406303E506371700401307078083
:100C9000630DE50493F7F7CF03D76500D98F2310D1
:100CA000F50083D745002316F50283D705002314EA
:100CB000F50285A093F7F7F803D72500D98F93F7AE
:100CC000F7CF03D76500D98F2310F50083D74500F0
:100CD0002316F50283D705002314F50203C7850008
:100CE000B73701402398E7C22DA093F7F7F803D751
:100CF0002500D98F93F7F7CF03D76500D98F23103D
:100D0000F50083D745002316F50283D70500231489
:100D1000F5028547231AF500828083570502C20732
:100D2000C183F99BC207C1832310F50283570502D3
:100D3000C207C18383564500C206C182035785019D
:100D4000420741831377C7F803D60500518FF59BFF
:100D500003D6850003D8250033660601D18F3736C8
:100D60000140130606C0630DC5002312D500231CE5
:100D7000E50003D76500231AE5022310F5028280FF
:100D8000DD9B03D6A500D18FED9B03D64500D18F07
:100D900093F6F6CF03D6C50003D8E5003366060107
:100DA000D18EE1B783570502C207C183BD9BC2073D
:100DB000C1832310F50283570502C207C18303567E
:100DC0004500420641828356850165771307F7CFB8
:100DD000758F83D60500A206558F4207418393F78E
:100DE000F7FD03D8850083D62500B3E606019206F9
:100DF000D58FC207C183B7360140938606C0630D05
:100E0000D5002312C500231CE50003D76500231C71
:100E1000E5022310F502828093F7F7F783D6A50049
:100E20009206D58FC207C18393F7F7FB83D645009F
:100E30009206D58FC207C183FD769386F63F758EE5
:100E400003D8C50083D6E500B3E606018A06558EB1
:100E5000420641827DB783570502C207C18393F7DB
:100E6000F7EFC207C1832310F50283570502C207BB
:100E7000C18303564500420641820357C50142071C
:100E800041831377C7F883D60500558F93F7F7DFB3
:100E900003D8850083D62500B3E60601A206D58FC8
:100EA000C207C183B7360140938606C0630DD500E3
:100EB0002312C500231EE50003D76500231EE502AB
:100EC0002310F5028280FD769386F67FF58F83D618
:100ED000A500A206D58FC207C18393F7F7BF83D6BB
:100EE0004500A206D58FC207C183F576FD16758E23
:100EF00003D8C50083D6E500B3E606019206558EF9
:100F00004206418275B703570502FD77FD17F98F39
:100F10002310F5020358050203564500420641829C
:100F20008357C50165771307F7CF7D8F83D60500FB
:100F3000A206558F42074183F977FD17B3F70701E2
:100F400003D8850083D62500B3E60601B206D58F07
:100F5000C207C183B7360140938606C0630DD50032
:100F60002312C500231EE50003D765002310E50406
:100F70002310F5028280F176FD16758E83D6C500AA
:100F80009A06558E42064182E1BFFD572312F500B5
:100F90002310050023130500231105002304050079
:100FA000828081C98357050093E717002310F5005D
:100FB000828083570500C207C183F99BC207C183A2
:100FC0002310F500828081C9835745042167D98F9A
:100FD0002312F504828083574504C607C583231274
:100FE000F504828019C68357C500DD8D2316B50030
:100FF00082808357C50093C5F5FFFD8D2316B5008C
:101000008280035885004208135808010357850160
:101010004207418383570502C207C183137888FFC3
:10102000B365B8001377C7CF1367171093F7D7FDD1
:101030009206558ED18FC207C1832314B500231C9D
:10104000E5002310F502828083578501C207C18322
:10105000DD9BDD8D231CB500828003578501FD7764
:101060009387F77FF98FA205CD8FC207C183231C19
:10107000F50082808357C501C207C183DD9BDD8DEA
:10108000231EB50082800357C501FD779387F77F44
:10109000F98FA205CD8FC207C183231EF500828080
:1010A00083578501C207C183ED9BDD8D231CB500ED
:1010B000828083578501C207C18393F7F7BFA205DA
:1010C000CD8FC207C183231CF50082808357C501E1
:1010D000C207C183ED9BDD8D231EB500828083573F
:1010E000C501C207C18393F7F7BFA205CD8FC20721
:1010F000C183231EF5008280835705010355C50077
:1011000042054181ED8F89C76D8D3335A000828006
:101110000145828093C5F5FFC205C1812318B50042
:101120008280797106D622D426D22A84AE840357CF
:101130000501F577FD17F98F03D76500D98F2318BF
:10114000F5000357C500FD779387379FF98F03D7C5
:101150004500D98F03D78500D98F03D7A500D98F34
:101160002316F50083574501C207C18393F7F7CFD4
:1011700003D7C500D98F231AF5006800EFF0BF939D
:10118000B7470140938707806301F40652478357AE
:10119000C400C207C18763CC070493171700BA972E
:1011A0008E07BA9798400A07B3D7E702130740069D
:1011B000B3D6E7029206B3F7E7020357C40042072B
:1011C000418763400704920793872703130740066C
:1011D000B3D7E702BD8BD58FC207C1832314F400B8
:1011E000B250225492544561828062474DB79317A2
:1011F0001700BA978E07BA9798400607B3D7E70249
:1012000075B7139737001307270393074006335723
:10121000F7021D8BB367D700C1B781C98357C500DB
:101220000967D98F2316F50082800357C500F97727
:10123000FD17F98F2316F500828093F7F50F95833C
:101240000547B315B700638CE700894613074501CE
:10125000638AD70019CA1C43DD8D0CC38280130733
:10126000C500CDBF13070501F5B71C4393C5F5FFB6
:10127000FD8D0CC3828093F5F51F2312B50082808B
:10128000035545001375F51F8280035505006D8DCC
:101290003335A000828093F7F50F95838546339709
:1012A000B6006388D70289466389D7028357450110
:1012B0007D8F0355050093170501C183014509CBB7
:1012C000A1810545B315B50033F5B7003335A0004E
:1012D00082808357C5007D8FE9BF835705017D8FCD
:1012E000C9BFA1818547B397B70093C7F7FFC2076E
:1012F000C1832310F5008280011106CE22CC26CABC
:10130000A307A100A96703A40767A16444C8916764
:101310005CC8854601469305F1000145EF10703A1F
:1013200004C8F2406244D24405618280011106CEB5
:1013300022CC26CAA307A100A96703A40767A1645A
:1013400044C891671CC885461306F100B285014563
:10135000EF10303704C8F2406244D2440561828005
:10136000011106CE22CC26CAA96703A40767A1648F
:1013700044C8935785002306F100A306A100916796
:101380001CC889467000B2850145EF10903304C82F
:10139000F2406244D24405618280011106CE22CC23
:1013A00026CA4AC84EC69307F00763EEA7062A84EA
:1013B000AE843289B6899307F00963E5B7089307CD
:1013C000F00763E0C70A9307F00963EBD70A130538
:1013D000A0021D370145993F130524001375F50F31
:1013E000B1370145A137130529001375F50F3D3FAE
:1013F0001305B00211370145153F1385140013750D
:10140000F50F2D3701451D37138519001375F50F9D
:10141000313F1305C002CD35F2406244D244424907
:10142000B24905618280B7A60000938606EA296664
:10143000130606E99305700537A50000130545EB73
:10144000EF70E073B7A60000938686EE2966130658
:1014500006E99305800537A50000130545EBEF70FD
:101460000072B7A600009386C6EF2966130606E948
:101470009305A00537A50000130545EBEF7020701C
:10148000B7A600009386C6F02966130606E9930501
:10149000B00537A50000130545EBEF70406E411114
:1014A00006C622C426C24AC0AA849306F0091306BF
:1014B000F00781450145D5351309000A31A07D1992
:1014C0001379F90F63090900130400082685493DC3
:1014D0007D146DFCEDB7B2402244924402494101B3
:1014E0008280011106CE22CC26CA4AC84EC60148C7
:1014F00081471307F00493063002054681450145F4
:10150000EF10100C93060031054685451305F004D5
:10151000EF00B04393060031014685451305D00422
:10152000EF00B04293060031014685451305E00403
:10153000EF00B041A96783A90767096923AA2901B8
:1015400003A54185130409F433558502931725003B
:101550003E9506058145EF10701A23A8290103A5C1
:10156000418533558502931745003385A7400E0505
:101570008145EF10B0184545413303A541853355EA
:101580008502931745003385A7400E058145EF106E
:10159000F0161305100B8D330545493B1305C002AA
:1015A00071331305D00259331305200BB1330545B0
:1015B000B53B1305C0029D3B1305D002853B1305C7
:1015C000300B1D3B05459D331305C00285331305C4
:1015D000D002A93B0545993B1305C002813B130589
:1015E000D002A9331305400B013B1D458133130580
:1015F000000C19331305200A153B0945053B13055B
:1016000040082D331305100CC5391305500C393B18
:101610001305200CD5312945113B0145013B13052C
:10162000300CD9391305A00811331305A002FD3978
:101630001305400CD1311305A008CD391305E00E78
:10164000F5311305500C4D393945CD311305600383
:1016500065310145E1391305000E79393D45F93110
:101660006945E9313D45D9316145C9311305F0027C
:101670007539130580025D391305000245391305DC
:1016800020026D317D455D316D454D3113053002D0
:101690007139130570035939014549391D457931AF
:1016A00009456931414559311305100EB1313D45A8
:1016B000B5396D45A5393D4595395D4585391305E4
:1016C0003003AD311305C002953113059002B939CD
:1016D0001305E002A139130500038939130500033E
:1016E000B1311305900399311305F00381310145A0
:1016F00035391D4525390D45153941450539130540
:10170000A002DD3E01451D3109450D310145393944
:101710001305200821391305B002F93E014539317E
:101720000D452931014519311305300801311305E3
:10173000000FD9360545DD3E1305600F753E0145A6
:10174000F5361305A0034D3E1545CD361305900221
:10175000653641657D15A133F2406244D244424969
:10176000B24905618280797106D622D426D24AD048
:101770004ECE52CC56CA5AC85EC662C466C26AC051
:10178000AA8B2E89138D05011206330BB640930CDC
:101790007500A96A938A0AF2214CC169138AF9FF7C
:1017A000938909801DA05285EFF09FBB85807D1431
:1017B0001374F40F01C893F71400F5D74E85EFF0BA
:1017C0003FBAEDB70509630FA901CA866686CA85C7
:1017D0005E85EFF09FBCB3076901D69783C407E02D
:1017E0006284D1BFB250225492540259F249624AE3
:1017F000D24A424BB24B224C924C024D4561828000
:10180000011106CE22CC26CA4AC84EC6B2890306AA
:10181000060015C62A84920513990501135909017A
:101820008144CA85228581378504C204C180B3877B
:101830009900038607002104420441807DF2F240B2
:101840006244D2444249B24905618280797106D628
:1018500022D426D24AD04ECE2A8493074006B357CC
:10186000F6022306F100A9473357F6023377F70251
:10187000A306E1003376F6022307C100920593998F
:10188000050193D90901640013098501420913591F
:10189000090103C604001306060362066186CE85AD
:1018A0002285D1358504210442044180E31324FFBD
:1018B000B250225492540259F249456182807971A2
:1018C00006D622D426D24AD04ECE2A842E89B2847D
:1018D000634A06089205C205C181130600026135FC
:1018E000896793870771B3C7F4022304F1001307D4
:1018F000803E33C7E402A9473367F702A304E1003F
:101900001307400633C7E4023367F7022305E100FB
:1019100033C7F4023367F702A305E100B3E4F4022E
:1019200023069100120942091359090124002104D8
:10193000420441809309D10003C604001306060344
:1019400062066186CA852285393D850421044204E8
:101950004180E39334FFB250225492540259F24929
:10196000456182809205C205C1811306D002E53B24
:10197000B3049040C204C184A5B7797106D622D4BD
:1019800026D24AD04ECE2A84896793870771B357EF
:10199000F6022304F1001307803E3357E602A947FD
:1019A0003377F702A304E100130740063357E6023A
:1019B0003377F7022305E1003357F6023377F70256
:1019C000A305E1003376F6022306C10092051399C0
:1019D00005011359090124009309D10003C604002D
:1019E0001306060362066186CA852285AD3B85041F
:1019F000210442044180E39334FFB25022549254B4
:101A00000259F249456182805D7186C6A2C4A6C2B0
:101A1000CAC04EDE52DC56DAAA892E8A3284B684D7
:101A2000BE8A994663F3F600994A93FAFA0FBA8789
:101A3000A94663F3E600A94713F9F70F014681466B
:101A40002285A685EF50C033634D050A2286A686FF
:101A5000B7A500009385C5F11305D1002524930691
:101A6000A5FF93F6F60F1346F9FF36961376F60F99
:101A70001319860113598941850AD69693F6F60FF4
:101A8000939A860193DA8A41635E0902918E93F6F6
:101A9000F60FD6879305000218183E97230EB7FC61
:101AA000850713F7F70F93178701E187E396E6FEA3
:101AB000B38ACA40E20A93DA8A413309C94062090B
:101AC00013598941014681462285A685EF50402B56
:101AD000634805061C183E9993070002230EF9FC83
:101AE0001C18BE9A238E0AFC7000D2854E85093BD5
:101AF000B640264496440649F259625AD25A616168
:101B000082802286A686B7A500009385C5F168006D
:101B1000952A930695FF93F6F60F1346F9FF36962E
:101B20001376F60F1319860113598941850AD69643
:101B300093F6F60F939A860193DA8A41E34809F403
:101B40001C183E999307D002230EF9FC51BFA967D8
:101B500083A7477103D647009386718483C7060025
:101B6000138741843E972300C700850793F7F70F3B
:101B70002380F6000547638BE7000D476397E70076
:101B8000A383018405472384E184828003C74184C1
:101B90009307500AE30BF7FEA38301848280B70703
:101BA000024009671307874BB8C7F843136717004C
:101BB000F8C382800547A380E184B7060240FC4257
:101BC00041677917F98FFCC28280AA8729C213570F
:101BD000F541B347A700998F368633E7D70213073D
:101BE00007032380E500B3C6D702B5C2AE878507D9
:101BF00033E7C602130707032380E700B3C6C60214
:101C0000138517000D8D1375F50FF5F282802E8662
:101C1000B68825480547B305B7400DA0130707034D
:101C20001377F70F2300E60033D7D7023305B6004A
:101C30001375F50F63EE17010506BA8733F7D70260
:101C4000E37EE8FC130777031377F70FE1BF054541
:101C5000828013D81500854763F5B7029387F5FF97
:101C6000AA972A872E9583860700030607002380FC
:101C7000C7002300D7000507B306F540FD17E3E4CE
:101C800006FF8280757186D6A2D4A6D2CAD0CECEE7
:101C9000D2CCD6CADAC8DEC6E2C4E6C2EAC06EDE7C
:101CA000B2DCB6DE3AC13EC342C546C7BC183ED61A
:101CB000838705006381072C2A84814C930450029A
:101CC000930A3005296A130A0A5137A7000003292D
:101CD000076683294766BDACB257138747003AD6DB
:101CE0009C432300F4000504850C85A4B257138798
:101CF00047003AD683AB0700A94605462C005E850F
:101D0000E9352A8B63CD0B00DA85280099375A868E
:101D10002C002285EF60B06C5A94DA9C3DA41C180C
:101D2000AA971307D002238CE7FC130B1500137B33
:101D3000FB0FD9BFB2579D07E19B138787003AD6A7
:101D400003AB070083AB47005A85DE85EF50104E8A
:101D50002A8DA94605462C008D3DAA8D0146814657
:101D60005A85DE85EF50C00163400506EE852800E8
:101D7000CD356E862C002285EF6070666E94EE9CE9
:101D80006A85EF5030512A86AE865A85DE85EF503F
:101D900000564A86CE86EF50000A2A8BAE8B01464B
:101DA0008146EF40706C1DE993070003A306F10024
:101DB0002306F100A305F1002305F100A304F100BF
:101DC0002304F100194581A81C18EE971307D002CF
:101DD000238CE7FC850D93FDFD0F49BF5A85DE85F9
:101DE000EF50D044A94605462C00C533954763E41F
:101DF000A7023C00AA97130791002A979546898E5F
:101E000093F6F60F3697930600032380D7008507D5
:101E1000E31DF7FE19451C18AA971307E002238C4F
:101E2000E7FC0505137BF50FDA8528001D355A867A
:101E30002C002285EF60B05ADA9C01AAB2571387B2
:101E400047003AD6A94601462C008843BD3B2A8B61
:101E5000AA852800FD3B5A862C002285EF60305869
:101E60005A94DA9CDDA0B257138747003AD6A146B0
:101E700001462C008843913B2A8BAA852800D13B40
:101E80005A862C002285EF6090555A94DA9C75A8EA
:101E9000B257138747003AD6C14601462C00884303
:101EA0002D332A8BAA8528006D335A862C00228573
:101EB000EF60F0525A94DA9C49A8B2571387470052
:101EC0003AD694430387060049C3A28733848C40E3
:101ED0002380E7008507B38C87008506038706000B
:101EE00065FB3E849DA0A1452800A5338348810061
:101EF000034891000345A1008345B1000346C1009A
:101F00008346D1000347E1008347F1002300140119
:101F1000A30004012301A400A301B4002302C40010
:101F2000A302D4002303E400A303F4002104A10CC2
:101F300029A8930750022300F4000504850C31A062
:101F40002300F4000504850C2E8C93051C008307E8
:101F50001C009DC3E39697FE138C150083C71500E4
:101F60009387B7FD13F7F70FE3E1EAFE9317270016
:101F7000D2979C438287814C6685B65026549654EE
:101F80000659F649664AD64A464BB64B264C964CFD
:101F9000064DF25D49618280A96783A7477103D628
:101FA00047009386018583C706001387C1843E9747
:101FB0002300C700850793F7F70F2380F600054736
:101FC000638BE7000D476397E7002388018405478B
:101FD000A387E184828003C7C1849307500AE30B7F
:101FE000F7FE238801848280B70702400567130744
:101FF0000796B8C7F84313671700F8C382800547F0
:10200000A384E184B7060240FC4241677917F98F47
:10201000FCC28280A1673E9593162500AE96AA0663
:102020009842FD57631FF70093874600938606404A
:102030007D5698436319C7009107E39CD7FE01457D
:1020400082800545828005458280411106C622C4F2
:1020500026C22A84AE84EFE04FEB13054003EFE085
:102060004FED216522950A0526952A05EFE0AFF28E
:102070001384818008C013050002EFE08FEBEFE0CE
:102080006FEA084071153335A000B24022449244F3
:1020900041018280A1673E950A052E952A059DC2C1
:1020A0001387F6FF4207418305070A073297B28775
:1020B0003306C540B386C7009107944223AED7FECE
:1020C000E39AE7FE8280011106CE22CC26CA4AC8D6
:1020D0004EC652C42A892E8AB2893684A167AA972D
:1020E0008A07AE979394A700353731E9EFE0EFE127
:1020F0009307F4FFC207C18305C88507139927001A
:102100004E994E84B38434419149330594001104AF
:102110008325C4FFEFE08FED9387C18088C39C4384
:1021200063933703E31324FFEFE0CFDF0145F24071
:102130006244D2444249B249224A05618280D28532
:102140004A85213765B70545DDB7130700086306E3
:10215000E510797106D622D426D24AD04ECE52CC82
:102160009357550013F977001374F501368AB28935
:10217000AE848DCB05476389E7060947638BE70685
:102180000D47638DE70611476380E70815476383B2
:10219000E7081947639CE700854513050010EFE049
:1021A000BFA029A085451145EFE01FA085473394C6
:1021B000870042044180231281006383F4069376F2
:1021C000FA0F36C613172900A96793878766BA974F
:1021D0004C008843EFE0AFE9B250225492540259C8
:1021E000F249624A4561828085452145EFE0DF9BE7
:1021F00075BF85454145EFE03F9B4DBF85451305C4
:102200000002EFE07F9A5DB7854513050004EFE01B
:10221000BF9969BF854513050008EFE0FF9879B7BE
:1022200093170A01C183A1839DE78D473EC493762E
:10223000FA0F36C613172900A96693868666369765
:1022400004434C002685EFE08FE24E86A28526856A
:10225000EFE08FEE51B73EC4D9BF8280935755004F
:102260009D8B7D890547638DE5008A0729671307E4
:102270008766BA97984385473395A70048CB8280F5
:102280008A07296713078766BA9798438547339566
:10229000A70008CB8280135735009376C7012967C2
:1022A0001307876636971C43984785473395A700E1
:1022B000798D3335A0008280011106CE22CC26CA4A
:1022C0004AC82A84AE84328985450545EFE0DF8D12
:1022D000CA860146814522858D3D1355540093756C
:1022E000F4011375F50FEFE06FEF85473394870026
:1022F00022C002C226C43EC60A85EFE08FB4F24077
:102300006244D244424905618280B7E700E07D57CC
:1023100023A0E71823A2E7188280011106CE230428
:10232000A100A304B1002305C10036C62800EFE0D8
:10233000AFED37E600E01842FD76F98E03A7C18BBA
:10234000558F23AEE18A58429387C18B12071183C0
:10235000D443558FD8C303C7870085476305F7006B
:10236000F240056182805537E5BF83A6C18B37E710
:1023700000E02320D7109387C18BDC432322F71082
:102380008280411106C622C49387C18B854623846F
:10239000D70003A4C18BDC435D8C33348000B53798
:1023A0002285B24022444101828011C182804111C4
:1023B00006C62382018C553FB24041018280011143
:1023C00006CE22CC26CA2A84AE8449C58547630A34
:1023D000F5088947630CF5088D47630EF508CDC0F5
:1023E00083A741851307007DB3D7E702FD172314A8
:1023F000F1008604FD14231291002315010023131C
:102400000100230601009317240029671307076CB6
:10241000BA9784434C002685EFE0DF840546854566
:102420002685EFE03FBC85452685EFE0BFCE25C879
:102430008547630DF40689476301F4088D476305FA
:10244000F40885452685EFE0DFB5F2406244D244CA
:10245000056182808545056513050580EFE0CFF4B1
:10246000BDBF85450545EFE00FF695BF854509459C
:10247000EFE06FF5ADB785451145EFE0CFF485B7D7
:10248000B7A600009386066929661306866793053A
:10249000200337A5000013054569EF60406E8546AF
:1024A00009468545130590028D3D61BF8546094665
:1024B00085451305C002953569B7854609468545AA
:1024C0001305D002993DB5BF8546094685451305DC
:1024D000E002A135BDB7411106C693070020630194
:1024E000F51E63F1A704930730216306F52263EB21
:1024F000A70E930730206305F51E63F4A70C93071E
:1025000010216308F51E63EFA71E93070021631CCB
:10251000F512930680310146854513056004EFF0FE
:10252000DFC215A2930710106302F51463FBA70224
:1025300093070011630CF51463F5A70693072011A8
:102540006307F516636CF51493073011631DF50EE0
:1025500093068031014685451305B002EFF0FFBEBA
:10256000DDA089476304F50E63F1A7028D47630779
:10257000F50E930700106318F50C930680310146A1
:1025800085450145EFF07FBC7DA85DC58547631C8F
:10259000F50A93068031014685452545EFF0FFBADF
:1025A0005DA093072010630BF50C93073010631C9C
:1025B000F50893068031014685450D45EFF0FFB8DB
:1025C00059A0930710206305F51093072020631C82
:1025D000F506930680310146854513050002EFF0AC
:1025E000DFB695A0930700306309F51463F5A702E1
:1025F000930720306305F516636AF51493073030AE
:102600006313F50493068031014685451305900256
:10261000EFF0BFB30DA8930700226307F5109307EF
:1026200010226312F5029306803101468545130599
:102630005002EFF09FB101A8930680310146854515
:102640002145EFF09FB0B240410182809306803176
:10265000014685452945EFF05FAFF5B79306803118
:10266000014685452D45EFF05FAEF1BF9306803101
:10267000014685450545EFF05FADF1B79306803122
:10268000014685450945EFF05FAC75BF9306803183
:10269000014685453D45EFF05FAB75B79306803148
:1026A0000146854513053002EFF03FAA69BF930646
:1026B0008031014685451305A002EFF01FA961B7DF
:1026C00093068031014685451945EFF01FA8A5BF47
:1026D00093068031014685451D45EFF01FA7A5B73C
:1026E000930680310146854513051002EFF0FFA5E2
:1026F00099BF930680310146854513057004EFF0BC
:10270000DFA491B793068031014685451305800407
:10271000EFF0BFA30DBF9306803101468545130539
:102720009004EFF09FA205B79306803101468545DE
:1027300013054002EFF07FA139B7930680310146BF
:10274000854513056002EFF05FA0F5BD930680316B
:102750000146854513057002EFF03F9FEDB59306E6
:1027600080310146854513058002EFF01F9EE1BDD3
:10277000397106DE22DC26DA4AD84ED6AA84AE8922
:102780003289EFF05FD513D4840075C085476307A5
:10279000F40E8947630CF4108D47630FF4128545DE
:1027A0000545EFE06FC0B7170240DC43C983BD8B1E
:1027B00037177A0013070720B387E7023727F4009B
:1027C00013070740BA9723AAF18433D7370341830D
:1027D00093051700B3853503B3D7B7029386F7FF88
:1027E000231CD100231AE100231D0100231B01003B
:1027F000230E0100130700072312E10005472313EE
:10280000E10023140100C207C183B38727033167A6
:1028100013070735B3D7E7022315F10089472316BD
:10282000F1002317F10023180100231901000A0405
:10283000A9679387076C3E9400404C082285EFE01F
:102840006FC28D88F9C08547638CF40E8947638712
:10285000F4104C002285EFE00FEBA1452285EFE05C
:102860009F82930500402285EFE07F875DA8854524
:10287000056513050580EFE02FB315B785450545C0
:10288000EFE06FB485450545EFE00FB293D7440004
:1028900041476388E7044547E397E7F085453705F7
:1028A000180013050530EFE0CF89F5BD85450945D2
:1028B000EFE06FB185450545EFE00FAF93D74400DA
:1028C000130710026397E702854537151A001305B1
:1028D00005C0EFE00F87C1BD85451145EFE0AFAE04
:1028E0007DBD85453705160013050504EFE06F85AE
:1028F0005DBD13072002E398E7EA854537151A0006
:1029000013050580EFE0EF8379BD4C002285EFE0F1
:10291000CFC0A1452285EFE02FF391452285EFE05E
:102920002FF885452285EFE0CFE785452285EFE04A
:102930008FE9F2506254D2544259B25921618280D7
:102940004C002285EFE00FC6A1452285EFE0EFF0B5
:10295000930500402285EFE0CFF5E1B74C002285DA
:10296000EFE06FCFA1452285EFE0CFF091452285C2
:10297000EFE0CFF57DB71357850093172700A966C1
:102980009386066CB6979C4383D7C702B385F5023E
:10299000B16793870735B3D5F50201EF0D89B757B6
:1029A00000109387D7B03E950A05C205C1810CC1BE
:1029B000828085476309F70089476300F7028D47E6
:1029C0006308F70282800D89B7070010B5073E95AE
:1029D0000A05C205C1810CC182800D89B7070010AC
:1029E0009387D7103E950A05C205C1810CC182802C
:1029F0000D89B70700109387D7203E950A05C205B9
:102A0000C1810CC1C1B7411106C622C42E841DC9A3
:102A100089476308F5069147630CF50699476300FB
:102A2000F508A1476304F508A9476309F508B1470C
:102A30006310F50291460146814513056002EFF0EF
:102A4000CFF039A09146014681452145EFF0EFEFE7
:102A50008547630DF4068D476301F40895476305C8
:102A6000F4089D47630AF408A547630EF408AD47D0
:102A70006303F40AB5476308F40AB24022444101F3
:102A800082809146014681450145EFF00FECC9B7C0
:102A90009146014681453D45EFF02FEB55BF9146EC
:102AA000014681451945EFF04FEA5DB79146014671
:102AB000814513056004EFF04FE959BF9146014687
:102AC000814513054002EFF04FE859B791460146A2
:102AD00081452545EFF06FE74DB7914601468145A9
:102AE0000545EFF08FE651BF91460146814513053C
:102AF0003002EFF08FE551B79146014681451D4503
:102B0000EFF0AFE49DBF9146014681451305700487
:102B1000EFF0AFE39DB791460146814513055002A2
:102B2000EFF0AFE299BF914601468145130570026F
:102B3000EFF0AFE199B7011106CE22CC26CA4AC800
:102B40002A84AE84328931C58547630BF5048947F1
:102B5000630DF5048D47630FF504CA852685EFF0F4
:102B60009FEA85450545EFE02F8491476389F4048A
:102B7000A147638AF40AA9476396F404AD47631337
:102B8000F904854537151A0013050580EFD07FDB62
:102B900015A88545056513050580EFE0EF8075BF35
:102BA00085450545EFE02F824DBF85450945EFE09E
:102BB0008F8165B785451145EFE0EF8079BF954777
:102BC000630BF9044800EFE04FBC85472312F10086
:102BD000FD572314F10023150100231301002306E0
:102BE00001000A04A9679387076C3E9400404C00DB
:102BF0002285EFE02F878146014689452285EFE057
:102C00004FC085452285EFE0CFB9F2406244D244FF
:102C10004249056182808545370518001305053056
:102C2000EFD03FD245B7A547E31EF9F885453715E4
:102C30001A00130505C0EFD0DFD069B70A05A967F0
:102C40009387076CAA979C4303D5470242054185A9
:102C500082800A05A9679387076CAA979C432392F1
:102C600007028280411106C622C426C24AC0AE8431
:102C7000328436892DCDC1476303F50893070002DE
:102C80006318F50893068031054685451305D00283
:102C9000EFF0AFCB8547638CF408C5476381F40A36
:102CA000930710026396F40A930680310546854522
:102CB0001305F002EFF06FC98947630AF40AC947A8
:102CC000630FF40A930720026304F40C93073002A5
:102CD0006319F40C93060031054685454A85EFF0EB
:102CE000CFC6B240224492440249410182809306F9
:102CF0008031054685451545EFF02FC561BF930628
:102D000080310546854513053002EFF00FC459B7F1
:102D1000B7A600009386066E29661306066D930516
:102D2000D00237A500001305456EEF50506593069D
:102D30008031054685451D45EFF02FC1B5BF93068F
:102D400080310546854513055002EFF00FC0ADB741
:102D5000B7A600009386066E29661306066D9305D6
:102D6000200337A500001305456EEF505061930610
:102D70008031054685451945EFF02FBDA1BF93066B
:102D800080310546854513054002EFF00FBC99B729
:102D900093068031054685451305E002EFF0EFBA52
:102DA00015BFB7A600009386066E29661306066D4A
:102DB0009305800337A500001305456EEF50305C86
:102DC000397106DE22DC26DA4AD84ED652D456D2E3
:102DD0005AD02A84AE89328AB68A3A8BBE84428916
:102DE00049C585476309F508DA865686D2854E853A
:102DF000EFF05FE723160100930740102317F1005F
:102E00002318010085476386F40893978401E187BE
:102E1000A5CF89476385F4088D476388F408930735
:102E20000020231BF1000E09231C2101231D01009A
:102E30009D47231EF1000A0413850183229500415A
:102E40006C002285EFD01FDAC1476387F9068545FC
:102E50002285EFD0DFDEF2506254D2544259B2598B
:102E6000225A925A025B21618280854505650505DB
:102E7000EFD09FD395BF85451165EFD0DFD4854551
:102E80000545EFD07FD28DB723190100231A010029
:102E900079B7231901008547231AF10049B78947FB
:102EA0002319F100231A01009DBF89472319F1005E
:102EB0008547231AF100A5B785450545EFD07FA8C2
:102EC00079B7AE96938701830A053E956387B6026C
:102ED0008505184183C7F5FF2316F7008357870040
:102EE000898BEDDF65D683578700858BEDDF8357B0
:102EF000C7002300F6000506D1BF8280B7F700E0C7
:102F000023A0070023820700A38207002383070072
:102F1000A383070023840700A384070023850700F9
:102F2000A3850700054798C337F700E0814754435E
:102F3000E39FB7FEE37DD5FE8280411106C60DE515
:102F400085476385F500B240410182809306803158
:102F5000014685452545EFF04F9F91460146814545
:102F60002945EFF08F9EC5B789476309F502C14730
:102F70006306F504930700026310F506930680319B
:102F8000014685451305A002EFF02F9C91460146AE
:102F900081451305B002EFF04F9B75B79306803162
:102FA0000146854513056002EFF02F9A91460146D0
:102FB000814513057002EFF04F9971B79306803188
:102FC000014685450945EFF04F98914601468145F8
:102FD0000D45EFF08F9785BF93072002E315F5F6B7
:102FE00093068031014685451305A004EFF0EF9567
:102FF0009146014681451305B004EFF00F95A1B746
:10300000797106D622D426D24AD04ECE2A84AE89F1
:10301000B284368985450545EFD01FB9CA85268516
:10302000EFF0BFF189476381F402930720026390B8
:10303000F40293073002631CF9008545370514003C
:103040004105EFD01F9021A08D47630AF90429CCD8
:1030500085476300F40689476303F4064EC02312D4
:103060000100231301002314010023160100B147BE
:103070002315F1000A04A967938707713E94004065
:103080008A852285EFE0EF8985452285EFE0EF987C
:10309000B250225492540259F249456182808545CA
:1030A0001145EFD01F8A65B785451165EFD0DFAFB9
:1030B00075B7854537050200EFD0FFB045B78545A8
:1030C00037050400EFD03FB051BF0A05A9679387C9
:1030D0000771AA9798438357070093F70708E5DF1E
:1030E000C205C1812312B700828005CA411106C6FC
:1030F00022C426C24AC02A892E84B384C50005048E
:103100008345F4FF4A85EFF05FFCE39A84FEB2400A
:10311000224492440249410182808280411106C6C4
:1031200022C426C22A84AE8413172500A967938778
:103130000771BA970546930550528843EFE0EF8F29
:10314000A6860146854513055403EFF00F9DB24056
:103150002244924441018280B7170240DC43C98374
:10316000BD8B37177A0013070720B387E70237278D
:10317000F40013070740BA9723AAF1848280011153
:1031800006CE22CC26CA4AC84EC6B2896358C002AF
:10319000AE843389C500A96703A4077193050004B1
:1031A0002285EFE08F8E7DD985048385F4FFC205EB
:1031B000C1812285EFE02F8CE31299FE4E85F2400B
:1031C0006244D2444249B249056182804111B71735
:1031D000024098431367170098C3D843B706FFF817
:1031E000758FD8C39843B706F7FEFD16758F98C341
:1031F0009843B706FCFFFD16758F98C3D843B706F2
:1032000081FFFD16758FD8C337079F0098C702C48A
:1032100002C69843C166558F98C337160240B70659
:103220000200130700501C42F58F3EC6A2478507D7
:103230003EC4B24781E7A247E397E7FEB7170240D3
:103240009C431397E700635A070085473EC6324701
:1032500085476306F7004101828002C6CDBFB727CC
:10326000024098431367070198C39843719B98C322
:1032700098431367270098C3B7170240D843D8C3B1
:10328000D843D8C3D843D8C3D843B706C1FFFD1627
:10329000758FD8C3D843B7062500558FD8C3984338
:1032A000B7060001558F98C3371702401C43939609
:1032B0006700E3DD06FEB7170240D843719BD8C311
:1032C000D84313672700D8C3B71602402147DC4212
:1032D000B18BE39EE7FE41B7411106C6930600316C
:1032E0000146854513052006EFE03FE6B240410167
:1032F0008280411106C62D46A9450945EFF0BF83DE
:10330000154691450545EFF01F83B240410182808B
:10331000411106C622C40945EFF05F921384C185AE
:103320003305A0402310A4000545EFF03F91AA8586
:103330002311A40003150400B3E7A500C207C18749
:10334000B337F0002380F186EF10402F831704007D
:1033500096072310F4008317240096072311F40026
:103360000545EFF01F8F0945EFF0BF8EB2402244B4
:1033700041018280411106C69306800405468145BD
:1033800013057004EFE07FDC930680040546814559
:1033900013058004EFE07FDB13068004C1451305AD
:1033A0009004EFE07FF113068004A145130570043B
:1033B000EFE09FF085460946894513057002EFE06E
:1033C000DFF5B24041018280411106C6930610022A
:1033D00013060002B7150700938505800945EFF035
:1033E0003FC285450945EFF07FD3854601468145BB
:1033F00013057003EFE07FF213068004A145014539
:10340000EFE09FEB8546054685455945EFE0FFF027
:10341000B240410182809386118703C606001307DC
:1034200016001377F70F2380E6009387018FB2977A
:103430002380A70085476305F70293079002631076
:10344000F70205472388E18603C781919307E00EC1
:103450006305F7000D472388E186A38801868280F3
:1034600003C7018F9307800DE30BF7FEA388018646
:1034700009472388E1868280034715009307000BE4
:103480006305F708034745009307100B6308F70827
:10349000034775009307200B630BF7080347A5004C
:1034A0009307300B630EF7080347D5009307400BD3
:1034B0006301F70A034705019307500B6304F70AFA
:1034C000034735019307600B6307F70A034765015C
:1034D0009307700B630AF70A034795019307800B64
:1034E000630DF70A0347C5019307900B6300F70CC0
:1034F0000347F5019307A00B6303F70C034725026D
:103500009307B00B6306F70C828083472500A20760
:1035100003473500D98F239EF190ADB783475500FF
:10352000A20703476500D98F239FF19095B7834782
:103530008500A20703479500D98F2390F192B9BF68
:103540008347B500A2070347C500D98F2391F192A5
:10355000A1BF8347E500A2070347F500D98F239257
:10356000F19289BF83471501A20703472501D98F2F
:103570002393F192B1B783474501A2070347550151
:10358000D98F2394F19299B783477501A207034716
:103590008501D98F2395F19281B78347A501A207B1
:1035A0000347B501D98F2394F1862DBF8347D501F9
:1035B000A2070347E501D98F2395F18615BF8347FD
:1035C0000502A20703471502D98F2396F1863DB75E
:1035D00083473502A20703474502D98F2397F18617
:1035E00025B75D7186C696C49AC29EC022DE2ADCCB
:1035F0002EDA32D836D63AD43ED242D046CE72CC2B
:1036000076CA7AC87EC693055052375500401305D6
:103610000580EFD05FC80DE5B640A642164386434D
:1036200072546255D2554256B2562257925702589A
:10363000F248624ED24E424FB24F61617300203069
:10364000930550523754004013050480EFD07FC9D2
:1036500013050480EFD0DFC21375F50FEFF0BFDB69
:1036600083C501860945EFF05FA67DB7397106DE97
:1036700016DC1ADA1ED82AD62ED432D236D03ACE5A
:103680003ECC42CA46C872C676C47AC27EC00545E0
:10369000EFD04F8585476305F502F250E252525351
:1036A000C2533255A255125682567247E2475248CB
:1036B000C248324EA24E124F824F21617300203019
:1036C0000545EFD0EF8303C701878547E317F7FC74
:1036D000238801861385018FEFF01FDA7DBF41112A
:1036E00006C637A600001306C67E81454145EFE0B9
:1036F0002F9137A600001306867F85454145EFE0F0
:103700002F9037B600001306068089454145EFE04B
:103710002F8F37B600001306C6808D454145EFE078
:103720002F8E37B600001306068191454145EFE024
:103730002F8D37B6000013068681A5452145EFE0A1
:103740002F8C03C69187A54513058002EFE00F90EB
:1037500083A741860547638BE70009476384E70237
:103760000D47638FE702B2404101828093879187C2
:1037700003C70700B336E000158F2380E70023A2BC
:103780000186D5B79387918703C707009306C7FFC4
:10379000B336D00036972380E70023A20186E1B735
:1037A0009387918783C607002388D18023800700F1
:1037B000238C018641657D15EFD07FCE23A2018643
:1037C0005DB7411106C622C437B600001306068253
:1037D00081454145EFE0CF8237B600001306868170
:1037E000A5450145EFE0CF8137B6000013060683FB
:1037F000A54513050004EFE0AF8037B600001306BF
:10380000868385452145EFD0BFFF37B600001306FC
:10381000068489452145EFD0BFFE370400201304FC
:10382000440603460400854513058003EFE00F823C
:1038300003464400854513058005EFE02F810346CC
:103840008400894513058003EFE04F800346C400E0
:10385000894513058005EFD07FFF03C69187A545F5
:1038600013050002EFD09FFE03C68187A54513050F
:103870000006EFD0BFFD83A741860547638CE704B0
:103880000947638BE70A0D476394E70603C79187EF
:10389000A547630EF71283A7418763820710054788
:1038A000638BE71037B6000013060686A145614515
:1038B000EFD01FF5238C01869146370600201306B2
:1038C000460681453D45EFE01F8023AA018623A2DD
:1038D000018639A883A7418785E39387918703C72A
:1038E0000700B336E000158F2380E70023A201868E
:1038F000B24022444101828005476385E7020947BF
:10390000E396E7FE83C79187860703C78187BA9747
:103910008A073707002013074706BA9798437D1791
:1039200098C3E9B79387818703C70700B336E000E0
:10393000158F2380E7005DBF83A7418799EF9387A9
:10394000918703C70700930677FFB336D0003697F9
:103950002380E70023A2018661BF05476385E70254
:103960000947E399E7FE83C79187860703C78187E5
:10397000BA978A073707002013074706BA97984374
:10398000050798C3C1BF9387818703C707009306C4
:10399000F7FFB336D00036972380E70065BF37B610
:1039A000000013068684A1456145EFD07FE50547F9
:1039B00023AAE18629BF37B6000013064685A14534
:1039C0006145EFD0FFE3094723AAE18609B7A38C3D
:1039D000018625472388E18041657D15EFD03FAC06
:1039E000FDB5411106C622C437B600001306C686CF
:1039F00081456145EFD0DFE037B6000013068687CA
:103A000085452145EFD0DFDF37B600001306068875
:103A100089452145EFD0DFDE37B6000013068688E2
:103A20008D452145EFD0DFDD37B60000130606894E
:103A300091452145EFD0DFDC37B6000013068689BB
:103A400095452145EFD0DFDB37B600001306068A27
:103A500099452145EFD0DFDA37B600001306868A94
:103A60009D452145EFD0DFD937B600001306068B00
:103A7000A1452145EFD0DFD803D6C1918545130577
:103A80000004EFD09FEF1384C191035624008945B1
:103A900013050004EFD07FEE035644008D45130557
:103AA0000004EFD09FED0356640091451305000418
:103AB000EFD0BFEC03568400954513050004EFD00A
:103AC000DFEB0356A400994513050004EFD0FFEA8D
:103AD0000356C4009D4513050004EFD01FEA0356AA
:103AE000E400A14513050004EFD03FE937B600001C
:103AF0001306868BA5452145EFD09FD003A74186AD
:103B00008D476306F700B240224441018280254779
:103B10002388E18041657D15EFD07F9823A201863F
:103B2000DDB7411106C622C483A701821147638312
:103B3000E70C638407100547638AE7100947638031
:103B4000E7120D476386E71283C7C18191C703A7B8
:103B500001828D47630AF71237A600001306067E1E
:103B600099452145EFD0DFC937A600001306467EF0
:103B70009D452145EFD0DFC837A600001306867E9D
:103B8000A1452145EFD0DFC737B600001306868B6D
:103B9000A5452145EFD0DFC60396C187994513059A
:103BA0000002EFD0DFD11384C187031624009D45A6
:103BB00013050002EFD0BFD003C58185EF30906DB3
:103BC000B7A7000003A6877683A6C776EF20902EBE
:103BD000894709472A86AE86A14513050002EFD022
:103BE000BFE203A741868D476309F70AB24022442A
:103BF0004101828083C7A18795EB37A60000130699
:103C0000067781452145EFD0BFBF83C7C181A1F3AE
:103C100003A701828D47E311F7F437A600001306CE
:103C2000067C95452145EFD0BFBD3DB7238D01866C
:103C300041657D15EFD0BF86C9B737A600001306D2
:103C4000067885452145EFD0BFBBC1B737A6000038
:103C50001306067989452145EFD09FBA7DB737A66F
:103C600000001306067A8D452145EFD07FB971BF5C
:103C700037A600001306067B91452145EFD05FB8BB
:103C80000547238DE18651B737A600001306067D50
:103C900095452145EFD0DFB6C1B525472388E180A2
:103CA00041657D15EFD0AFFF23A2018681B7411199
:103CB00006C622C437B600001306C6868145614594
:103CC000EFD01FB437A600001306067285454145A4
:103CD000EFD01FB337A60000130686728945414511
:103CE000EFD01FB237A60000130606738D4541457D
:103CF000EFD01FB137A600001306867391454145EA
:103D0000EFD01FB003D68186854513050004EFD0A0
:103D1000DFC61384818603562400894513050004F9
:103D2000EFD0BFC5035644008D4513050004EFD006
:103D3000DFC403566400914513050004EFD0FFC3B0
:103D400037B600001306868BA5452145EFD05FAB43
:103D500003A741868D476306F700B2402244410124
:103D6000828025472388E18041657D15EFD02FF3C0
:103D700023A20186DDB7411106C622C437B6000072
:103D80001306C68681456145EFD09FA737A6000080
:103D90001306067485454145EFD09FA637A600005F
:103DA0001306867489454145EFD09FA537A60000CC
:103DB000130606758D454145EFD09FA437A6000038
:103DC0001306067E91454145EFD09FA337A600001C
:103DD0001306467E95454145EFD09FA237A60000C9
:103DE0001306867599454145EFD09FA137A600007F
:103DF000130606769D454145EFD09FA037A60000EB
:103E000013064676A1454145EFD09F9F0396C18991
:103E1000854513050004EFD09FAA1384C1890316BA
:103E20002400894513050004EFD07FA90316440040
:103E30008D4513050004EFD09FA80396C1859145D9
:103E400013050004EFD0BFA71384C1850316240017
:103E5000954513050004EFD09FA603A5418AEF40C6
:103E6000502989470D472A86AE86994513050004D7
:103E7000EFD09FB9039601889D4513050004EFD04C
:103E80001FA41384018803162400A1451305000410
:103E9000EFD0FFA237B600001306868BA54521455B
:103EA000EFD01F9603A741868D476306F700B24007
:103EB00022444101828025472388E18041657D15A8
:103EC000EFD0EFDD23A20186DDB7411106C683C71F
:103ED000018125476382E7029DC305476386E702A8
:103EE00009476386E7020D476386E7021147639A35
:103EF000E700EFF05FE831A0EFF06FFE19A0EFF000
:103F00005F8CB24041018280EFF0BFADDDBFEFF0CA
:103F10005FC1C5BFEFF0BFD9EDB7411106C622C4DE
:103F200093060031014685451305B004EFE0EFA18B
:103F300093060031014685451305A004EFE0EFA08C
:103F400001461D649305045313050030EFE05F82C2
:103F500001469305045313051030EFE07F81B24012
:103F6000224441018280411106C622C426C24AC0B1
:103F7000039641888395C1851385C192D92A83D739
:103F800001883E952390A188138941889384C18537
:103F90000316290083952400138581935D2A1384D9
:103FA0000188835724003E952311A400B240224487
:103FB0009244024941018280B306A0408397018860
:103FC00063D3D700B6876353F500AA872390F1889F
:103FD000138701888317270063D3D700B6876353FD
:103FE000F500AA872311F7008280411106C622C47A
:103FF00083970188635CF00485451305B004EFE006
:10400000EFA5839721886359F00481451305A00427
:10401000EFE0CFA48397018893D5F741AD8FB385A7
:10402000B74013050030EFE01F9513840188831714
:10403000240093D5F741AD8FB385B74013051030F9
:10404000EFE07F93B2402244410182808145130515
:10405000B004EFE0AFA075B785451305A004EFE00D
:10406000EF9F4DBF411106C622C426C29384C1876B
:1040700003950400EF40807BB7B7000083A5878CD1
:10408000EF40E012EF406074131405014180039586
:104090002400EF40A079B7B7000083A5C78CEF409C
:1040A0000011EF408072420541813307A440239202
:1040B000E188938741882A9423918700B240224463
:1040C0009244410182809387C1872390A700239166
:1040D000B7008280411106C6EFF0DFF8EFF04FA382
:1040E000EFF07FE81565130505E2EFF0FFECEFF068
:1040F000DFEFB24041018280B707002003954706F9
:10410000138741812310A7009387470683954700B3
:104110002311B70003968700138781812310C700FE
:104120008396C7002311D7009387C192239007007D
:10413000239107002393A7002394B70093878193CB
:1041400023900700239107002393C7002394D700EF
:1041500082800D8E4206418293170601C187831526
:104160000500B385B74003576500B385E5020357E3
:1041700085003306E602B2952310F500139505017C
:1041800041858280411106C685460146F1659385C9
:1041900005200145EFE0DFE6930600310546814545
:1041A0001305C004EFD07FFA85450145EFE01FF706
:1041B00085460946894513055003EFE00F96B24046
:1041C00041018280411106C622C426C2AA8403444A
:1041D0002500EF006078B38784001317050141873D
:1041E0002187A380E7002381A7002685B2402244CF
:1041F0009244410182800397C1892302E50021870F
:10420000A302E5009387C189039727002303E500F4
:104210002187A303E500839747002304F500A187C6
:10422000A304F5000397C191230CE5002187A30C9B
:10423000E5009387C19103972700A30DE50021872F
:10424000230EE50003974700230FE5002187A30F06
:10425000E50003976700A300E50221872301E5023B
:10426000039787002302E5022187A302E502039753
:10427000A700A303E50221872304E5020397C700F3
:104280002305E5022187A305E5028397E700A3063E
:10429000F502A1872307F50282809307A00F630927
:1042A000F50083C7418281EF9307B00F6319F500D2
:1042B0009387418203C7070005072380E7009386A1
:1042C000818803C706009307170093F7F70F238031
:1042D000F6002E972300A700094709456377F700EA
:1042E00003C725000D076383E7008280411106C6DE
:1042F00022C42E84238401887D572382E1822E8567
:10430000EF00806583452400935785003307B40090
:1043100003471700C207C1836319F700A29583C73B
:1043200025001375F50F638AA7000547238EE180EA
:104330000545B240224441018280238E018001451F
:10434000CDBF797106D622D483A741890D47638CEE
:10435000E70E83A5C18803C625006306060E03C7C2
:1043600035008946630BD70485466307D70A631374
:10437000070E6381070C03C501896309050C03C699
:1043800025000D060145EFE05FD637040020130538
:104390000403EFF03FE313040403034624000D0677
:1043A000AA850145EFE07FD42388018823AA0188EC
:1043B0000D4723A0E182054551A8094701456397B0
:1043C000E708A967938787E78843CC439047D4479A
:1043D000984B2AC42EC632C836CA3ACC83D7470176
:1043E000231EF1002800EFF0FFDD0346A1000D06BB
:1043F000AA850145EFE07FCF0D4723AAE188054755
:104400002388E188094723A0E18283A5C18883C767
:104410003500014585EFA5B7054701456398E702DB
:104420000D06EFE09FCC094723AAE188054723A0AA
:10443000E18211A80D060145EFE03FCB054723AA15
:10444000E18823A0018203C5018961F1B2502254A1
:10445000456182800145DDBF411106C622C4EFD00F
:104460005FF203A7C18883473700AD46638BD7024D
:10447000D5466385D706F946638FD7080947638118
:10448000E70A23A601880145EFD03FF21305C004D7
:10449000EFD07FE081475DC13E85B24022444101BB
:1044A0008280834747009306B0036380D702ED46BE
:1044B000E399D7FC83476700A20703475700D98FCA
:1044C000B307F040239EF1866DBF83476700A207C4
:1044D00003475700D98F239EF18665B7834747006E
:1044E0009306B0036380D702ED46E39CD7F8834779
:1044F0006700A20703475700D98FB307F040239FF7
:10450000F18641B783476700A20703475700D98F59
:10451000239FF186BDB703475700238CE18495B7ED
:10452000114723A0E18281450145EFF0DFB923A6C1
:1045300001880145EFD07FE78547B9BF37040020E8
:1045400013050403EFF03FCB13050403EFF09FC7FF
:1045500013040403034624000D06AA850145EFE079
:10456000DFB83704002013050401EFF0BFC51304C2
:104570000401034624000D06AA850145EFE0FFB6BD
:10458000814719BF397106DE16DC1ADA1ED82AD621
:104590002ED432D236D03ACE3ECC42CA46C872C6AB
:1045A00076C47AC27EC09305505237450140130548
:1045B0000580EFC05FCE01CD83C7818985CF93058C
:1045C00050523745014013050580EFC09FD1F2508E
:1045D000E2525253C2533255A25512568256724776
:1045E000E2475248C248324EA24E124F824F2161DA
:1045F000730020303745014013050580EFC05FC8C8
:1046000083A581821375F50FEFF03FC90DE103A774
:10461000818223A6E1889387818C6307F7009387C3
:10462000818C23A4F18261BF9387C18DDDBF854753
:10463000E317F5F803A58182592651B7397106DED3
:1046400022DC26DA4AD84ED652D456D25AD05ECE82
:1046500062CC66CA6AC82E8AEF40401DB7B9000016
:1046600083A5098DEF30D00037B900008325498D2F
:10467000EF30F033EF40E027B7B4000003A6048E1C
:1046800083A6448EEF200003EF4060312A845285D8
:10469000EF40C01983A5098DEF30807D8325498DBA
:1046A000EF30F030EF40E02403A6048E83A6448E62
:1046B000EF204000EF40A02E2A89AA852285EF3006
:1046C0005058AA8406050581EF40A022B7B7000024
:1046D00003A6878E83A6C78EEF20A05F6354A01A1F
:1046E0002685EF400021B7B7000003A6078F83A6F9
:1046F000478FEF10307CB7B7000003A6078E83A664
:10470000478EEF204073EF4080292A8DCA8522858D
:10471000EF30603FA685EF30A075EF40801DB7B742
:10472000000003A6878F83A6C78FEF20C070EF40DD
:104730000027EF40001C2A84AE846A85EF40601B8E
:104740002A8AAE8A71242A86AE86B7B7000003A5EE
:10475000079083A54790EF2090392286A686EF2008
:10476000806DEF40C0232A895285D685FD242A8694
:10477000AE862285A685EF20006CEF4040222A8B72
:1047800083AC418A6685EF40C0162A8AAE8A8924A6
:104790002A84AE844A85EF40C0152A89AE895285A5
:1047A000D685652C2A8AAE8A5A85EF4080142AC4A1
:1047B0002EC64A86CE862285A685EF20C0672A8B24
:1047C000AE8B2246B2465285D685EF20C0662A8639
:1047D000AE865A85DE85EF2090312A8BAE8B138C06
:1047E000818A03250C00EF40C0102A86AE865A85C8
:1047F000DE85EF102079EF40801A2A8B2320AC0051
:104800005286D6864A85CE85EF20E0622A89AE8917
:104810002246B2462285A685EF20E0612A86AE8632
:104820004A85CE85EF1000762A89AE891384C18A25
:104830000840EF40000C2A86AE864A85CE85EF10F0
:104840006074EF40C015AA8408C0EA856685EF3021
:10485000503F2A8493050000EF30B00C63460504F6
:104860002285EF4000092A89AE89B7B7000003A668
:10487000879083A6C790EF20C0456350050C23A204
:10488000818A91A02285EF40C006B7B7000003A639
:10489000078E83A6478EEF20005AEF4040102A8BE8
:1048A000130900004A8DE9BD2285EF408004B7B7A7
:1048B000000003A6879083A6C790EF10A06CEF407E
:1048C000000E23A2A18A1384C18937B90000832571
:1048D000898D5A85EF30B00DEF30306F2310A40072
:1048E0008325898D2685EF30900CEF30106E2311D3
:1048F000A400B7B7000083A5C78D03A5418AEF3098
:10490000100BEF30107FB7B7000003A6879083A687
:10491000C790EF10305AEF3060112312A400F2500C
:104920006254D2544259B259225A925A025BF24B03
:10493000624CD24C424D21618280B7B7000003A681
:10494000879083A6C7904A85CE85EF20501AEF4006
:10495000000523A2A18A85BFAA8803482500130762
:10496000E8FF854763D9E704130735009305C8FFBF
:104970001306550093F7E5FF3E9601458347070070
:10498000A20783461700D58FAA9713950701418187
:104990000907E315C7FE93D7150071181397170081
:1049A0003307E840860795076356E000C69783C73C
:1049B00007003D8D82808D470145FDB78280230031
:1049C0000500A300050023010500A3010500828066
:1049D000011122CC370400809347F4FF3727E93FC9
:1049E00006CEED8F1307B71F6350F7043707F07F2C
:1049F00063CAE700AE862A86EF20700FF240624459
:104A0000056182800A86CD200D8985476305F50200
:104A100089472246B246630DF5021DC502459245FF
:104A20000547EF106012D9BF014681460523F240C9
:104A30006244056182802246B2460245924505479E
:104A4000EF108010A18D5DBF0245924501237DB717
:104A500002459245E529A18D55B7011122CC3704B5
:104A600000809347F4FF3727E93F06CEED8F130709
:104A7000B71F635FF7023707F07F63CAE700AE86B0
:104A80002A86EF20D006F2406244056182800A86C1
:104A9000A1280D8985476306F50289472246B2465B
:104AA000630DF5020DC5024592454D21A18DE1BF73
:104AB000014701468146EF102009F240624405613A
:104AC00082802246B2460245924549216DBF024589
:104AD00092450547EF1040077DB7024592450547CF
:104AE000EF108006A18D45B75971A2D43727E93F51
:104AF0001394150086D6A6D2CAD0CECED2CCD6CAB2
:104B0000DAC8DEC6E2C4E6C2EAC06EDE058013077C
:104B1000B71F635B871437E702401307B797B28963
:104B2000634F8706976700009387C7DE9043D4439F
:104B30006356B03AEF20A07BB727F93F9387B71FA2
:104B40002A8AAE8A6308F41417640000130404DD93
:104B5000104054408544EF2080792A86AE8623A0F9
:104B6000A90023A2B9005285D685EF2040781040D5
:104B70005440EF20C07723A4A90023A6B900B65063
:104B80002654268506599654F649664AD64A464B17
:104B9000B64B264C964C064DF25D656182803727F8
:104BA00039411307B71F2E89635887103707F07FE5
:104BB0006354E40C135A4441130AAABE93174A01E2
:104BC0001D8CA285AA84EF207066EF20B06C2A8726
:104BD000AE873A86BE862685A2853ACC3ECE9764BD
:104BE0000000938424D7EF2080709040D440EF20C1
:104BF0008024AE8B2A8BEF2070632A84EF2090698B
:104C00002A87AE872A86AE865A85DE853AD03ED27E
:104C1000EF20E06D9040D440EF20E0218146014636
:104C20002AD42ED6EF204004B336800085066317C1
:104C3000052297670000938767DA09475286CE8579
:104C40002808C923AA84E35C09F203A7490083A7C3
:104C5000C900B7060080358FB58F23A2E90023A6CF
:104C6000F900B304A04021BF08C24CC223240600AF
:104C700023260600814421B72A86AE86EF202067CE
:104C800023A4A90023A6B90023A0A90023A2B90048
:104C90008144F5B5976700009387C7C89043D44314
:104CA00017640000130484C88544EF2040642A8AF6
:104CB000AE8A1040544045B5EF10200297670000BF
:104CC000938747C79043D4432A8AAE8AEF20A01621
:104CD00097670000938787C69043D443EF10802ADC
:104CE000EF20D054AA84EF20F05A976700009387F2
:104CF00067C29043D4432A8BAE8BEF20C0132A8621
:104D0000AE865285D685EF20805E97670000938738
:104D1000E7C09043D4432A8DAE8C5A85DE85EF20C0
:104D200080112A8AAE8AFD476A85E6855286D68634
:104D300063C79702EF20A05B9387F4FF13972700C8
:104D400097670000938787C1BA979C43AA8D2E8CE2
:104D5000638B870023A0A90023A2B90025A0EF2020
:104D60000059AA8D2E8C93574C011358444193F748
:104D7000F77FB307F840C14663C6F60423A0B90124
:104D800023A289016E86E2866A85E685EF20205699
:104D90005286D686EF20A05523A4A90023A6B900E9
:104DA000E35F09DCB707008033CC8701BD8D23A00A
:104DB000B90123A2890123A4A90023A6B900B30441
:104DC000904075BB976700009387C7B59043D44365
:104DD0005A85DE8542C4EF2000062A8AAE8A2A86DA
:104DE000AE866A85E685EF2080502E8C2A86AE86B8
:104DF0002A842EC66A85E685EF20604F5286D686C5
:104E0000EF20E04E97670000938747B29043D4436A
:104E10002A8AAE8A5A85DE85EF20E0015286D68640
:104E2000EF20E04C2A86AE862A8AAE8A2285E28569
:104E3000EF20E04B224893D7450193F7F77F3308E3
:104E4000F84093071003E28CAA8D2E8C63CA0701E9
:104E500023A0A90023A2B900228D2DB78D46D1BB76
:104E600097670000938707AE9043D4435A85DE8549
:104E7000EF10707C324C2A8AAE8A2A86AE86228552
:104E8000E285EF20C0462A86AE862A8DAE8C22852A
:104E9000E285EF20C0455286D686EF2040459767D1
:104EA00000009387A7AA9043D4432A8AAE8A5A85E2
:104EB000DE85EF1050785286D686EF2040432A8652
:104EC000AE862A8AAE8A6A85E685EF204042AA8DA0
:104ED0002E8C23A0A90023A2B9006DB5EF10800A83
:104EE000B727F93F9387B71F2A8AAE8A630EF40269
:104EF00017640000130484A210405440FD54EF10C6
:104F000060082A86AE8623A0A90023A2B900528594
:104F1000D685EF20C03D10405440EF10A00623A4DA
:104F2000A90023A6B900A1B9976700009387879FBE
:104F30009043D443176400001304449FFD54EF10C2
:104F400060042A8AAE8A1040544055BF39715AD045
:104F5000139B15004AD84ED662CC66CA06DE22DC08
:104F600026DA52D456D25ECE6AC86EC6135B1B00D8
:104F7000B707403E2E8CAA8C3289B6896355FB1048
:104F8000EF20D02A630905266686E2866685E285DB
:104F9000EF10706A976700009387C7B59043D443BA
:104FA0002A84AE84EF10306997670000938707B5B5
:104FB0009043D443EF00107D2286A686EF10B067A1
:104FC00097670000938707B49043D443EF202032C3
:104FD0002286A686EF10306697670000938707B396
:104FE0009043D443EF00107A2286A686EF10B06477
:104FF00097670000938707B29043D443EF20202F98
:105000002286A686EF10306397670000938707B16A
:105010009043D443EF0010772286A686EF10B0614C
:105020002A8AAE8A97670000938747919043D443BA
:105030002285A685EF1030602A8BAE8B5286D686ED
:105040002285A685EF10305F2A84AE844A86CE86FC
:105050006685E285EF10305E2A86AE862285A685BB
:10506000EF20E0282A86AE865A85DE85EF202028AC
:1050700097670000938707892A86AE868843CC43CA
:10508000EF20E0260DAA2A86AE86EF10D05A976749
:105090000000938727A69043D4432A84AE84EF1060
:1050A000905997670000938767A59043D443EF001A
:1050B000706D2286A686EF101058976700009387C0
:1050C00067A49043D443EF2080222286A686EF1067
:1050D000905697670000938767A39043D443EF00EF
:1050E000706A2286A686EF10105597670000938796
:1050F00067A29043D443EF20801F2286A686EF103C
:10510000905397670000938767A19043D443EF00C3
:1051100070672286A686EF101052B737D33F938769
:1051200027332A8AAE8AE3DF67EFB707E93F63C315
:10513000670B175700001307E77CB707E0FF08432A
:105140004C433E9B8147DA863E863E8DEF20201AF7
:10515000DA8DAE8B2A8B975700009387277E90437A
:10516000D4432285A685EF10104D6A86EE86EF2087
:1051700000182A8DAE8D5286D6862285A685EF1020
:10518000904B2A84AE844A86CE866685E285EF10EF
:10519000904A2A86AE862285A685EF2040152A866B
:1051A000AE866A85EE85EF2080142A86AE865A8503
:1051B000DE85EF20C013F2506254D2544259B259E6
:1051C000225A925A025BF24B624CD24C424DB24D83
:1051D00021618280976700009387C79003AB070027
:1051E00083AB4700976700009387479003AD0700A4
:1051F00083AD47008DB7975700009387A77088430A
:10520000CC4355BF130101D5232E3129B68913187C
:1052100027003ADC3ED4176700001307A796938750
:10522000F9FF232EB12742972326112A2324812A0E
:105230002322912A2320212B232C4129232A51295F
:1052400023286129232671292324812923229129B6
:105250002320A129B1562AD22EDA3EC8832D070079
:10526000634FD67E1307D6FFE147B347F7023ED020
:10527000850713972700998F8E0782559386F9FF2C
:105280003387DD00B2973384D540130917003ECA37
:105290000409229963430702225A93172400D297E4
:1052A00001458145634504008843EF20A07E88C006
:1052B000CCC00504A104E31224FF63C40D06C24B55
:1052C000125D1C0913993B0013048900139A3D00D9
:1052D0003E99BC0B840B3E9A6A944A8BEA8A014C35
:1052E000814C63C80B0203260B0083264B0003A5E9
:1052F0000A0083A54A00A10A611BEF10D0332A8659
:10530000AE866285E685EF00F0472A8CAE8CE39C82
:105310008AFC23A0840123A29401A1042109E39E15
:1053200044FB13972D007018930687FF330CE6009B
:10533000980036973AD81257139439009387FDFF97
:105340003A94370700207D173ACC370780007D1745
:105350008A073ADE981CBA97EE84130D011D3ED6DB
:105360006ECE93973400981CBA9703AA07F683AAC7
:1053700047F663569008E247930901043389F40025
:10538000975700009387877E03A847009C430E0928
:1053900042C23EC0975700009387C75B03A84700EF
:1053A0009C436A9942C63EC411A03E890246924679
:1053B0005285D685EF103028EF204067EF20806DB2
:1053C0002246B2462A8BAE8BEF10F0262A86AE8696
:1053D0005285D685EF10B071EF2040650326090095
:1053E0008326490023A0A900DE855A85EF00903965
:1053F0002A8AAE8A930789FF9109E3182DFB524B45
:10540000D68552855A86EF00B022975700009387C1
:1054100067769043D4432A89AE89EF10D021EF00FC
:10542000300C97570000938767759043D443EF1073
:1054300090202A86AE864A85CE85EF10506BAE89C5
:105440002A89EF20A05EAA8AEF20C0642A86AE8651
:105450004A85CE85EF10B0692A89AE8963576013FB
:105460009387F4FF981C8A07BA9703AA07DD614760
:1054700033076741B356EA403397E6003307EA4003
:105480005D4A330A6A4123A8E7DC335A4741B69A9A
:10549000634B4011014681464A85CE85EF10C07CA2
:1054A0006318051AF2471386F4FF634FF6009397CB
:1054B00024009800F117BA9701479443F117558FCC
:1054C000E39D87FF631D0728B25783A707DD63931A
:1054D0000728C2570547F117D4430507EDDE938728
:1054E0001400BE8ABA944247925D62C03309F70045
:1054F0000257330AF70062478E070A0A3A99225781
:105500000E09B309FD001C093A9A3E9903250A00C9
:10551000EF204058C2472324A9002326B90063C9BD
:105520000704CA8B6E8B014C814C31A003A50B0084
:1055300083A54B00E11B03260B0083264B00210BA8
:10554000EF10700F2A86AE866285E685EF00902305
:105550002A8CAE8CE31C8BFC23A0890123A2990129
:10556000850A110AA1092109E3D254FB024CD5BBDB
:10557000014C814C23A0890123A29901850A110ABB
:10558000A1092109E3D454F9D5B7D2476398071884
:105590009387F4FF8A07981CBA9703AA07DD135A6A
:1055A0007A41E35940EF850A635F904A0648854790
:1055B00063150812638EF400D400054703A80600A3
:1055C000930717009106631B08103E87E398F4FECB
:1055D00052476353E00285476307F7468947631DD7
:1055E000F7009387F4FF981C8A07BA9703A707DD93
:1055F0002A07298323A8E7DC8947E31DFAE89757A0
:105600000000938727308843CC434A86CE8642C029
:10561000EF10F04D02482A89AE89E30D08E697574E
:1056200000009387272E8843CC435246EF0050005A
:105630002A86AE864A85CE85EF10704B2A89AE89C0
:10564000014681464A85CE85EF100062E30C05E4F1
:10565000524D4A85CE853306A041F24DEF00407D84
:10566000975700009387072F03A9070083A94700D6
:105670002A8C4A86CE86AE8CEF10A0656340054624
:10568000175700001307874E104354436285E68581
:10569000EF10607AEF2080399C1C139424003E9414
:1056A000AA8BEF20203F4A86CE86EF10C0782A864C
:1056B000AE866285E685EF109043EF202037138B8E
:1056C0001400981C93172B00BA972328A4DC130707
:1056D0008D013ACA23A877DD55A801470A07370686
:1056E0000001941C369733080641232807DD63D553
:1056F00097028A073387F6008C00939624000327CD
:1057000007DDAE97AE967D1611A098433307E640AD
:1057100098C39107E39BD7FE05485DBD97570000EE
:105720009387C7219043D443014AEF10805AE34343
:1057300005D6850A094AE34B90E697570000938700
:10574000671C8843CC434A86CE86EF10503A2A899C
:10575000AE8989B393871400BE8ABE8469B3981C4E
:1057600093172600BA97524783A707DDF24D2117FA
:105770003ACA328B81EF93972400E1179400B697D1
:10578000F117D4437D1B2117E5DE3ACA9757000075
:10579000938747178843CC435246EF0060692A84B9
:1057A000AE8463400B3893173B003E87940BB38B5A
:1057B000E6003EC4175700001307473B93172B0022
:1057C0009400B38CF6005E8C032907008329470000
:1057D00011A0BE8C03A50C00611CEF20A02B22861B
:1057E000A686EF1040652324AC002326BC0022854A
:1057F000A6854A86CE86EF10006498002A84AE847F
:105800009387CCFFE31797FD1C1A3EC0EE8CBE8435
:10581000014463C80C06975700009387A734175CB0
:105820000000130C2C30DE898843CC43014D814DA0
:10583000014909A8210CA1096347240303250C0091
:1058400083254C0003A6090083A649000509EF1033
:10585000805E2A86AE866A85EE85EF00A0722A8D6C
:10586000AE8DE3D92CFD23A0A40123A2B401980B93
:105870000504A10493878BFF63027703BE8BE3DCEF
:105880000CF8014D814D23A0A40123A2B401980B73
:105890000504A10493878BFFE31277FF62578947C2
:1058A00063C7E7086343E01C21E7A24702440145C0
:1058B0008145B30CF40003A60C0083A64C00EF0056
:1058C000606C93878CFF630D9401BE8C03A60C0063
:1058D00083A64C00EF00006B93878CFFE31794FFC7
:1058E00063050A00B7070080BD8DD25688C2CCC2BE
:1058F0008320C12A0324812A13F57A008324412AB4
:105900000329012A8329C129032A8129832A4129BC
:10591000032B0129832BC128032C8128832C4128A8
:10592000032D0128832DC1271301012B828062578B
:105930008D47E31FF7FA63566021931B3B009C1CC5
:10594000DE979309011313848BFF4EC083AD07ECE0
:1059500003AD47EC4E9411A03E84032C0400832C2D
:1059600044006E86EA866285E685292D2A89AE8402
:105970002A86AE866285E685EF1070176E86EA8607
:10598000112508C44CC42320240144C0930784FF7C
:10599000CA8D268DE39289FC854763D4671B131457
:1059A0003B00024B9C1CBE9B611403AD0BECB3048B
:1059B0008B0083AB4BEC11A0BE8403AC040083AC22
:1059C00044006A86DE866285E6856D2BAA892E896B
:1059D0002A86AE866285E685EF1070116A86DE86BD
:1059E000552388C4CCC423A0340123A22401938767
:1059F00084FF4E8DCA8BE311FBFC824721040145D5
:105A000033898700814503260900832649006119EF
:105A1000952BE39A24FF0328011303274113032640
:105A200081138327C11363170A0CBE88D2574283A0
:105A3000328823A06700D8C323A4070123A6170137
:105A400088CBCCCB75B59387F4FF981C8A07BA979F
:105A500003A707DDF256758F23A8E7DC71BEA157B7
:105A600002D06FF09F810148A5B60247A2470144CA
:105A70008144B30CF700A2873A8411A0BA8C03A624
:105A80000C0083A64C002685BE85ED2913878CFF6C
:105A9000AA84AE87E31494FF2E8403250113832583
:105AA00041132686A286EF10900463130A06D2568D
:105AB00084C2C0C263506003241A05449040D4409D
:105AC0000504A104C121E35B8BFE63050A00B7074F
:105AD0000080BD8DD25688C6CCC619BD9C1C1394BF
