:100000006F00E04B1300000013000000130000001D
:100010001300000013000000130000001300000094
:100020001300000013000000130000001300000084
:08003000130000007300100032
:100038006FF09FFC000000006F00E0436F00A044D9
:1000480000000000000000000000000000000000A8
:100058000000000000000000000000000000000098
:100068006FF09FF9000000006FF01FF9000000001A
:100078006FF09FF86FF05FF86FF01FF86FF0DFF721
:100088006FF09FF76FF05FF76F00000B6F00C00B0A
:100098006F00E00F6F00E0106F00A0116FF0DFF548
:1000A8006FF09FF56FF05FF56F0080386FF0DFF449
:1000B8006FF09FF46FF05FF46F00A0120000000073
:1000C8000000000000000000000000006F00600F4A
:1000D8006F0020126F0020156F00E0176F00201DC1
:1000E8006F00E0256F0020286F00E02A6FF0DFF036
:1000F8006FF09FF06FF05FF06FF01FF06FF0DFEFC1
:100108006FF09FEF6F10F0666F00E02B6F004031CB
:100118006F00200C6FF05FEE6FF01FEE6FF0DFEDF9
:1001280000000000000000000000000000000000C7
:080138000000000000000000BF
:10014000411122C6000801003244410173002030F1
:10015000411122C60008094595292A87854763175A
:10016000F702B707002003A7C70689476315F70002
:10017000EF10603111A8B707002003A7C706854715
:100180006314F700EF10E0220945612901003244B1
:10019000410173002030411122C600081145512150
:1001A00001003244410173002030411122C6000891
:1001B00001003244410173002030411122C6000881
:1001C00001003244410173002030411122C6000871
:1001D00001003244410173002030411122C6000861
:1001E00001003244410173002030411122C6000851
:1001F00001003244410173002030411122C6000841
:1002000093050008B7370140138507C0EF00D03CC5
:10021000AA8789CB93050008B7370140138507C02B
:10022000EF0090420100324441017300203041113F
:1002300022C600088545B7370140138507C0EF0087
:10024000B039AA8781CB8545B7370140138507C0F0
:10025000EF00903F01003244410173002030411112
:1002600022C6000893050004B7370140138507C074
:10027000EF009036AA8789CB93050004B737014079
:10028000138507C0EF00503C93050002B7370140CB
:10029000138507C0EF005034AA8789CB930500026D
:1002A000B7370140138507C0EF00103A0100324410
:1002B000410173002030411122C600088945B7373B
:1002C0000140138507C0EF003031AA8781CB8945F3
:1002D000B7370140138507C0EF0010379145B73796
:1002E0000140138507C0EF00302FAA8781CB9145CD
:1002F000B7370140138507C0EF001035A145B73768
:100300000140138507C0EF00302DAA8781CBA1459E
:10031000B7370140138507C0EF001033C145B73729
:100320000140138507C0EF00302BAA8781CBC14560
:10033000B7370140138507C0EF0010310100324488
:10034000410173002030411122C600088545370560
:100350000040EF007028AA8791C785453705004007
:10036000EF00902E01003244410173002030411112
:1003700022C600088545B707004013850740EF00F7
:10038000B025AA8781CB8545B70700401385074074
:10039000EF00902B010032444101730020304111E5
:1003A00022C600088545B717004013850780EF0077
:1003B000B022AA8781CB8545B717004013850780F7
:1003C000EF009028010032444101730020304111B8
:1003D00022C6000893055052B747004013850740D6
:1003E000EF003061AA8785CF93055052B747004090
:1003F00013850740EF001070B707002003A7C7065A
:1004000089476315F700EF10000111A8B707002016
:1004100003A7C70685476314F700EF009072010039
:100420003244410173002030411122C6000801000E
:100430003244410173002030411122C60008096591
:10044000E5282A8785476317F7020965A122B707C0
:10045000002003A7C70689476315F700EF100006C1
:1004600011A8B707002003A7C70685476314F70044
:10047000EF009077010032444101730020304111B8
:1004800022C60008010032444101730020304111AE
:1004900022C6000801A0411106C622C40008EF10C0
:1004A000202DEF10805FEF10407E0145EF100030EF
:1004B000EF10B013AA87EDDFEF10F024F5BF97011E
:1004C00000209381A13A175100201301A1B31725F1
:1004D00000001305A5C1970500209385A5B21386DA
:1004E000018163FAC5008322050023A05500110590
:1004F0009105E3EAC5FE1385018193850185637744
:10050000B500232005001105E36DB5FE93028008B8
:1005100073A0023097020000938242B293E212006D
:1005200073905230EF10A06E970200009382E2F6B3
:100530007390123473002030797122D60018232E64
:10054000A4FC232604FE232404FE0327C4FDB707CE
:100550000010F98F89CBB7070240938707409C436F
:100560002324F4FE31A0B70702409C432324F4FE69
:10057000032784FE8327C4FDF98F89C78547232677
:10058000F4FE19A0232604FE8327C4FE3E853254C0
:1005900045618280011122CE00102326A4FE03278C
:1005A000C4FEB7070010F98F89CBB70702409387C5
:1005B00007400327C4FED8C331A0B7070240032772
:1005C000C4FED8C30100724405618280797122D6CD
:1005D0000018232EA4FC232604FE232404FEB707C0
:1005E0000140938707409C430327C4FDF98F2324D0
:1005F000F4FEB707014093870740D84B8327C4FD1B
:10060000F98F81CB832784FE89C785472326F4FE93
:1006100019A0232604FE8327C4FE3E85325445617B
:100620008280011122CE00102326A4FEB7070140CC
:10063000938707400327C4FED8CB010072440561AD
:100640008280397122DE80002326A4FC2324B4FC9E
:10065000232604FE232004FE232404FE232E04FC70
:10066000232204FE232C04FC832784FC9C47BD8B9F
:100670002326F4FE832784FC9C47C18B89CB8327E8
:1006800084FCDC430327C4FED98F2326F4FE832792
:1006900084FC83D7070093F7F70FF1CF8327C4FCBF
:1006A0009C432322F4FE232404FE65A8832784FEB2
:1006B0000547B317F700232EF4FC832784FC83D768
:1006C00007003E878327C4FDF98F2320F4FE03270C
:1006D00004FE8327C4FD6311F708832784FE8A077D
:1006E000232EF4FC8327C4FD3D47B317F700232CCA
:1006F000F4FC832784FD93C7F7FF032744FEF98F9B
:100700002322F4FE8327C4FD0327C4FEB317F7009A
:10071000032744FED98F2322F4FE832784FC9847C5
:1007200093078002631BF700832784FE0547331776
:10073000F7008327C4FCD8CB05A0832784FC984707
:1007400093078004631AF700832784FE0547331755
:10075000F7008327C4FC98CB832784FE85072324D6
:10076000F4FE032784FE9D47E3F2E7F48327C4FCED
:10077000032744FE98C3832784FC03D7070093070D
:10078000F00F63F1E70E8327C4FCDC432322F4FE61
:10079000232404FE75A8832784FEA1070547B31709
:1007A000F700232EF4FC832784FC83D707003E87C1
:1007B0008327C4FDF98F2320F4FE032704FE83273B
:1007C000C4FD6312F708832784FE8A07232EF4FCF6
:1007D0008327C4FD3D47B317F700232CF4FC832780
:1007E00084FD93C7F7FF032744FEF98F2322F4FE0D
:1007F0008327C4FD0327C4FEB317F700032744FE75
:10080000D98F2322F4FE832784FC98479307800224
:10081000631BF700832784FEA10705473317F70002
:100820008327C4FCD8CB832784FC98479307800494
:10083000631BF700832784FEA10705473317F700E2
:100840008327C4FC98CB832784FE85072324F4FEEA
:10085000032784FE9D47E3F0E7F48327C4FC0327C6
:1008600044FED8C30100725421618280011122CE5E
:1008700000102326A4FEAE872322C4FE2315F4FE17
:10088000832744FE99C70357A4FE8327C4FE98CB51
:1008900031A00357A4FE8327C4FED8CB01007244C5
:1008A00005618280797122D60018232EA4FC232CA6
:1008B000B4FC232404FE232204FE232604FE23206A
:1008C00004FE8327C4FD63D80700B7070140DC4F4F
:1008D0002326F4FE31A0B7070140DC432326F4FEB3
:1008E0008327C4FDC183BD8B2320F4FE0327C4FDF1
:1008F000C167FD17F98F2324F4FE0327C4FDB70752
:1009000030007D8FB70730006315F7020327C4FE60
:10091000B70700F1FD17F98F2326F4FEB707014052
:10092000D443B7070140370700F17D17758FD8C34F
:10093000ADA00327C4FDB7071000F98F8DCB832727
:1009400004FE0D47B317F7002322F4FE832744FE6D
:1009500093C7F7FF0327C4FEF98F2326F4FE03276E
:10096000C4FEB707000FD98F2326F4FE3DA08327CE
:10097000C4FDD5839207032784FEB317F70093C7FE
:10098000F7FF0327C4FEF98F2326F4FE0327C4FED6
:10099000B707000FD98F2326F4FE832784FD91CF5C
:1009A0008327C4FDD5839207032784FEB317F7007E
:1009B0000327C4FED98F2326F4FE8327C4FD63D802
:1009C0000700B70701400327C4FED8CF31A0B707FF
:1009D00001400327C4FED8C3010032544561828020
:1009E000011122CE00102326A4FE8327C4FEFD8B16
:1009F0000547B316F70037E700E08327C4FE958369
:100A0000938707048A07BA9794C30100724405616B
:100A10008280011122CE00102326A4FE8327C4FE6B
:100A2000FD8B0547B316F70037E700E08327C4FEC8
:100A30009583938707068A07BA9794C30100724487
:100A400005618280011122CE00102326A4FEAE870C
:100A5000A305F4FE37E700E08327C4FEBA970347F7
:100A6000B4FE2380E74001007244056182800111D9
:100A700006CE22CC00102326A4FEB7E700E0BC4738
:100A8000898B8DC38327C4FE83C707003E878327D6
:100A9000C4FE83C72700920793F7F70FBE853A85F8
:100AA000553795A0B7E700E0BC47898BA9EF8327AE
:100AB000C4FE03C7170085476318F7028327C4FEE7
:100AC00083C707003E878327C4FE83C7270092079A
:100AD000E207E18793E707F8E207E18793F7F70F6B
:100AE000BE853A85853705A08327C4FE83C70700E6
:100AF0003E878327C4FE83C72700920793F7F70F2B
:100B0000BE853A8581378327C4FEDC4381CB8327AA
:100B1000C4FE83C707003E85E13539A08327C4FEA4
:100B200083C707003E85F5350100F2406244056148
:100B30008280797122D60018232EA4FC232604FE7D
:100B4000232404FE232204FE232004FEB7170240C0
:100B5000DC43B18B2326F4FE0327C4FE91476302D6
:100B6000F7020327C4FEA1476305F7028327C4FEEB
:100B7000C5E78327C4FD37177A001307072098C3FA
:100B800065A08327C4FD37177A001307072098C391
:100B900061A8B7170240D843B7073C00F98F232458
:100BA000F4FEB7170240D843C167F98F2322F4FE41
:100BB000832784FEC98389072324F4FE832744FE08
:100BC00089EF032784FEB7173D009387079033070B
:100BD000F7028327C4FD98C381A8B7170240D84302
:100BE000B7070200F98F89CF032784FEB7173D00AE
:100BF000938707903307F7028327C4FD98C32DA07E
:100C0000032784FEB7177A00938707203307F7027C
:100C10008327C4FD98C309A88327C4FD37177A002A
:100C20001307072098C30100B7170240DC4393F76E
:100C3000070F2326F4FE8327C4FE91832326F4FEA8
:100C4000B7070020138707008327C4FEBA9783C71E
:100C5000070093F7F70F2320F4FE8327C4FD984382
:100C6000832704FE3357F7008327C4FDD8C3B71783
:100C70000240DC4393F707702326F4FE8327C4FE6B
:100C8000A1832326F4FEB7070020138707008327DC
:100C9000C4FEBA9783C7070093F7F70F2320F4FE2B
:100CA0008327C4FDD843832704FE3357F7008327E7
:100CB000C4FD98C7B7170240D84391679387078050
:100CC000F98F2326F4FE8327C4FEAD832326F4FE8A
:100CD000B7070020138707008327C4FEBA9783C78E
:100CE000070093F7F70F2320F4FE8327C4FDD843B2
:100CF000832704FE3357F7008327C4FDD8C7B717EF
:100D00000240D843B167F98F2326F4FE8327C4FE3F
:100D1000B9832326F4FEB7070020138787068327AD
:100D2000C4FEBA9783C7070093F7F70F2320F4FE9A
:100D30008327C4FDD847832704FE3357F702832750
:100D4000C4FD98CB0100325445618280011122CE4E
:100D500000102326A4FE2324B4FE832784FE99CB0F
:100D6000B7170240944FB71702400327C4FE558FB0
:100D700098CF21A8B7170240944F8327C4FE13C70A
:100D8000F7FFB7170240758F98CF010072440561D5
:100D90008280011122CE00102326A4FE2324B4FE5B
:100DA000832784FE99CBB7170240D44FB717024070
:100DB0000327C4FE558FD8CF21A8B7170240D44FC0
:100DC0008327C4FE13C7F7FFB7170240758FD8CF2C
:100DD0000100724405618280797122D60018232EA9
:100DE000A4FCAE87231DF4FC232604FE231504FE79
:100DF000231404FE8327C4FD83D70701139707013B
:100E000041838357A4FDF98F2315F4FE8327C4FD86
:100E100083D7C7001397070141838357A4FDF98F38
:100E20002314F4FE8357A4FE81CB835784FE89C725
:100E300085472326F4FE19A0232604FE8327C4FE3B
:100E40003E85325445618280011122CE0010232656
:100E5000A4FEAE872315F4FE8357A4FE93C7F7FFC5
:100E60001397070141838327C4FE2398E7000100FD
:100E70007244056182805D7186C6A2C48008232EFB
:100E8000A4FA232CB4FA232604FE232404FE2322EE
:100E900004FE232004FE232E04FC8327C4FB232E00
:100EA000F4FC8327C4FB83D70701C207C183232631
:100EB000F4FE0327C4FEB567FD17F98F2326F4FE61
:100EC000832784FB83D767003E878327C4FED98F9F
:100ED0002326F4FE8327C4FE13970701418383274B
:100EE000C4FB2398E7008327C4FB83D7C700C2074E
:100EF000C1832326F4FE0327C4FEBD679387379F73
:100F0000F98F2326F4FE832784FB03D7470083272A
:100F100084FB83D78700D98F1397070141838327E9
:100F200084FB83D7A700D98FC207C1833E8783275D
:100F3000C4FED98F2326F4FE8327C4FE139707012E
:100F400041838327C4FB2396E7008327C4FB83D711
:100F50004701C207C1832326F4FE0327C4FEC167ED
:100F60009387F7CFF98F2326F4FE832784FB83D75B
:100F7000C7003E878327C4FED98F2326F4FE83272C
:100F8000C4FE1397070141838327C4FB239AE7001C
:100F9000930784FC3E85713E0327C4FDB74701409B
:100FA000938707806317F700832744FD2324F4FE0B
:100FB00029A0832704FD2324F4FE8327C4FB83D7C1
:100FC000C700C207C183C207C18763D207020327D4
:100FD00084FEBA878607BA978E073E97832784FBDD
:100FE0009C438607B357F7022322F4FE05A003278C
:100FF00084FEBA878607BA978E073E97832784FBBD
:101000009C438A07B357F7022322F4FE032744FECA
:1010100093074006B357F70292072326F4FE83276F
:10102000C4FE13D7470093074006B307F702032710
:1010300044FEB307F7402320F4FE8327C4FB83D785
:10104000C700C207C183C207C18763D207028327D3
:1010500004FE8E071387270393074006B357F70252
:101060009D8B0327C4FED98F2326F4FE05A083277A
:1010700004FE92071387270393074006B357F7022E
:10108000BD8B0327C4FED98F2326F4FE8327C4FE1D
:101090001397070141838327C4FB2394E7000100D2
:1010A000B640264461618280011122CE00102326C1
:1010B000A4FE2324B4FE832784FE95C38327C4FEA5
:1010C00083D7C7001397070141838967D98F139787
:1010D000070141838327C4FE2396E70015A08327D9
:1010E000C4FE83D7C700139707014183F977FD1723
:1010F000F98F1397070141838327C4FE2396E700E6
:101100000100724405618280797122D60018232E75
:10111000A4FCAE87232AC4FC231DF4FC232404FE74
:10112000232204FE232004FE232604FE8327C4FD7D
:101130002326F4FE8357A4FD93F7F70F958393F7C7
:10114000F70F2324F4FE8357A4FDFD8B2322F4FE26
:10115000832744FE0547B317F7002320F4FE032737
:1011600084FE85476318F7008327C4FEB107232652
:10117000F4FE0DA0032784FE89476318F700832738
:10118000C4FEC1072326F4FE31A08327C4FED10785
:101190002326F4FE832744FD99CB8327C4FE944382
:1011A0008327C4FE032704FE558F98C321A88327F5
:1011B000C4FE9443832704FE13C7F7FF8327C4FEAE
:1011C000758F98C30100325445618280011122CE8F
:1011D00000102326A4FE8327C4FE83D74700C2073E
:1011E000C18393F7F71FC207C1833E85724405612F
:1011F0008280797122D60018232EA4FCAE87231D8D
:10120000F4FC232204FE232604FE232004FE2324D0
:1012100004FE8357A4FD93F7F70F958393F7F70F19
:101220002320F4FE8357A4FDFD8B2326F4FE8327A1
:10123000C4FE0547B317F7002326F4FE032704FE78
:101240008547631FF7008327C4FD83D7C700C20704
:10125000C1833E878327C4FEF98F2326F4FE3DA871
:10126000032704FE8947631FF7008327C4FD83D744
:101270000701C207C1833E878327C4FEF98F232657
:10128000F4FE29A88327C4FD83D74701C207C18381
:101290003E878327C4FEF98F2326F4FE8357A4FDDF
:1012A000A183C207C1832322F4FE832744FE05479E
:1012B000B317F7002322F4FE8327C4FD83D707006A
:1012C000C207C1833E87832744FEF98F2322F4FEA1
:1012D0008327C4FE81CB832744FE89C78547232407
:1012E000F4FE19A0232404FE832784FE3E85325495
:1012F00045618280797122D60018232EA4FCAE8726
:10130000231DF4FC231704FE231604FE8357A4FDBB
:10131000A1832317F4FE8357E4FE0547B317F700B4
:101320002316F4FE8357C4FE93C7F7FF13970701F4
:1013300041838327C4FD2390E700010032544561B7
:101340008280411122C6000889679387870DDC439C
:1013500083D7470013970701418383C73181BE8636
:101360001377F70F93870181B6972380E70083C730
:101370003181850713F7F70FA389E18003C7318116
:101380008547631AF70003C701819307500A630476
:10139000F700A389018003C731818D476317F700E8
:1013A000A38901800547238AE1800100324441017D
:1013B0008280411122C60008B70702409387470484
:1013C00009671307874BD8C3B707024093874704C1
:1013D0009843B7070240938747041367170098C3E1
:1013E0000100324441018280411122C600080547B4
:1013F000A38AE180B7070240938747049443B70765
:1014000002409387470441677917758F98C301009D
:10141000324441018280411122C6000889679387C6
:10142000870DDC4383D7470013970701418383C7A8
:10143000B181BE861377F70F93878181B69723809A
:10144000E70083C7B181850713F7F70FA38DE1800C
:1014500003C7B1818547631AF70003C781819307EA
:10146000500A6304F700A38D018003C7B1818D4743
:101470006317F700A38D01800547238EE1800100EB
:10148000324441018280411122C60008B707024060
:1014900093874704056713070796D8C3B707024029
:1014A000938747049843B70702409387470413671D
:1014B000170098C30100324441018280411122C6C5
:1014C00000080547A38EE180B707024093874704D1
:1014D0009443B70702409387470441677917758F94
:1014E00098C30100324441018280797106D622D42A
:1014F0000018232EA4FC232CB4FCB2872328D4FC90
:10150000A30BF4FC8327C4FD958393F7F70F9D8B02
:10151000A307F4FE8327C4FD93F7F70FFD8B230782
:10152000F4FE0327C4FD93070008630DF714832717
:10153000C4FD958391E785451145EFF03F8161A892
:101540008327C4FD13D7570085476317F7008545E8
:101550002145EFF0AFFF41A08327C4FD13D757000B
:1015600089476317F70085454145EFF02FFEA5A099
:101570008327C4FD13D757008D476318F7008545AF
:1015800013050002EFF08FFCB9A08327C4FD13D729
:10159000570091476318F700854513050004EFF0E5
:1015A000EFFA15A88327C4FD13D757009547631892
:1015B000F700854513050008EFF04FF929A88327A8
:1015C000C4FD13D7570099476317F70085451305E6
:1015D0000010EFF0AFF78347E4FE0547B317F700BD
:1015E000C207C1832310F4FE032784FD85476317D8
:1015F000F702832704FDC207C183A183C207C18309
:1016000089E78D472322F4FE11A8832704FDC20732
:10161000C183A183C207C1832322F4FE832704FD73
:10162000C207C18393F7F70F2324F4FE0347F4FEA8
:1016300089670A079387870CBA979C433E8793076D
:1016400004FEBE853A85EFE0DFFF032784FD854772
:10165000631BF7020347F4FE89670A079387870C29
:10166000BA979C43BE868347E4FE0547B317F7004D
:10167000C207C183034774FD3A86BE853685EFF005
:10168000EF9E11A00100B250225445618280797111
:1016900006D622D40018232EA4FCAE873687A30DCD
:1016A000F4FCB287230DF4FCBA87A30CF4FC832767
:1016B000C4FD93F7F70F2304F4FE8347B4FDA3049E
:1016C000F4FE8347A4FD2305F4FE834794FD2326FF
:1016D000F4FE930784FE3E85EFF06FB9B7E700E0B4
:1016E0009843FD777D8F83A701835D8F23A8E182D7
:1016F000B7E700E0D843B7070010FD177D8F938749
:101700000183DC435D8F93870183D8C39387018373
:1017100003C7870085476313F70031200100B250EB
:10172000225445618280411122C60008B7E700E0DB
:101730007D5723A0E718B7E700E07D5723A2E718FD
:101740000100324441018280411122C60008B7E7FE
:1017500000E003A7018323A0E710B7E700E01387A9
:101760000183584323A2E7100100324441018280E3
:10177000011106CE22CC00109387018305472384F4
:10178000E70083A7018381EB93870183DC4381E733
:10179000A30704FE21A08547A307F4FE693783470A
:1017A000F4FE3E85F240624405618280011106CE5E
:1017B00022CC0010AA87A307F4FE8347F4FE91E72A
:1017C000938701832384070041370100F24062447C
:1017D00005618280011106CE22CC00102326A4FED2
:1017E0002324B4FE8327C4FE95E3032784FE8547A4
:1017F000631EF70093068031014685452545F53186
:101800009146014681452945CD3161A80327C4FE93
:1018100089476310F7029306803101468545130519
:101820006002E13191460146814513057002753928
:101830008DA80327C4FEC147631EF70093068031BD
:1018400001468545094555319146014681450D457D
:10185000693981A80327C4FE930700026310F702C9
:1018600093068031014685451305A002BD39914696
:10187000014681451305B0028D3925A00327C4FE1A
:1018800093072002631FF7009306803101468545C8
:101890001305A00499399146014681451305B0040A
:1018A000A9310100F240624405618280797106D657
:1018B00022D40018232EA4FC232CB4FC232AC4FC1D
:1018C0002328D4FC85450545EFF04FC8832504FD4A
:1018D000032544FD0137032744FD8947631BF700B7
:1018E000032704FD8D476316F70085451145EFE09A
:1018F0007FFB032744FD93072002631FF7000327A4
:1019000004FD930730026319F7008545B7071400FB
:1019100013850701EFE01FF98327C4FD91E7854593
:101920001165EFF0AFC235A00327C4FD85476318EA
:10193000F700854537050200EFF0AFC519A803276A
:10194000C4FD89476317F700854537050400EFF0AC
:101950004FC4832784FD2320F4FE231204FE2313A7
:1019600004FE231404FE231604FEB1472315F4FEDF
:1019700089670327C4FD0A079387870DBA979C439D
:101980003E87930704FEBE853A85EFF0CFCE896788
:101990000327C4FD0A079387870DBA979C438545A3
:1019A0003E85EFF06FF00100B25022544561828015
:1019B000011122CE00102326A4FEAE87A305F4FE5B
:1019C000010089670327C4FE0A079387870DBA972A
:1019D0009C4383D70700C207C18393F70708F5D359
:1019E00089670327C4FE0A079387870DBA979C432C
:1019F0003E878347B4FEC207C1832312F70001006C
:101A0000724405618280011106CE22CC001023268B
:101A1000A4FE2324B4FE2322C4FE29A8832784FE27
:101A2000138717002324E4FE83C70700BE85032520
:101A3000C4FEBD3F832744FE1387F7FF2322E4FE45
:101A4000F1FF0100F240624405618280011106CE7F
:101A500022CC00102326A4FEAE87A305F4FE8967DE
:101A60000327C4FE0A079387870DBA979C43054650
:101A7000930550523E85EFF02FE98327C4FE9387EC
:101A800057030347B4FEBA86014685453E850131BA
:101A90000100F240624405618280411122C60008C3
:101AA000B7170240DC43C98313F7F700B7177A0072
:101AB000938707203307F702B727F400938707407F
:101AC0003E9723A0E182010032444101828001114E
:101AD00022CE0010232604FE232404FEB717024062
:101AE0009443B71702404167558F98C3B717024018
:101AF0009843B7070200F98F2324F4FE8327C4FE1E
:101B000085072326F4FE832784FE99E70327C4FE76
:101B100093070050E31CF7FCB71702409843B70740
:101B20000200F98F89C785472324F4FE19A02324D6
:101B300004FE032784FE85476317F70CB72702408E
:101B40009843B72702401367070198C3B72702409D
:101B50009843B7270240719B98C3B7270240984328
:101B6000B72702401367270098C337170240B717FB
:101B700002405843D8C337170240B71702405843B2
:101B8000D8C337170240B71702405843D8C3B71716
:101B90000240D443B71702403707C1FF7D17758F46
:101BA000D8C3B7170240D443B71702403707250000
:101BB000558FD8C3B71702409443B7170240370771
:101BC0000001558F98C30100B71702409843B7072B
:101BD0000002F98FF5DBB7170240D843B717024070
:101BE000719BD8C3B7170240D843B7170240136799
:101BF0002700D8C30100B7170240DC4313F7C70022
:101C0000A147E31AF7FE0100724405618280411189
:101C100006C622C40008B71702409843B71702400F
:101C20001367170098C3B7170240D443B717024091
:101C30003707FFF8758FD8C3B71702409443B7171B
:101C400002403707F7FE7D17758F98C3B71702401C
:101C50009443B71702403707FCFF7D17758F98C371
:101C6000B7170240D443B7170240370781FF7D17EB
:101C7000758FD8C3B717024037079F0098C7813DBB
:101C80000100B240224441018280411106C622C4B3
:101C9000000885460146F1679385072001453931E3
:101CA00093060031054681451305C004EFF0FF831C
:101CB00085450145613B8546014681451305500335
:101CC000EFF0FF9C0100B240224441018280797113
:101CD00006D622D40018232EA4FC8327C4FD89072E
:101CE00083C707008D072326F4FE8327C4FEF91758
:101CF0000327C4FDBA97238007008327C4FEFD177E
:101D00000327C4FDBA97238007000325C4FD0126DD
:101D1000AA872315F4FE8317A4FEA18793960701D3
:101D2000C1868327C4FEF9170327C4FDBA9713F7AA
:101D3000F60F2380E7008327C4FEFD170327C4FDA9
:101D4000BA970357A4FE1377F70F2380E700832782
:101D5000C4FD3E85B250225445618280011122CEDD
:101D60000010AA87A307F4FE0347F4FE9307A00F11
:101D7000630BF70083C7818091EF0347F4FE93075D
:101D8000B00F6319F70083C78180850713F7F70F3A
:101D90002384E18083C75182138717009376F70F5E
:101DA000A382D1823E879387C183BA970347F4FE0B
:101DB0002380E70083C751823E879387C18383C70F
:101DC00027008D076317F700A38201827D572384C4
:101DD000E18003C75182D14763F5E70009472382B9
:101DE000E1820100724405618280411106C622C46D
:101DF000000803A781828D476303F70A9387C18395
:101E000083C72700C9CF9387C18303C7370089479A
:101E10006318F70203A7818289476313F702938748
:101E2000C18383C727008D073E869385C183014503
:101E3000D93E0D4723A4E18205472386E18285A090
:101E40009387C18303C7370085476315F70203A74C
:101E5000818285476310F7029387C18383C7270078
:101E60008D073E869385C1830145713E094723A4B2
:101E7000E18235A09387C18383C737008DE383A7B1
:101E8000818291EF9387C18383C727008D073E86A8
:101E90009385C1830145853E054723A4E18283C71D
:101EA000C182A1CF9387C18303C7370085476306EB
:101EB000F7049387C18383C73700A1E39387C18366
:101EC00083C727008D073E869385C1830145253E44
:101ED000B707002013850701DD3B2A87B7070020DD
:101EE0009387070183C727008D073E86BA85014582
:101EF000193E23860182854711A081473E85B24065
:101F0000224441018280411106C622C40008938701
:101F1000C18303C73700AD476313F70031A0938730
:101F2000C18303C73700D547B707002013850701D2
:101F3000793B2A87B70700209387070183C72700CB
:101F40008D073E86BA850145EFF0FFABB70700204D
:101F500013854704AD3B2A87B707002093874704C2
:101F600083C727008D073E86BA850145EFF0BFA9DC
:101F70000100B2402244410182801D7186CE96CC80
:101F80009ACA9EC8A2C6AAC4AEC2B2C036DE3ADCA5
:101F90003EDA42D846D672D476D27AD07ECE80103F
:101FA00093055052B747014013850780EFF06FA4A7
:101FB000AA878DCB93055052B74701401385078000
:101FC000EFF04FB383C7418291EFB74701401385CC
:101FD0000780EFF0AF9FAA87A307F4FA8347F4FACC
:101FE0003E85AD3B0100F640E6425643C6433644CB
:101FF000264596450646F2566257D2574258B25881
:10200000225E925E025FF24F25617300203079718B
:1020100022D60018232EA4FC231704FE8D47232468
:10202000F4FE8327C4FD890783C70700F91723221D
:10203000F4FEA9A8832784FE0327C4FDBA9783C7AB
:102040000700A207139707014187832784FE8507AE
:102050008326C4FDB69783C70700C207C187D98FFF
:10206000C207C1871397070141838357E4FEBA97DC
:10207000C207C1832317F4FE832744FEF9172322E6
:10208000F4FE832784FE89072324F4FE032744FEFD
:102090008547E3C1E7FA832744FE6351F0028327B3
:1020A00084FE0327C4FDBA9783C70700139707016F
:1020B00041878357E4FEB98F2317F4FE8317E4FEAC
:1020C0003E8532544561828000080140000C014089
:1020D000001001400014014000380140004400405D
:0820E00000480040004C0040E4
:1020E80000000000010203040102030406070809B6
:1020F800FAFB2E3200000000000000000000500033
:1021080000000000000008000100010100020100B9
:102118000301000401000501000601000701000099
:1021280000000000FAFB00F00000000000000000C2
:102138000000000000000000000000000000000097
:102148000000000000000000020406080100000072
:08215800FF0000000000000080
:00000001FF
